:100000000C942A000C9447000C9447000C94470071
:100010000C9447000C9447000C9447000C94470044
:100020000C9447000C9447000C9447000C948C05EA
:100030000C9447000C9447000C9447000C94470024
:100040000C9447000C9447000C9447000C94470014
:100050000C94470011241FBECFE5D4E0DEBFCDBF16
:1000600011E0A0E6B0E0E6E7F8E102C005900D92ED
:10007000A03BB107D9F711E0A0EBB1E001C01D92A0
:10008000A73DB107E1F70E94E2060C94390C0C94ED
:1000900000008AEF90E0FC013197F1F7A898A99849
:1000A00040E345BBAA9A22EE34E0F9013197F1F71B
:1000B000AA98FC013197F1F7A898A99845BBAA9A8C
:1000C000F9013197F1F7AA98FC013197F1F7A89857
:1000D000A99845BBAA9AF9013197F1F7AA98019717
:1000E000F1F7A898A99880E285BBAA9AC90101975F
:1000F000F1F7AA98089595B39F7095BB25B3982FF3
:10010000907F922B95BBA898A998AA9A22EE34E0EA
:10011000F9013197F1F7AA9895B39F7095BB95B304
:100120008295807F982B95BBA898A998AA9AC90117
:100130000197F1F7AA9808958AEF90E00197F1F7F7
:1001400088E20E947B0081E00E947B0086E00E94A2
:100150007B008EE00E947B0080E80E947B00089577
:1001600095B39F7095BB25B3982F907F922B95BB2D
:10017000A89AA998AA9A22EE34E0F9013197F1F7EA
:10018000AA9895B39F7095BB95B38295807F982B65
:1001900095BBA89AA998AA9AC9010197F1F7AA98BC
:1001A000089580E80E947B000895CF93DF93EC01CF
:1001B00003C00E94B000219688818823D1F7C0E057
:1001C000D0E080E20E94B0002196CA30D105C9F784
:1001D000DF91CF910895823069F0833018F4813037
:1001E000A9F405C0833049F0843081F40BC0862F18
:1001F000815805C0862F815402C0862F8D560E94DB
:100200007B000895862F8D520E947B0008950F93E6
:100210001F93CF93DF938A01E901882311F06623AE
:1002200019F40E94D10002C00E94EB00C530D10534
:1002300071F4C80160E177E20E94DB0BCB01C0964C
:100240009093C6018093C5010E94B00005C0C430E0
:10025000D10511F080E016C0C80168EE73E00E947D
:10026000DB0BCB016093C7019093C8016AE070E09B
:100270000E94DB0BC0969093D4018093D3010E941F
:10028000B00081E0C330D10521F0813011F080E071
:1002900016C0C80164E670E00E94DB0BCB016093DE
:1002A000C7019093C8016AE070E00E94DB0BC09622
:1002B0009093D0018093CF010E94B00081E0C230C2
:1002C000D10521F0813011F080E016C0C8016AE04C
:1002D00070E00E94DB0BCB016093C7019093C801D3
:1002E0006AE070E00E94DB0BC0969093CD01809392
:1002F000CC010E94B00081E0C130D10511F0813005
:1003000061F4C8016AE070E00E94DB0BC096909334
:10031000D2018093D1010E94B00026971CF085E4A1
:100320000E94B000DF91CF911F910F91089584B387
:10033000876F84BB85B3807885BB08951ABA1BBAD2
:10034000089587B38F6087BB88B3807F88BB81B3F4
:10035000806381BB82B3806382BB0895A39AAB980C
:10036000089584B3876F84BB85B3807885BB1ABA40
:100370001BBAA39AAB9887B38F6087BB88B3807F83
:1003800088BB81B3806381BB82B3806382BB0895E5
:100390001EBC9FEF9DBD81E08CBD1BBC9ABD19BCEE
:1003A00098BD17BC96BD81EA8FBD8DE08EBD0895C6
:1003B00016B880E287B980E888B986E886B90895DA
:1003C0001AB81BB886E880BD8FE289B910BC88E9ED
:1003D0008AB908951F93F8940E94B1011EBC9FEF43
:1003E0009DBD81E08CBD1BBC9ABD19BC98BD17BCDE
:1003F00096BD81EA8FBD8DE08EBD16B880E287B9CB
:1004000080E888B916E816B90E9449000E949C004D
:100410001AB81BB810BD8FE289B910BC88E98AB937
:1004200078941F9108958770806287B9369A349BBB
:10043000FECF85B1349A08954770406247B9369A25
:10044000349BFECF45B1349A4093C90150E023E07C
:1004500030E00E94070108956F927F928F929F92E1
:10046000AF92BF92CF92DF92EF92FF920F931F93C2
:1004700083E287B9369A349BFECF85B1349A809354
:10048000B00184E287B9369A349BFECF85B1349AA5
:100490008093B10185E287B9369A349BFECF85B14E
:1004A000349A8093B20182E090E061E070E043E032
:1004B00050E00E941C0282E090E065E070E044E0C1
:1004C00050E00E941C0282E090E069E070E045E0AC
:1004D00050E00E941C022091A4003091A500809160
:1004E000B00190E082179307E4F48091B10190E0AD
:1004F000821793073CF48091A2009091A30062E0E0
:1005000070E00CC08091B20190E0281739074CF5DB
:100510008091A2009091A30064E070E00E94EF0B34
:100520001CC08091B20190E082179307D4F48091AF
:10053000B10190E04091A2005091A300821793076F
:1005400024F4CA0162E070E003C0CA0164E070E014
:100550000E94EF0B709561957F4F7093B901609386
:10056000B8016091B8017091B9012091BE0130913C
:10057000BF015B01A21AB30AB092BB01A092BA01FB
:10058000E090BC01F090BD01E60EF71EF092BD01B7
:10059000E092BC017093BF016093BE01882777FD94
:1005A0008095982F0E948D0920919A0030919B0090
:1005B00040919C0050919D000E9493083B014C018A
:1005C0000027F7FC0095102FC801B7010E948D0984
:1005D0002091B4013091B5014091B6015091B7011D
:1005E0000E9493089B01AC01C401B3010E946608FC
:1005F0007B018C01CC24B7FCC094DC2CC601B50176
:100600000E948D0920919E0030919F004091A00092
:100610005091A1000E9493089B01AC01C801B70151
:100620000E9466080E94EB097093D6016093D50181
:100630008091A2009091A3008617970724F49093CD
:10064000D6018093D50122273327281B390B8091AF
:10065000D5019091D6018217930724F43093D601E7
:100660002093D50181E287B9369A349BFECF85B1BC
:10067000349A8093B3011F910F91FF90EF90DF9018
:10068000CF90BF90AF909F908F907F906F90089584
:100690000E942C028091B301883218F021E030E0F2
:1006A00011C088B3807F88BB81E061E00E94EB00CD
:1006B00080E690E00E94D50088EA91E60197F1F784
:1006C00020E030E0C901089583B3886085BB0895B8
:1006D00083B3877F85BB089598B3907F8F70892BF4
:1006E00088BB089588B3807F866088BB089588B3EF
:1006F000807F88BB089588B3807F896088BB089518
:1007000088B3807F856088BB089588B3807F8A60C6
:1007100088BB089588B3807F826088BB089588B3C2
:10072000807F846088BB08951BBC8ABD19BC68BDEE
:1007300008950F931F93CF93DF9381E061E00E94B0
:10074000EB0089E690E00E94D5000E942C0288B35D
:10075000807F866088BB0091940010919500C091C5
:100760009600D09197008091980090919900C81BB5
:10077000D90B2091A4003091A5008091B10190E0A7
:100780004091B001281739076CF5842F90E02817A5
:1007900039078CF4B801882777FD8095982F0E943F
:1007A0008D0923E333E343E35FE30E9493080E9450
:1007B000EB098B012FC08091B20190E02817390717
:1007C0004CF5BE01882777FD8095982F0E948D09F2
:1007D00023E333E343E35FE30E9493080E94EB09C2
:1007E000EB0118C0842F90E0281739073CF4C801AA
:1007F00062E070E00E94EF0B8B010CC08091B201AF
:1008000090E02817390734F4CE0162E070E00E94CE
:10081000EF0BEB01C801BE010E9494032091A400DC
:100820003091A5008091B10190E082179307DCF42C
:100830008091B00190E082179307ACF48091B201EF
:1008400090E0821793077CF488B3807F866088BB32
:1008500088B3807F88BB81E061E00E94EB0085E780
:1008600090E00E94D500DF91CF911F910F910895E4
:100870000E942C022091A4003091A5008091B1012A
:1008800090E0281739070CF041C08091B00190E04A
:10089000281739070CF03AC08091B20190E0281770
:1008A0003907A4F588B3807F866088BB6091960085
:1008B000709197008091980090919900681B790B36
:1008C00080919400909195000E9494038CE09BE7A6
:1008D00029E130E0F9013197F1F70197D9F781E08B
:1008E00061E00E94EB008AE790E00E94D50088B3A7
:1008F000807F88BB80E395E729E130E0F9013197FB
:10090000F1F70197D9F721E030E002C020E030E0B4
:10091000C90108950F931F93CF93DF93EC0188B320
:10092000807F896088BBC130D10531F5609194002A
:1009300070919500882777FD8095982F0E948D09EA
:100940002AE939E949E95FE30E949308409196005A
:10095000509197002091980030919900421B530BC1
:100960000E94940380E69AEE29E130E0F901319784
:10097000F1F70197D9F71AC0C230D105B9F46091E7
:100980009600709197008091980090919900681B53
:10099000790B80E090E00E94940380E69AEE29E1D2
:1009A00030E0F9013197F1F70197D9F788B3807FEB
:1009B00088BB80E197E229E130E0F9013197F1F756
:1009C0000197D9F7C130D10521F488B3807F8460C5
:1009D00005C0229721F488B3807F826088BB0E9483
:1009E0002C020091940010919500C0919600D09136
:1009F00097008091980090919900C81BD90B209185
:100A0000A4003091A5008091B10190E04091B00127
:100A1000281739076CF5842F90E0281739078CF4D4
:100A2000B801882777FD8095982F0E948D0923E3D0
:100A300033E343E35FE30E9493080E94EB098B01D9
:100A40002FC08091B20190E0281739074CF5BE0104
:100A5000882777FD8095982F0E948D0923E333E343
:100A600043E35FE30E9493080E94EB09EB0118C087
:100A7000842F90E0281739073CF4C80162E070E049
:100A80000E94EF0B8B010CC08091B20190E02817FF
:100A9000390734F4CE0162E070E00E94EF0BEB0105
:100AA000C801BE010E9494032091A4003091A500CA
:100AB0008091B00190E0821793070CF090CF809165
:100AC000B10190E0281739070CF089CF8091B2016D
:100AD00090E0821793070CF082CFDF91CF911F91A6
:100AE0000F91089581E061E00E94EB0087E890E0BB
:100AF0000E94D50082E090E00E948A04089581E07F
:100B000061E00E94EB008DE890E00E94D50081E05A
:100B100090E00E948A0408951F920F920FB60F92E0
:100B200011242F938F939F93F8942CB12093C40199
:100B30008091C2019091C301009729F42093C001D4
:100B400081E090E007C08130910549F42093C10114
:100B500082E090E09093C3018093C20114C0029799
:100B600091F48091C001843631F48091C1018033C9
:100B700011F42093CE011092C0011092C101109285
:100B8000C3011092C20178949F918F912F910F9081
:100B90000FBE0F901F901895AC01F89483E28CB9AA
:100BA000E4EDF0E33197F1F720E030E0A4EDB0E3BD
:100BB0000AC0FA01E20FF31F80818CB9FD01319761
:100BC000F1F72F5F3F4F261737079CF383E28CB96D
:100BD00084ED90E30197F1F778940895DF93CF9334
:100BE00000D000D0CDB7DEB780E38A838EE28B835E
:100BF000F89493E29CB924ED30E3F9013197F1F7D1
:100C000084E68CB9F9013197F1F78A818CB9F90141
:100C10003197F1F78B818CB9F9013197F1F79CB9D4
:100C2000C9010197F1F778940F900F900F900F90F2
:100C3000CF91DF9108950E942C020E944803892BD6
:100C4000E1F30E943804019789F40E94EE0588B30D
:100C5000807F88BB80E197E229E130E0F90131979C
:100C6000F1F70197D9F720E030E004C00E94990322
:100C700021E030E0C9010895FF920F931F93CF93B5
:100C8000DF9387E78093CE0109E110E0C8EAD1E65F
:100C900087E7F82E08C081E061E00E94EB0082E95E
:100CA00090E00E94D5008091CE018737A1F381E0CA
:100CB00061E00E94EB008091CE0190E00E94D5009F
:100CC0000FC088B3807F88BB8FEF9FEFF80131970B
:100CD000F1F70197D9F70E94EE05CE010197F1F7E0
:100CE0008091CE01882369F3863611F41092CE01EB
:100CF0008091CE01823721F41092CE010E947205BC
:100D00008091CE018C3621F41092CE010E947F0595
:100D10008091CE01883619F41092CE0104C08F362E
:100D200049F4F092CE0188B3807F88BBCE01019751
:100D3000F1F7B9CF0E941B060197E1F3B4CFCF932F
:100D4000DF93C0E0D0E00E942C020E944803892B70
:100D5000E1F30E943804019709F52196C130D105CD
:100D600019F0C830D10514F00E947F05CE0102971A
:100D7000029730F0C530D10519F0C630D10511F415
:100D80000E947205C430D10519F0C730D10511F4A5
:100D90000E949903CA30D105B1F6D3CF0E949903BE
:100DA000D2CF0E949903FDCFCF93DF93C9E1D0E06A
:100DB0000E94EE0588E99AE3FE013197F1F7019769
:100DC000D9F7F6CF0E94EA010E943C0680E090E04D
:100DD0000895A0E0B0E0EFEEF6E00C94020CDC0128
:100DE0002B01FA019C91923008F439C1EB01888102
:100DF000823008F433C1943069F4843009F02FC193
:100E000011969C9111978981981709F428C1A7EA36
:100E1000B0E025C1843009F421C18230A9F49230B8
:100E200009F01DC19A01AD0188E0EA010990AE0107
:100E3000E90109929E018150C1F7E2018981119671
:100E40009C918923818308C1923009F407C11296CD
:100E50002D903C901397EB018A819B811496AD9065
:100E6000BD90CD90DC901797EC80FD800E811F81A6
:100E70009101281B390BB90137FF04C0662777277A
:100E8000621B730B603271050CF061C01216130601
:100E90006CF537014801062E04C096948794779428
:100EA00067940A94D2F721E030E040E050E004C0BB
:100EB000220F331F441F551F6A95D2F7215030402F
:100EC000404050402E213F21402351232115310520
:100ED0004105510521F021E030E040E050E079018A
:100EE0008A01E628F728082919293CC0232BD1F1CB
:100EF000260E371E35014601062E04C096948794AF
:100F0000779467940A94D2F721E030E040E050E013
:100F100004C0220F331F441F551F6A95D2F721507A
:100F20003040404050402A213B214C215D21211579
:100F300031054105510521F021E030E040E050E06D
:100F400059016A01A628B728C828D9280BC08215DC
:100F500093052CF01C01AA24BB24650103C0EE24D8
:100F6000FF24870111969C91D20111968C919817BC
:100F700009F445C0992339F0A80197012A193B09C2
:100F80004C095D0906C0A60195012E193F09400BC9
:100F9000510B57FD08C0118233822282248335838E
:100FA000468357831DC081E0818333822282882754
:100FB0009927DC01821B930BA40BB50B84839583CB
:100FC000A683B7830DC0220F331F441F551F2483F0
:100FD00035834683578382819381019793838283EC
:100FE0002481358146815781DA01C9010197A10920
:100FF000B1098F5F9F4FAF4FBF4328F30BC0918361
:1010000033822282EA0CFB1C0C1D1D1DE482F5823A
:101010000683178383E0808324813581468157814D
:1010200057FF1AC0C901AA2797FDA095BA2F817052
:101030009070A070B0705695479537952795822B84
:10104000932BA42BB52B84839583A683B7838281AE
:101050009381019693838283DF0101C0D201CD0188
:10106000CDB7DEB7E2E10C941E0CA0E2B0E0EBE3FA
:10107000F8E00C940E0C69837A838B839C832D8318
:101080003E834F835887E9E0EE2EF12CEC0EFD1ED7
:10109000CE010196B7010E94630B8E010F5E1F4FB8
:1010A000CE010596B8010E94630B8A8991E08927D9
:1010B0008A8BC701B801AE01475E5F4F0E94E90607
:1010C0000E948E0AA096E6E00C942A0CA0E2B0E002
:1010D000ECE6F8E00C940E0C69837A838B839C8396
:1010E0002D833E834F835887F9E0EF2EF12CEC0ED1
:1010F000FD1ECE010196B7010E94630B8E010F5EAB
:101100001F4FCE010596B8010E94630BC701B801BD
:10111000AE01475E5F4F0E94E9060E948E0AA096CC
:10112000E6E00C942A0CA0E2B0E0E9E9F8E00C94C7
:10113000020C69837A838B839C832D833E834F8348
:101140005887CE010196BE01675F7F4F0E94630BF7
:10115000CE010596BE016F5E7F4F0E94630B99859D
:10116000923088F089898230C8F0943019F4823046
:1011700051F404C0843029F4923081F487EA90E07D
:10118000C6C0923049F420E09A858A89981321E0FC
:101190002A87CE010996BBC0823049F420E09A85A7
:1011A0008A89981321E02A8BCE014196B0C02D8404
:1011B0003E844F8458886D887E888F88988CEE2472
:1011C000FF248701AA24BB24650140E050E060E0D1
:1011D00070E0E0E0F0E0C10181709070892BE9F0EF
:1011E000E60CF71C081D191D9A01AB012A0D3B1DC9
:1011F0004C1D5D1D80E090E0A0E0B0E0E614F70437
:101200000805190520F481E090E0A0E0B0E0BA0103
:10121000A901480F591F6A1F7B1FAA0CBB1CCC1CBD
:10122000DD1C97FE08C081E090E0A0E0B0E0A82AB5
:10123000B92ACA2ADB2A3196E032F10549F0660C58
:10124000771C881C991C5694479437942794C3CFD5
:10125000FA85EA892B893C898B859C85280F391F63
:101260002E5F3F4F17C0CA0181709070892B61F0CB
:1012700016950795F794E79480E090E0A0E0B0E839
:10128000E82AF92A0A2B1B2B7695679557954795DF
:101290002F5F3F4F77FDE7CF0CC0440F551F661FF0
:1012A000771F17FD4160EE0CFF1C001F111F21501E
:1012B0003040403090E0590790E0690790E47907AA
:1012C00060F32B8F3C8FDB01CA018F779070A07089
:1012D000B07080349105A105B10561F447FD0AC0E5
:1012E000E114F1040105110529F0405C5F4F6F4FD7
:1012F0007F4F40781A8EFE1711F081E08A8F4D8F54
:101300005E8F6F8F78A383E0898FCE0149960E940C
:101310008E0AA096E2E10C941E0CA8E0B0E0E3E98E
:10132000F9E00C940B0C9B01AC0183E08983DA019A
:10133000C9018827B7FD83959927AA27BB27B82E0F
:10134000211531054105510519F482E089833AC020
:101350008823A9F0203080E0380780E0480780E843
:10136000580729F460E070E080E09FEC30C0EE2484
:10137000FF248701E21AF30A040B150B02C079015E
:101380008A018EE1C82ED12CDC82CB82ED82FE82D6
:101390000F831887C801B7010E943F0A01971816EA
:1013A000190684F4082E04C0EE0CFF1C001F111F48
:1013B0000A94D2F7ED82FE820F831887C81AD90AE1
:1013C000DC82CB82BA82CE0101960E948E0A2896D8
:1013D000E9E00C94270CACE0B0E0E1EFF9E00C940C
:1013E000120C69837A838B839C83CE010196BE01A4
:1013F0006B5F7F4F0E94630B8D81823061F1823081
:1014000050F1843021F48E81882351F12EC02F8138
:10141000388537FD20C06E812F3131051CF06623E1
:10142000F9F023C08EE190E0821B930B29853A8569
:101430004B855C8504C056954795379527958A95C9
:10144000D2F76623B1F050954095309521953F4FE6
:101450004F4F5F4F0EC020E030E040E050E009C049
:101460002FEF3FEF4FEF5FE704C020E030E040E0B8
:1014700050E8B901CA012C96E2E00C942E0CEF92D0
:10148000FF920F931F937B018C0180E0E81680E0B0
:10149000F80681E0080780E0180788F48FEFE81667
:1014A000F1040105110531F028F088E090E0A0E09A
:1014B000B0E017C080E090E0A0E0B0E012C080E0B3
:1014C000E81680E0F80680E0080781E0180728F0B9
:1014D00088E190E0A0E0B0E004C080E190E0A0E00E
:1014E000B0E020E230E040E050E0281B390B4A0B2E
:1014F0005B0B04C016950795F794E7948A95D2F78D
:10150000F701E155FF4F8081281B3109410951093D
:10151000C9011F910F91FF90EF900895DF92EF9214
:10152000FF920F931F93FC01E480F58006811781E1
:10153000D1808081823048F480E090E0A0E1B0E08A
:10154000E82AF92A0A2B1B2BA5C0843009F49FC076
:10155000823021F4EE24FF24870105C0E114F10458
:101560000105110519F4E0E0F0E096C06281738195
:101570009FEF623879070CF05BC022E83FEF261B33
:10158000370B2A3131052CF020E030E040E050E00C
:101590002AC0B801A701022E04C076956795579519
:1015A00047950A94D2F781E090E0A0E0B0E004C053
:1015B000880F991FAA1FBB1F2A95D2F70197A1096F
:1015C000B1098E219F21A023B1230097A105B10568
:1015D00021F081E090E0A0E0B0E09A01AB01282B7F
:1015E000392B4A2B5B2BDA01C9018F779070A070E1
:1015F000B07080349105A105B10539F427FF09C009
:10160000205C3F4F4F4F5F4F04C0215C3F4F4F4F17
:101610005F4FE0E0F0E02030A0E03A07A0E04A07AA
:10162000A0E45A0710F0E1E0F0E079018A0127C058
:101630006038710564F5FB01E158FF4FD801C7011F
:101640008F779070A070B07080349105A105B105BE
:1016500039F4E7FE0DC080E490E0A0E0B0E004C003
:101660008FE390E0A0E0B0E0E80EF91E0A1F1B1F18
:1016700017FF05C016950795F794E794319687E014
:1016800016950795F794E7948A95D1F705C0EE244F
:10169000FF248701EFEFF0E06E2F679566276795CF
:1016A000902F9F77D794DD24D7948E2F8695492F3E
:1016B000462B582F5D29B701CA011F910F91FF904A
:1016C000EF90DF900895FC01DB0140815181228180
:1016D000622F6F7770E0221F2227221F9381892FAC
:1016E000880F822B282F30E0991F9927991F119678
:1016F0009C93119721153105A9F5411551056105F7
:10170000710511F482E037C082E89FEF13969C9335
:101710008E9312979A01AB0167E0220F331F441F8B
:10172000551F6A95D1F783E08C930DC0220F331FAC
:10173000441F551F12968D919C91139701971396F4
:101740009C938E931297203080E0380780E0480702
:1017500080E4580758F314962D933D934D935C9372
:10176000179708952F3F310579F44115510561050B
:10177000710519F484E08C93089564FF03C081E03F
:101780008C9312C01C9210C02F57304013963C937C
:101790002E93129783E08C9387E0440F551F661FAA
:1017A000771F8A95D1F7706414964D935D936D936E
:1017B0007C9317970895AA1BBB1B51E107C0AA1F72
:1017C000BB1FA617B70710F0A61BB70B881F991FE2
:1017D0005A95A9F780959095BC01CD01089597FB86
:1017E000092E07260AD077FD04D0E5DF06D00020B9
:1017F0001AF4709561957F4F0895F6F7909581954D
:101800009F4F08952F923F924F925F926F927F92D7
:101810008F929F92AF92BF92CF92DF92EF92FF9200
:101820000F931F93CF93DF93CDB7DEB7CA1BDB0BAC
:101830000FB6F894DEBF0FBECDBF09942A88398851
:1018400048885F846E847D848C849B84AA84B98458
:10185000C884DF80EE80FD800C811B81AA81B98164
:10186000CE0FD11D0FB6F894DEBF0FBECDBFED0178
:061870000895F894FFCF7B
:101876004F62737461636C6500476F2053747261C5
:10188600696768740053746F7000496E746572738B
:10189600656374696F6E005269676874004C6566AB
:1018A6007400770028002800FDFF9A99993FF628D2
:1018B6009C3F50009B00300000000000000000002C
:1018C60001020203030303040404040404040405DC
:1018D60005050505050505050505050505050506B1
:1018E6000606060606060606060606060606060692
:1018F6000606060606060606060606060606060781
:101906000707070707070707070707070707070761
:101916000707070707070707070707070707070751
:101926000707070707070707070707070707070741
:101936000707070707070707070707070707070830
:101946000808080808080808080808080808080811
:101956000808080808080808080808080808080801
:1019660008080808080808080808080808080808F1
:1019760008080808080808080808080808080808E1
:1019860008080808080808080808080808080808D1
:1019960008080808080808080808080808080808C1
:1019A60008080808080808080808080808080808B1
:1019B60008080808080808080808080808080800A9
:00000001FF
