:100000000C942A000C9447000C9447000C94470071
:100010000C9447000C9447000C9447000C94470044
:100020000C9447000C9447000C9447000C94320544
:100030000C9447000C9447000C9447000C94470024
:100040000C9447000C9447000C9447000C94470014
:100050000C94470011241FBECFE5D4E0DEBFCDBF16
:1000600011E0A0E6B0E0E4EDF8E102C005900D92E9
:10007000AA3AB107D9F711E0AAEAB1E001C01D928E
:10008000A13DB107E1F70E9488060C94680C0C941E
:1000900000008AEF90E0FC013197F1F7A898A99849
:1000A00040E345BBAA9A22EE34E0F9013197F1F71B
:1000B000AA98FC013197F1F7A898A99845BBAA9A8C
:1000C000F9013197F1F7AA98FC013197F1F7A89857
:1000D000A99845BBAA9AF9013197F1F7AA98019717
:1000E000F1F7A898A99880E285BBAA9AC90101975F
:1000F000F1F7AA98089595B39F7095BB25B3982FF3
:10010000907F922B95BBA898A998AA9A22EE34E0EA
:10011000F9013197F1F7AA9895B39F7095BB95B304
:100120008295807F982B95BBA898A998AA9AC90117
:100130000197F1F7AA9808958AEF90E00197F1F7F7
:1001400088E20E947B0081E00E947B0086E00E94A2
:100150007B008EE00E947B0080E80E947B00089577
:1001600095B39F7095BB25B3982F907F922B95BB2D
:10017000A89AA998AA9A22EE34E0F9013197F1F7EA
:10018000AA9895B39F7095BB95B38295807F982B65
:1001900095BBA89AA998AA9AC9010197F1F7AA98BC
:1001A000089580E80E947B000895CF93DF93EC01CF
:1001B00003C00E94B000219688818823D1F7C0E057
:1001C000D0E080E20E94B0002196CA30D105C9F784
:1001D000DF91CF910895823069F0833018F4813037
:1001E000A9F405C0833049F0843081F40BC0862F18
:1001F000815805C0862F815402C0862F8D560E94DB
:100200007B000895862F8D520E947B0008950F93E6
:100210001F93CF93DF938A01E901882311F06623AE
:1002200019F40E94D10002C00E94EB00C530D10534
:1002300071F4C80160E177E20E940A0CCB01C0961C
:100240009093C0018093BF010E94B00005C0C430EC
:10025000D10511F080E016C0C80168EE73E00E947D
:100260000A0CCB016093C1019093C2016AE070E077
:100270000E940A0CC0969093CE018093CD010E94FB
:10028000B00081E0C330D10521F0813011F080E071
:1002900016C0C80164E670E00E940A0CCB016093AE
:1002A000C1019093C2016AE070E00E940A0CC096FE
:1002B0009093CA018093C9010E94B00081E0C230CE
:1002C000D10521F0813011F080E016C0C8016AE04C
:1002D00070E00E940A0CCB016093C1019093C201AF
:1002E0006AE070E00E940A0CC0969093C701809368
:1002F000C6010E94B00081E0C130D10511F081300B
:1003000061F4C8016AE070E00E940A0CC096909304
:10031000CC018093CB010E94B00026971CF085E4AD
:100320000E94B000DF91CF911F910F91089584B387
:10033000876F84BB85B3807885BB08951ABA1BBAD2
:10034000089587B38F6087BB88B3807F88BB81B3F4
:10035000806381BB82B3806382BB0895A39AAB980C
:10036000089584B3876F84BB85B3807885BB1ABA40
:100370001BBAA39AAB9887B38F6087BB88B3807F83
:1003800088BB81B3806381BB82B3806382BB0895E5
:100390001EBC9FEF9DBD81E08CBD1BBC9ABD19BCEE
:1003A00098BD17BC96BD81EA8FBD8DE08EBD0895C6
:1003B00016B880E287B980E888B986E886B90895DA
:1003C0001AB81BB886E880BD8FE289B910BC88E9ED
:1003D0008AB908951F93F8940E94B1011EBC9FEF43
:1003E0009DBD81E08CBD1BBC9ABD19BC98BD17BCDE
:1003F00096BD81EA8FBD8DE08EBD16B880E287B9CB
:1004000080E888B916E816B90E9449000E949C004D
:100410001AB81BB810BD8FE289B910BC88E98AB937
:1004200078941F9108958770806287B9369A349BBB
:10043000FECF85B1349A08954770406247B9369A25
:10044000349BFECF45B1349A4093C30150E023E082
:1004500030E00E94070108956F927F928F929F92E1
:10046000AF92BF92CF92DF92EF92FF920F931F93C2
:1004700083E287B9369A349BFECF85B1349A809354
:10048000AA0184E287B9369A349BFECF85B1349AAB
:100490008093AB0185E287B9369A349BFECF85B154
:1004A000349A8093AC0182E090E061E070E043E038
:1004B00050E00E941C0282E090E065E070E044E0C1
:1004C00050E00E941C0282E090E069E070E045E0AC
:1004D00050E00E941C0220919E0030919F0080916C
:1004E000AA0190E082179307E4F48091AB0190E0B9
:1004F000821793073CF480919C0090919D0062E0EC
:1005000070E00CC08091AC0190E0281739074CF5E1
:1005100080919C0090919D0064E070E00E941E0C10
:100520001CC08091AC0190E082179307D4F48091B5
:10053000AB0190E040919C0050919D008217930781
:1005400024F4CA0162E070E003C0CA0164E070E014
:100550000E941E0C709561957F4F7093B30160935C
:10056000B2016091B2017091B3012091B801309154
:10057000B9015B01A21AB30AB092B501A092B4010D
:10058000E090B601F090B701E60EF71EF092B701C9
:10059000E092B6017093B9016093B801882777FDA6
:1005A0008095982F0E9463092091940030919500C6
:1005B00040919600509197000E9439083B014C01F0
:1005C0000027F7FC0095102FC801B7010E946309AE
:1005D0002091AE013091AF014091B0015091B10135
:1005E0000E9439089B01AC01C401B3010E940C08B0
:1005F0007B018C01CC24B7FCC094DC2CC601B50176
:100600000E946309209198003091990040919A00CE
:1006100050919B000E9439089B01AC01C801B701B1
:100620000E940C080E94C1097093D0016093CF0111
:1006300080919C0090919D008617970724F49093D9
:10064000D0018093CF0122273327281B390B8091BB
:10065000CF019091D0018217930724F43093D001F9
:100660002093CF0181E287B9369A349BFECF85B1C2
:10067000349A8093AD011F910F91FF90EF90DF901E
:10068000CF90BF90AF909F908F907F906F90089584
:100690000E942C028091AD01883218F021E030E0F8
:1006A00011C088B3807F88BB81E061E00E94EB00CD
:1006B00080E690E00E94D50088EA91E60197F1F784
:1006C00020E030E0C901089583B3886085BB0895B8
:1006D00083B3877F85BB089598B3907F8F70892BF4
:1006E00088BB089588B3807F866088BB089588B3EF
:1006F000807F88BB089588B3807F896088BB089518
:1007000088B3807F856088BB089588B3807F8A60C6
:1007100088BB089588B3807F826088BB089588B3C2
:10072000807F846088BB08951BBC8ABD19BC68BDEE
:10073000089581E061E00E94EB0089E690E00E946C
:10074000D5000E942C0288B3807F866088BB809190
:10075000CF019091D00120919C0030919D0097FF96
:1007600004C0820F931FB90104C0B901681B790B43
:10077000C9010E94940320919E0030919F008091B6
:10078000AB0190E082179307DCF48091AA0190E01E
:1007900082179307ACF48091AC0190E08217930725
:1007A0007CF488B3807F866088BB88B3807F88BBF9
:1007B00081E061E00E94EB0085E790E00E94D500B7
:1007C00008950E942C0220919E0030919F008091FC
:1007D000AB0190E0281739070CF041C08091AA01C5
:1007E00090E0281739070CF03AC08091AC0190E0F6
:1007F00028173907A4F58091CF019091D00120915D
:100800009C0030919D0097FF04C0820F931FB90197
:1008100004C0B901681B790BC9010E9494038CEFD5
:1008200093E529E130E0F9013197F1F70197D9F724
:1008300081E061E00E94EB008AE790E00E94D50031
:1008400088B3807F88BB80E395E729E130E0F90138
:100850003197F1F70197D9F721E030E002C020E0AD
:1008600030E0C9010895AF92BF92CF92DF92EF922C
:10087000FF920F931F93CF93DF936C0181E0C81613
:10088000D10421F488B3807F856007C082E0C81658
:10089000D10421F488B3807F8A6088BB0E942C0237
:1008A0008091CF019091D001E0919C00F0919D004A
:1008B00097FF04C08E0F9F1FBF0104C0BF01681BBC
:1008C000790BCF010E94940320919E0030919F00EC
:1008D0008091AB0190E08217930784F68091AA0182
:1008E00090E08217930754F68091AC0190E0821754
:1008F000930724F684EF9EE70197F1F788B3807F92
:1009000088BB84ED90E30197F1F7AA24BB2481E032
:10091000C816D10421F488B3807F846007C082E0C8
:10092000C816D10421F488B3807F826088BB0E94FE
:100930002C02C091CF01D091D001E0919C00F091A8
:100940009D00D7FF0AC0CF018C0F9D1F62E070E0B1
:100950000E941E0C9B01CF0109C0CF0162E070E034
:100960000E941E0C9B01CF018C1B9D0B62E070E06E
:100970000E941E0CC9010E94940320919E00309198
:100980009F008091AB0190E02817390754F5B90119
:10099000882777FD8095982F0E9463092AE939E915
:1009A00049E15FE30E9439087B018C016091AA0153
:1009B00070E0882777FD8095982F0E946309A80131
:1009C00097010E94330918161CF581E0C816D1045E
:1009D000F9F481E0A82EB12C1BC082E0C816D10426
:1009E00029F081E0A816B10409F091CF88B3807F87
:1009F00088BB80E197E20197F1F7DF91CF911F91DA
:100A00000F91FF90EF90DF90CF90BF90AF9008953F
:100A10006091AC0170E0882777FD8095982F0E9447
:100A20006309A80197010E9433091816B4F2D9CFBF
:100A300081E061E00E94EB0087E890E00E94D50031
:100A400082E090E00E943304089581E061E00E941A
:100A5000EB008DE890E00E94D50081E090E00E94DC
:100A6000330408951F920F920FB60F9211242F9303
:100A70008F939F93F8942CB12093BE018091BC0179
:100A80009091BD01009729F42093BA0181E090E094
:100A900007C08130910549F42093BB0182E090E0CA
:100AA0009093BD018093BC0114C0029791F4809192
:100AB000BA01843631F48091BB01813311F4209363
:100AC000C8011092BA011092BB011092BD011092A0
:100AD000BC0178949F918F912F910F900FBE0F9032
:100AE0001F901895AC01F89483E28CB9E4EDF0E323
:100AF0003197F1F720E030E0A4EDB0E30AC0FA014D
:100B0000E20FF31F80818CB9FD013197F1F72F5F60
:100B10003F4F261737079CF383E28CB984ED90E3AF
:100B20000197F1F778940895DF93CF9300D000D028
:100B3000CDB7DEB781E38A838EE28B83F89493E2AC
:100B40009CB924ED30E3F9013197F1F784E68CB9D3
:100B5000F9013197F1F78A818CB9F9013197F1F7F1
:100B60008B818CB9F9013197F1F79CB9C9010197D3
:100B7000F1F778940F900F900F900F90CF91DF9135
:100B800008950E942C020E944803892BE1F30E94E1
:100B9000E103019789F40E94940588B3807F88BBA4
:100BA00080E197E229E130E0F9013197F1F701970F
:100BB000D9F720E030E004C00E94990321E030E042
:100BC000C9010895FF920F931F93CF93DF9387E797
:100BD0008093C80109E110E0C8EAD1E697E7F92E51
:100BE00008C081E061E00E94EB0082E990E00E9491
:100BF000D5008091C8018737A1F381E061E00E94B0
:100C0000EB008091C80190E00E94D5000FC088B32E
:100C1000807F88BB8FEF9FEFF8013197F1F7019745
:100C2000D9F70E949405CE010197F1F78091C80190
:100C3000882369F3863611F41092C8018091C801A7
:100C4000823721F41092C8010E9418058091C801D2
:100C50008C3621F41092C8010E9425058091C801AC
:100C6000883619F41092C80104C08F3649F4F09206
:100C7000C80188B3807F88BBCE010197F1F7B9CF57
:100C80000E94C1050197E1F3B4CFCF93DF93C0E099
:100C9000D0E00E942C020E944803892BE1F30E94BD
:100CA000E103019709F52196C130D10519F0C8304B
:100CB000D10514F00E942505CE010297029730F06D
:100CC000C530D10519F0C630D10511F40E941805C0
:100CD000C430D10519F0C730D10511F40E94990331
:100CE000CA30D105B1F6D3CF0E949903D2CF0E946A
:100CF0009903FDCFCF93DF93C9E1D0E00E94940523
:100D000088E99AE3FE013197F1F70197D9F7F6CF19
:100D10000E94EA010E94E20580E090E00895A0E0D0
:100D2000B0E0E5E9F6E00C94310CDC012B01FA01AE
:100D30009C91923008F439C1EB018881823008F42B
:100D400033C1943069F4843009F02FC111969C911D
:100D500011978981981709F428C1A1EAB0E025C14B
:100D6000843009F421C18230A9F4923009F01DC108
:100D70009A01AD0188E0EA010990AE01E90109920A
:100D80009E018150C1F7E201898111969C918923CE
:100D9000818308C1923009F407C112962D903C90CE
:100DA0001397EB018A819B811496AD90BD90CD90F5
:100DB000DC901797EC80FD800E811F819101281B2C
:100DC000390BB90137FF04C066277727621B730B05
:100DD000603271050CF061C0121613066CF5370114
:100DE0004801062E04C096948794779467940A94D9
:100DF000D2F721E030E040E050E004C0220F331F82
:100E0000441F551F6A95D2F7215030404040504052
:100E10002E213F2140235123211531054105510544
:100E200021F021E030E040E050E079018A01E6283D
:100E3000F728082919293CC0232BD1F1260E371E8B
:100E400035014601062E04C09694879477946794E2
:100E50000A94D2F721E030E040E050E004C0220FD5
:100E6000331F441F551F6A95D2F721503040404030
:100E700050402A213B214C215D212115310541059E
:100E8000510521F021E030E040E050E059016A01D5
:100E9000A628B728C828D9280BC0821593052CF09E
:100EA0001C01AA24BB24650103C0EE24FF24870192
:100EB00011969C91D20111968C91981709F445C016
:100EC000992339F0A80197012A193B094C095D09BA
:100ED00006C0A60195012E193F09400B510B57FD85
:100EE00008C011823382228224833583468357834C
:100EF0001DC081E081833382228288279927DC010B
:100F0000821B930BA40BB50B84839583A683B783B5
:100F10000DC0220F331F441F551F24833583468382
:100F200057838281938101979383828324813581C2
:100F300046815781DA01C9010197A109B1098F5F83
:100F40009F4FAF4FBF4328F30BC091833382228260
:100F5000EA0CFB1C0C1D1D1DE482F5820683178321
:100F600083E08083248135814681578157FF1AC0F1
:100F7000C901AA2797FDA095BA2F81709070A07023
:100F8000B0705695479537952795822B932BA42BB8
:100F9000B52B84839583A683B78382819381019641
:100FA00093838283DF0101C0D201CD01CDB7DEB7CB
:100FB000E2E10C944D0CA0E2B0E0E1EEF7E00C941D
:100FC0003D0C69837A838B839C832D833E834F837F
:100FD0005887E9E0EE2EF12CEC0EFD1ECE010196B5
:100FE000B7010E94390B8E010F5E1F4FCE0105968F
:100FF000B8010E94390B8A8991E089278A8BC70141
:10100000B801AE01475E5F4F0E948F060E94640ADE
:10101000A096E6E00C94590CA0E2B0E0E2E1F8E022
:101020000C943D0C69837A838B839C832D833E8350
:101030004F835887F9E0EF2EF12CEC0EFD1ECE0108
:101040000196B7010E94390B8E010F5E1F4FCE0132
:101050000596B8010E94390BC701B801AE01475E81
:101060005F4F0E948F060E94640AA096E6E00C94EF
:10107000590CA0E2B0E0EFE3F8E00C94310C698386
:101080007A838B839C832D833E834F835887CE0145
:101090000196BE01675F7F4F0E94390BCE01059616
:1010A000BE016F5E7F4F0E94390B9985923088F0A8
:1010B00089898230C8F0943019F4823051F404C028
:1010C000843029F4923081F481EA90E0C6C09230F5
:1010D00049F420E09A858A89981321E02A87CE0175
:1010E0000996BBC0823049F420E09A858A8998131A
:1010F00021E02A8BCE014196B0C02D843E844F84DE
:1011000058886D887E888F88988CEE24FF2487010C
:10111000AA24BB24650140E050E060E070E0E0E01C
:10112000F0E0C10181709070892BE9F0E60CF71CAA
:10113000081D191D9A01AB012A0D3B1D4C1D5D1D9B
:1011400080E090E0A0E0B0E0E614F704080519059F
:1011500020F481E090E0A0E0B0E0BA01A901480FDE
:10116000591F6A1F7B1FAA0CBB1CCC1CDD1C97FEE1
:1011700008C081E090E0A0E0B0E0A82AB92ACA2A1D
:10118000DB2A3196E032F10549F0660C771C881CA9
:10119000991C5694479437942794C3CFFA85EA89CB
:1011A0002B893C898B859C85280F391F2E5F3F4FEB
:1011B00017C0CA0181709070892B61F01695079550
:1011C000F794E79480E090E0A0E0B0E8E82AF92AFC
:1011D0000A2B1B2B76956795579547952F5F3F4FA9
:1011E00077FDE7CF0CC0440F551F661F771F17FD13
:1011F0004160EE0CFF1C001F111F21503040403099
:1012000090E0590790E0690790E4790760F32B8F2D
:101210003C8FDB01CA018F779070A070B070803472
:101220009105A105B10561F447FD0AC0E114F1047F
:101230000105110529F0405C5F4F6F4F7F4F4078EB
:101240001A8EFE1711F081E08A8F4D8F5E8F6F8F9F
:1012500078A383E0898FCE0149960E94640AA09604
:10126000E2E10C944D0CA8E1B0E0E9E3F9E00C9464
:101270003D0C69837A838B839C832D833E834F83CC
:10128000588789E0E82EF12CEC0EFD1ECE01019668
:10129000B7010E94390B8E010F5E1F4FCE010596DC
:1012A000B8010E94390B8985823040F089898230EB
:1012B00028F0C701B8010E94B10B01C08FEF6896FA
:1012C000E6E00C94590CA8E0B0E0E9E6F9E00C94F3
:1012D0003A0C9B01AC0183E08983DA01C9018827BC
:1012E000B7FD83959927AA27BB27B82E211531056D
:1012F0004105510519F482E089833AC08823A9F099
:10130000203080E0380780E0480780E8580729F45B
:1013100060E070E080E09FEC30C0EE24FF248701A5
:10132000E21AF30A040B150B02C079018A018EE15F
:10133000C82ED12CDC82CB82ED82FE820F831887EF
:10134000C801B7010E94150A01971816190684F4FE
:10135000082E04C0EE0CFF1C001F111F0A94D2F7C8
:10136000ED82FE820F831887C81AD90ADC82CB82ED
:10137000BA82CE0101960E94640A2896E9E00C9494
:10138000560CACE0B0E0E7ECF9E00C94410C69835A
:101390007A838B839C83CE010196BE016B5F7F4F66
:1013A0000E94390B8D81823061F1823050F184309E
:1013B00021F48E81882351F12EC02F81388537FD8D
:1013C00020C06E812F3131051CF06623F9F023C057
:1013D0008EE190E0821B930B29853A854B855C85D5
:1013E00004C056954795379527958A95D2F7662379
:1013F000B1F050954095309521953F4F4F4F5F4F3D
:101400000EC020E030E040E050E009C02FEF3FEF99
:101410004FEF5FE704C020E030E040E050E8B90162
:10142000CA012C96E2E00C945D0CEF92FF920F93B0
:101430001F937B018C0180E0E81680E0F80681E0D4
:10144000080780E0180788F48FEFE816F10401051B
:10145000110531F028F088E090E0A0E0B0E017C07E
:1014600080E090E0A0E0B0E012C080E0E81680E00C
:10147000F80680E0080781E0180728F088E190E08E
:10148000A0E0B0E004C080E190E0A0E0B0E020E2A5
:1014900030E040E050E0281B390B4A0B5B0B04C0E6
:1014A00016950795F794E7948A95D2F7F701E755D3
:1014B000FF4F8081281B310941095109C9011F9142
:1014C0000F91FF90EF900895DF92EF92FF920F93AC
:1014D0001F93FC01E480F58006811781D180808113
:1014E000823048F480E090E0A0E1B0E0E82AF92AF8
:1014F0000A2B1B2BA5C0843009F49FC0823021F435
:10150000EE24FF24870105C0E114F1040105110553
:1015100019F4E0E0F0E096C0628173819FEF6238D9
:1015200079070CF05BC022E83FEF261B370B2A310E
:1015300031052CF020E030E040E050E02AC0B80156
:10154000A701022E04C076956795579547950A9492
:10155000D2F781E090E0A0E0B0E004C0880F991FCE
:10156000AA1FBB1F2A95D2F70197A109B1098E21A5
:101570009F21A023B1230097A105B10521F081E0AF
:1015800090E0A0E0B0E09A01AB01282B392B4A2B68
:101590005B2BDA01C9018F779070A070B070803436
:1015A0009105A105B10539F427FF09C0205C3F4F23
:1015B0004F4F5F4F04C0215C3F4F4F4F5F4FE0E004
:1015C000F0E02030A0E03A07A0E04A07A0E45A0784
:1015D00010F0E1E0F0E079018A0127C06038710580
:1015E00064F5FB01E158FF4FD801C7018F77907078
:1015F000A070B07080349105A105B10539F4E7FE03
:101600000DC080E490E0A0E0B0E004C08FE390E083
:10161000A0E0B0E0E80EF91E0A1F1B1F17FF05C06F
:1016200016950795F794E794319687E016950795F8
:10163000F794E7948A95D1F705C0EE24FF2487013B
:10164000EFEFF0E06E2F679566276795902F9F77F5
:10165000D794DD24D7948E2F8695492F462B582F6B
:101660005D29B701CA011F910F91FF90EF90DF90A4
:101670000895FC01DB01408151812281622F6F7747
:1016800070E0221F2227221F9381892F880F822B2F
:10169000282F30E0991F9927991F11969C93119735
:1016A00021153105A9F5411551056105710511F4A3
:1016B00082E037C082E89FEF13969C938E93129737
:1016C0009A01AB0167E0220F331F441F551F6A9533
:1016D000D1F783E08C930DC0220F331F441F551F99
:1016E00012968D919C911397019713969C938E93CC
:1016F0001297203080E0380780E0480780E45807E0
:1017000058F314962D933D934D935C93179708953A
:101710002F3F310579F4411551056105710519F423
:1017200084E08C93089564FF03C081E08C9312C021
:101730001C9210C02F57304013963C932E93129753
:1017400083E08C9387E0440F551F661F771F8A95AF
:10175000D1F7706414964D935D936D937C931797B6
:1017600008951F93DC01FB019C91923008F447C05F
:101770008081823008F443C0943051F411961C915A
:10178000843099F58181682F70E0611B71093FC039
:10179000843021F0923031F48230B9F18181882394
:1017A00089F12DC011961C9111978230F1F0818141
:1017B0001817D9F412962D913C9113978281938139
:1017C0008217930794F028173907BCF014968D916F
:1017D0009D910D90BC91A02D24813581468157812A
:1017E000281739074A075B0718F4112341F00AC08C
:1017F00082179307A407B50740F4112319F061E09D
:1018000070E005C06FEF7FEF02C060E070E0CB01D9
:101810001F910895AA1BBB1B51E107C0AA1FBB1F44
:10182000A617B70710F0A61BB70B881F991F5A956C
:10183000A9F780959095BC01CD01089597FB092EDD
:1018400007260AD077FD04D0E5DF06D000201AF481
:10185000709561957F4F0895F6F7909581959F4F0C
:1018600008952F923F924F925F926F927F928F9244
:101870009F92AF92BF92CF92DF92EF92FF920F931F
:101880001F93CF93DF93CDB7DEB7CA1BDB0B0FB629
:10189000F894DEBF0FBECDBF09942A8839884888E6
:1018A0005F846E847D848C849B84AA84B984C8847C
:1018B000DF80EE80FD800C811B81AA81B981CE0F73
:1018C000D11D0FB6F894DEBF0FBECDBFED01089558
:0418D000F894FFCFBA
:1018D4004F62737461636C6500476F205374726167
:1018E400696768740053746F7000496E746572732D
:1018F400656374696F6E005269676874004C65664D
:10190400740077009A99993FF6289C3F5000AA00EA
:101914003100000000000000000001020203030384
:10192400030404040404040404050505050505056D
:10193400050505050505050505060606060606064C
:101944000606060606060606060606060606060633
:10195400060606060606060606070707070707071C
:101964000707070707070707070707070707070703
:1019740007070707070707070707070707070707F3
:1019840007070707070707070707070707070707E3
:1019940007070707070707070708080808080808CC
:1019A40008080808080808080808080808080808B3
:1019B40008080808080808080808080808080808A3
:1019C4000808080808080808080808080808080893
:1019D4000808080808080808080808080808080883
:1019E4000808080808080808080808080808080873
:1019F4000808080808080808080808080808080863
:101A04000808080808080808080808080808080852
:0A1A14000808080808080808080080
:00000001FF
