:100000000C9472000C9493000C9493000C94930045
:100010000C9493000C9493000C9493000C94930014
:100020000C9493000C9493000C9493000C94930004
:100030000C9493000C9493000C9493000C949300F4
:100040000C9493000C9493000C9493000C949300E4
:100050000C9493000C9493000C9493000C949300D4
:100060000C9493000C947C130C9493000C949300C8
:100070000C9493000C9493000C9493000C949300B4
:100080000C9493000C9493000C9493000C949300A4
:100090000C9493000C9493000C9493000C94930094
:1000A0000C9493000C9493000C9493000C94930084
:1000B0000C9493000C9493000C9493000C94930074
:1000C0000C9493000C9493000C9493000C94930064
:1000D0000C9493000C9493000C949A150C94930038
:1000E0000C94930011241FBECFEFD1E2DEBFCDBF31
:1000F00000E00CBF13E0A0E0B2E0E2E8F4E400E0CE
:100100000BBF02C007900D92A635B107D9F713E0D7
:10011000A6E5B3E001C01D92A639B107E1F70E9440
:10012000CB1B0C943F220C940000DF93CF93CDB7F0
:10013000DEB7E1E2F1E01082E5E2F1E08FEF8083EB
:10014000E4E2F1E081E08083E9E2F1E01082E8E2BC
:10015000F1E08FEF8083EBE2F1E01082EAE2F1E080
:100160008FEF8083EDE2F1E01082ECE2F1E08FEFBF
:100170008083E0E2F1E089EA8083E1E2F1E08BE074
:100180008083CF91DF910895DF93CF93CDB7DEB712
:10019000A7E2B0E0E7E2F0E08081876F8C93A8E20D
:1001A000B0E0E8E2F0E0808180788C93CF91DF913D
:1001B0000895DF93CF930F920F92CDB7DEB7E4E0AF
:1001C000F1E08FEF8083E5E0F1E08FEF8083A7E23D
:1001D000B0E0E7E2F0E0808188608C93A8E2B0E0D4
:1001E000E8E2F0E08081877F8C93E1E2F0E08081BB
:1001F000E1E2F0E08FEF8083E2E2F0E08081E2E292
:10020000F0E01082AAE0B1E0EAE0F1E080818863EA
:100210008C93ABE0B1E0EBE0F1E0808188638C93FC
:10022000AEE2B0E0EEE2F0E0808188608C93E0E343
:10023000F0E01082E1E3F0E01082E7E0F1E010820C
:10024000E8E0F1E010820F900F90CF91DF910895D8
:10025000DF93CF93CDB7DEB70E94D9000E94C400D0
:10026000CF91DF910895DF93CF93CDB7DEB7EAE763
:10027000F0E01082EBE7F0E01082ECE7F0E080E2E3
:100280008083E0E5F0E080E88083EAE7F0E086E85C
:100290008083CF91DF910895DF93CF93CDB7DEB701
:1002A000E1ECF0E01082E0ECF0E01082E2ECF0E053
:1002B00086E08083E4ECF0E087E48083E5ECF0E026
:1002C0001082E1ECF0E088E98083CF91DF9108951E
:1002D000DF93CF93CDB7DEB7E1E3F1E01082E0E347
:1002E000F1E01082E2E3F1E086E08083E4E3F1E014
:1002F00087E48083E5E3F1E01082E1E3F1E088E95F
:100300008083CF91DF910895DF93CF93CDB7DEB790
:10031000F8940E9428010E9433010E9495000E94D7
:100320004D020E944C070E944C010E946801789483
:10033000CF91DF910895DF93CF930F92CDB7DEB7C2
:100340001982E6E2F0E0808189838981877F898351
:10035000E8E2F0E0898180830F90CF91DF910895EA
:10036000DF93CF930F92CDB7DEB71982E6E2F0E0CC
:1003700080818983898188608983E8E2F0E08981CE
:1003800080830F90CF91DF910895DF93CF930F92E9
:10039000CDB7DEB78983E5E0F1E0898180830F90F6
:1003A000CF91DF910895DF93CF930F920F92CDB746
:1003B000DEB78A8319828A818F708A83E0E2F0E057
:1003C000808189838981807F898399818A81892B32
:1003D0008983E2E2F0E0898180830F900F90CF91D2
:1003E000DF910895DF93CF930F920F92CDB7DEB7D1
:1003F00089836A83E8E2F1E089818083EAE2F1E0BF
:100400008A8180830F900F90CF91DF910895DF93C1
:10041000CF93CDB7DEB786E00E94D301CF91DF91B5
:100420000895DF93CF93CDB7DEB789E00E94D30163
:10043000CF91DF910895DF93CF93CDB7DEB785E0FD
:100440000E94D301CF91DF910895DF93CF93CDB771
:10045000DEB78AE00E94D301CF91DF910895DF9348
:10046000CF93CDB7DEB784E00E94D301CF91DF9167
:100470000895DF93CF93CDB7DEB782E00E94D3011A
:10048000CF91DF910895DF93CF93CDB7DEB780E0B2
:100490000E94D301CF91DF9108950F931F93DF93B3
:1004A000CF93CDB7DEB7C057D0400FB6F894DEBFBC
:1004B0000FBECDBFFE01E359FF4F80E090E0A0E802
:1004C000BFE380839183A283B3838E0107591F4FBB
:1004D000FE01E359FF4F60817181828193812DEC90
:1004E0003CEC4CE255E40E94BA1DDC01CB01F80162
:1004F00080839183A283B383FE01E759FF4F60811C
:1005000071818281938120E030E040E85FE30E94C6
:10051000141F882344F4FE01E959FF4F81E090E065
:100520009183808364C0FE01E759FF4F6081718130
:100530008281938120E03FEF4FE757E40E94B41E91
:1005400018160CF043C0FE01E359FF4F6081718122
:100550008281938120E030E040E251E40E94BA1DA4
:10056000DC01CB018E0109591F4FBC01CD010E9456
:10057000E41BDC01CB01F801918380831FC0FE01E5
:10058000EB59FF4F84E191E091838083FE01EB59A9
:10059000FF4F808191810197F1F7FE01EB59FF4FE9
:1005A00091838083DE01A959BF4FFE01E959FF4FB6
:1005B00080819181019711969C938E93FE01E95958
:1005C000FF4F808191810097D1F627C08E01095994
:1005D0001F4FFE01E759FF4F608171818281938136
:1005E0000E94E41BDC01CB01F80191838083DE01D2
:1005F000AD59BF4FFE01E959FF4F808191818D9325
:100600009C93FE01ED59FF4F808191810197F1F795
:10061000FE01ED59FF4F91838083A8E2B0E0E8E24C
:10062000F0E080818E7F8C93A8E2B0E0E8E2F0E019
:1006300080818D7F8C93E8E2F0E080E38083A8E204
:10064000B0E0E8E2F0E0808184608C93FE01E15A42
:10065000FF4F80E090E0A0EAB0E480839183A28322
:10066000B3838E01055A1F4FFE01E15AFF4F60818F
:100670007181828193812DEC3CEC4CE255E40E9427
:10068000BA1DDC01CB01F80180839183A283B3837F
:10069000FE01E55AFF4F608171818281938120E0E4
:1006A00030E040E85FE30E94141F882344F4FE0119
:1006B000E75AFF4F81E090E09183808364C0FE01A0
:1006C000E55AFF4F608171818281938120E03FEF85
:1006D0004FE757E40E94B41E18160CF043C0FE0109
:1006E000E15AFF4F608171818281938120E030E087
:1006F00040E251E40E94BA1DDC01CB018E01075A91
:100700001F4FBC01CD010E94E41BDC01CB01F801AD
:10071000918380831FC0FE01E95AFF4F84E191E07D
:1007200091838083FE01E95AFF4F80819181019777
:10073000F1F7FE01E95AFF4F91838083DE01A75A4A
:10074000BF4FFE01E75AFF4F8081918101971196BB
:100750009C938E93FE01E75AFF4F80819181009711
:10076000D1F627C08E01075A1F4FFE01E55AFF4FF1
:1007700060817181828193810E94E41BDC01CB0145
:10078000F80191838083DE01AB5ABF4FFE01E75A27
:10079000FF4F808191818D939C93FE01EB5AFF4F17
:1007A000808191810197F1F7FE01EB5AFF4F918310
:1007B0008083A8E2B0E0E8E2F0E080818B7F8C9358
:1007C000FE01EF5AFF4F80E090E0A0E8BFE3808396
:1007D0009183A283B3838E01035B1F4FFE01EF5A07
:1007E000FF4F60817181828193812DEC3CEC4CE262
:1007F00055E40E94BA1DDC01CB01F801808391838E
:10080000A283B383FE01E35BFF4F6081718182812C
:10081000938120E030E040E85FE30E94141F8823CA
:1008200044F4FE01E55BFF4F81E090E0918380831B
:1008300064C0FE01E35BFF4F60817181828193811F
:1008400020E03FEF4FE757E40E94B41E18160CF06B
:1008500043C0FE01EF5AFF4F608171818281938115
:1008600020E030E040E251E40E94BA1DDC01CB01FF
:100870008E01055B1F4FBC01CD010E94E41BDC0112
:10088000CB01F801918380831FC0FE01E75BFF4F1E
:1008900084E191E091838083FE01E75BFF4F8081DB
:1008A00091810197F1F7FE01E75BFF4F9183808310
:1008B000DE01A55BBF4FFE01E55BFF4F80819181AB
:1008C000019711969C938E93FE01E55BFF4F80810B
:1008D00091810097D1F627C08E01055B1F4FFE0165
:1008E000E35BFF4F60817181828193810E94E41BF1
:1008F000DC01CB01F80191838083DE01A95BBF4F4E
:10090000FE01E55BFF4F808191818D939C93FE01F9
:10091000E95BFF4F808191810197F1F7FE01E95B6F
:10092000FF4F91838083A8E2B0E0E8E2F0E08081AD
:100930008E7F8C93A8E2B0E0E8E2F0E080818D7FCA
:100940008C93E8E2F0E080E38083A8E2B0E0E8E2A4
:10095000F0E0808184608C93FE01ED5BFF4F80E0CE
:1009600090E0A0EAB0E480839183A283B3838E01F8
:10097000015C1F4FFE01ED5BFF4F60817181828141
:1009800093812DEC3CEC4CE255E40E94BA1DDC0155
:10099000CB01F80180839183A283B383FE01FF968C
:1009A000608171818281938120E030E040E85FE3E3
:1009B0000E94141F88232CF481E090E09EAF8DAF3D
:1009C00046C0FE01FF96608171818281938120E0A3
:1009D0003FEF4FE757E40E94B41E181664F5FE017E
:1009E000ED5BFF4F608171818281938120E030E077
:1009F00040E251E40E94BA1DDC01CB01BC01CD01F3
:100A00000E94E41BDC01CB019EAF8DAF0FC084E1DF
:100A100091E09CAF8BAF8BAD9CAD0197F1F79CAF94
:100A20008BAF8DAD9EAD01979EAF8DAF8DAD9EAD61
:100A3000009769F716C0FE01FF966081718182817F
:100A400093810E94E41BDC01CB019EAF8DAF8DAD85
:100A50009EAD9AAF89AF89AD9AAD0197F1F79AAF84
:100A600089AFA8E2B0E0E8E2F0E080818B7F8C9370
:100A700080E090E0A0E8BFE38DAB9EABAFABB8AF3A
:100A80006DA97EA98FA998AD2DEC3CEC4CE255E404
:100A90000E94BA1DDC01CB0189AB9AABABABBCABFE
:100AA00069A97AA98BA99CA920E030E040E85FE31E
:100AB0000E94141F88232CF481E090E098AB8FA74C
:100AC0003FC069A97AA98BA99CA920E03FEF4FE715
:100AD00057E40E94B41E18164CF56DA97EA98FA983
:100AE00098AD20E030E040E251E40E94BA1DDC0104
:100AF000CB01BC01CD010E94E41BDC01CB0198AB12
:100B00008FA70FC084E191E09EA78DA78DA59EA51C
:100B10000197F1F79EA78DA78FA598A9019798AB8C
:100B20008FA78FA598A9009769F714C069A97AA91A
:100B30008BA99CA90E94E41BDC01CB0198AB8FA779
:100B40008FA598A99CA78BA78BA59CA50197F1F7CA
:100B50009CA78BA7A8E2B0E0E8E2F0E080818E7F5E
:100B60008C93A8E2B0E0E8E2F0E080818D7F8C9386
:100B7000E8E2F0E080E38083A8E2B0E0E8E2F0E0C1
:100B8000808184608C9380E090E0A0EAB0E48FA341
:100B900098A7A9A7BAA76FA178A589A59AA52DECB2
:100BA0003CEC4CE255E40E94BA1DDC01CB018BA366
:100BB0009CA3ADA3BEA36BA17CA18DA19EA120E0AF
:100BC00030E040E85FE30E94141F88232CF481E0AA
:100BD00090E09AA389A33FC06BA17CA18DA19EA1A7
:100BE00020E03FEF4FE757E40E94B41E18164CF583
:100BF0006FA178A589A59AA520E030E040E251E4F4
:100C00000E94BA1DDC01CB01BC01CD010E94E41B96
:100C1000DC01CB019AA389A30FC084E191E098A3E2
:100C20008F8F8F8D98A10197F1F798A38F8F89A14E
:100C30009AA101979AA389A389A19AA1009769F71C
:100C400014C06BA17CA18DA19EA10E94E41BDC01BC
:100C5000CB019AA389A389A19AA19E8F8D8F8D8D97
:100C60009E8D0197F1F79E8F8D8FA8E2B0E0E8E2AC
:100C7000F0E080818B7F8C9380E090E0A0E8BFE380
:100C8000898F9A8FAB8FBC8F698D7A8D8B8D9C8D60
:100C90002DEC3CEC4CE255E40E94BA1DDC01CB018A
:100CA0008D8B9E8BAF8BB88F6D897E898F89988D48
:100CB00020E030E040E85FE30E94141F88232CF41A
:100CC00081E090E09C8B8B8B3FC06D897E898F8902
:100CD000988D20E03FEF4FE757E40E94B41E1816AE
:100CE0004CF5698D7A8D8B8D9C8D20E030E040E253
:100CF00051E40E94BA1DDC01CB01BC01CD010E9470
:100D0000E41BDC01CB019C8B8B8B0FC084E191E059
:100D10009A8B898B89899A890197F1F79A8B898BAC
:100D20008B899C8901979C8B8B8B8B899C890097E5
:100D300069F714C06D897E898F89988D0E94E41BA4
:100D4000DC01CB019C8B8B8B8B899C89988B8F874B
:100D50008F8598890197F1F7988B8F87A8E2B0E08B
:100D6000E8E2F0E080818E7F8C93A8E2B0E0E8E2D8
:100D7000F0E080818D7F8C93E8E2F0E080E2808378
:100D8000A8E2B0E0E8E2F0E0808184608C9380E04B
:100D900090E0A0EAB0E48B879C87AD87BE876B8527
:100DA0007C858D859E852DEC3CEC4CE255E40E94C3
:100DB000BA1DDC01CB018F839887A987BA876F8121
:100DC000788589859A8520E030E040E85FE30E94DD
:100DD000141F88232CF481E090E09E838D833FC014
:100DE0006F81788589859A8520E03FEF4FE757E44A
:100DF0000E94B41E18164CF56B857C858D859E85EA
:100E000020E030E040E251E40E94BA1DDC01CB0159
:100E1000BC01CD010E94E41BDC01CB019E838D83CC
:100E20000FC084E191E09C838B838B819C8101972F
:100E3000F1F79C838B838D819E8101979E838D83A7
:100E40008D819E81009769F714C06F8178858985AF
:100E50009A850E94E41BDC01CB019E838D838D81EA
:100E60009E819A83898389819A810197F1F79A8378
:100E70008983A8E2B0E0E8E2F0E080818B7F8C9388
:100E8000C059DF4F0FB6F894DEBF0FBECDBFCF9174
:100E9000DF911F910F910895DF93CF93CDB7DEB708
:100EA0002E970FB6F894DEBF0FBECDBF80E090E066
:100EB000A0E8BFE38B879C87AD87BE876B857C8569
:100EC0008D859E852DEC3CEC4CE255E40E94BA1DCC
:100ED000DC01CB018F839887A987BA876F817885DA
:100EE00089859A8520E030E040E85FE30E94141F86
:100EF00088232CF481E090E09E838D833FC06F8136
:100F0000788589859A8520E03FEF4FE757E40E9476
:100F1000B41E18164CF56B857C858D859E8520E06A
:100F200030E040E251E40E94BA1DDC01CB01BC017B
:100F3000CD010E94E41BDC01CB019E838D830FC099
:100F400084E191E09C838B838B819C810197F1F7F5
:100F50009C838B838D819E8101979E838D838D8160
:100F60009E81009769F714C06F81788589859A857D
:100F70000E94E41BDC01CB019E838D838D819E81C9
:100F80009A83898389819A810197F1F79A8389836A
:100F900088E20E94E00781E00E94E00786E00E946C
:100FA000E0078EE00E94E00780E80E94E0072E96AE
:100FB0000FB6F894DEBF0FBECDBFCF91DF9108957D
:100FC000DF93CF93CDB7DEB76E970FB6F894DEBF41
:100FD0000FBECDBF8E8F8E8D8D8F8D8D807F8D8F2F
:100FE000A8E2B0E0E8E2F0E080818F708C93A8E2A4
:100FF000B0E0E8E2F0E090818D8D892B8C93A8E23F
:10100000B0E0E8E2F0E080818E7F8C93A8E2B0E06F
:10101000E8E2F0E080818D7F8C93A8E2B0E0E8E226
:10102000F0E0808184608C9380E090E0A0EAB0E4FE
:10103000898F9A8FAB8FBC8F698D7A8D8B8D9C8DAC
:101040002DEC3CEC4CE255E40E94BA1DDC01CB01D6
:101050008D8B9E8BAF8BB88F6D897E898F89988D94
:1010600020E030E040E85FE30E94141F88232CF466
:1010700081E090E09C8B8B8B3FC06D897E898F894E
:10108000988D20E03FEF4FE757E40E94B41E1816FA
:101090004CF5698D7A8D8B8D9C8D20E030E040E29F
:1010A00051E40E94BA1DDC01CB01BC01CD010E94BC
:1010B000E41BDC01CB019C8B8B8B0FC084E191E0A6
:1010C0009A8B898B89899A890197F1F79A8B898BF9
:1010D0008B899C8901979C8B8B8B8B899C89009732
:1010E00069F714C06D897E898F89988D0E94E41BF1
:1010F000DC01CB019C8B8B8B8B899C89988B8F8798
:101100008F8598890197F1F7988B8F87A8E2B0E0D7
:10111000E8E2F0E080818B7F8C938E8D8F708E8FD4
:101120008E8D8295807F8E8FA8E2B0E0E8E2F0E0BD
:1011300080818F708C93A8E2B0E0E8E2F0E09081CB
:101140008E8D892B8C93A8E2B0E0E8E2F0E08081FC
:101150008E7F8C93A8E2B0E0E8E2F0E080818D7FA2
:101160008C93A8E2B0E0E8E2F0E0808184608C93A8
:1011700080E090E0A0EAB0E48B879C87AD87BE87D3
:101180006B857C858D859E852DEC3CEC4CE255E491
:101190000E94BA1DDC01CB018F839887A987BA878B
:1011A0006F81788589859A8520E030E040E85FE3AB
:1011B0000E94141F88232CF481E090E09E838D838D
:1011C0003FC06F81788589859A8520E03FEF4FE7A2
:1011D00057E40E94B41E18164CF56B857C858D85EE
:1011E0009E8520E030E040E251E40E94BA1DDC011F
:1011F000CB01BC01CD010E94E41BDC01CB019E832D
:101200008D830FC084E191E09C838B838B819C81D3
:101210000197F1F79C838B838D819E8101979E833B
:101220008D838D819E81009769F714C06F817885C9
:1012300089859A850E94E41BDC01CB019E838D8306
:101240008D819E819A83898389819A810197F1F7A3
:101250009A838983A8E2B0E0E8E2F0E080818B7FA6
:101260008C936E960FB6F894DEBF0FBECDBFCF91B4
:10127000DF910895DF93CF93CDB7DEB76E970FB6AA
:10128000F894DEBF0FBECDBF8E8F8E8D8D8F8D8D6E
:10129000807F8D8FA8E2B0E0E8E2F0E080818F707F
:1012A0008C93A8E2B0E0E8E2F0E090818D8D892B8C
:1012B0008C93A8E2B0E0E8E2F0E0808181608C935A
:1012C000A8E2B0E0E8E2F0E080818D7F8C93A8E2B4
:1012D000B0E0E8E2F0E0808184608C9380E090E010
:1012E000A0EAB0E4898F9A8FAB8FBC8F698D7A8D1D
:1012F0008B8D9C8D2DEC3CEC4CE255E40E94BA1D8C
:10130000DC01CB018D8B9E8BAF8BB88F6D897E8975
:101310008F89988D20E030E040E85FE30E94141F41
:1013200088232CF481E090E09C8B8B8B3FC06D89EF
:101330007E898F89988D20E03FEF4FE757E40E9428
:10134000B41E18164CF5698D7A8D8B8D9C8D20E01E
:1013500030E040E251E40E94BA1DDC01CB01BC0147
:10136000CD010E94E41BDC01CB019C8B8B8B0FC059
:1013700084E191E09A8B898B89899A890197F1F7A9
:101380009A8B898B8B899C8901979C8B8B8B8B8902
:101390009C89009769F714C06D897E898F89988D23
:1013A0000E94E41BDC01CB019C8B8B8B8B899C897D
:1013B000988B8F878F8598890197F1F7988B8F8706
:1013C000A8E2B0E0E8E2F0E080818B7F8C938E8D24
:1013D0008F708E8F8E8D8295807F8E8FA8E2B0E089
:1013E000E8E2F0E080818F708C93A8E2B0E0E8E260
:1013F000F0E090818E8D892B8C93A8E2B0E0E8E23A
:10140000F0E0808181608C93A8E2B0E0E8E2F0E057
:1014100080818D7F8C93A8E2B0E0E8E2F0E08081EB
:1014200084608C9380E090E0A0EAB0E48B879C8796
:10143000AD87BE876B857C858D859E852DEC3CECCC
:101440004CE255E40E94BA1DDC01CB018F839887E2
:10145000A987BA876F81788589859A8520E030E0F1
:1014600040E85FE30E94141F88232CF481E090E0A1
:101470009E838D833FC06F81788589859A8520E022
:101480003FEF4FE757E40E94B41E18164CF56B85EA
:101490007C858D859E8520E030E040E251E40E940D
:1014A000BA1DDC01CB01BC01CD010E94E41BDC01B3
:1014B000CB019E838D830FC084E191E09C838B835D
:1014C0008B819C810197F1F79C838B838D819E8119
:1014D00001979E838D838D819E81009769F714C04B
:1014E0006F81788589859A850E94E41BDC01CB0198
:1014F0009E838D838D819E819A83898389819A8140
:101500000197F1F79A838983A8E2B0E0E8E2F0E07E
:1015100080818B7F8C936E960FB6F894DEBF0FBEE2
:10152000CDBFCF91DF910895DF93CF93CDB7DEB7D5
:1015300080E80E94E007CF91DF910895DF93CF9379
:1015400000D00F92CDB7DEB79C838B830AC0EB81AE
:10155000FC8180810E943A098B819C8101969C8349
:101560008B83EB81FC818081882389F71A82198221
:101570001A82198208C080E20E943A0989819A8100
:1015800001969A83898389819A818C3091059CF395
:101590000F900F900F900F90CF91DF910895DF93F0
:1015A000CF9300D00F92CDB7DEB789836A8389814C
:1015B000282F30E03C832B838B819C8182309105E6
:1015C000D9F02B813C812330310534F48B819C810F
:1015D0008130910561F01EC02B813C8123303105A3
:1015E00081F08B819C818430910581F013C08A81C8
:1015F00081580E94E0070EC08A8181540E94E00752
:1016000009C08A818D560E94E00704C08A818D52EC
:101610000E94E0070F900F900F900F90CF91DF91F5
:101620000895DF93CF93CDB7DEB727970FB6F89421
:10163000DEBF0FBECDBF8A836B835D834C833F8348
:101640002E8319828A81882319F08B81882319F4CB
:101650000E94940A04C08A816B810E94CF0A8E8105
:101660009F818530910519F089818130A9F48C81A1
:101670009D8120E137E2B9010E94F421CB01C0969F
:101680009093710380937003809170039091710324
:101690000E943A0981E089838E819F81843091057F
:1016A00019F08981813011F58C819D8128EE33E01C
:1016B000B9010E94F421CB019093740380937303CA
:1016C00080917303909174032AE030E0B9010E9485
:1016D000F421C09690937F0380937E0380917E03D4
:1016E00090917F030E943A0981E089838E819F81D6
:1016F0008330910519F08981813011F58C819D81AC
:1017000024E630E0B9010E94F421CB0190937403E8
:101710008093730380917303909174032AE030E007
:10172000B9010E94F421C09690937B0380937A03C1
:1017300080917A0390917B030E943A0981E089832A
:101740008E819F818230910519F08981813011F558
:101750008C819D812AE030E0B9010E94F421CB0107
:101760009093740380937303809173039091740337
:101770002AE030E0B9010E94F421C09690937803EA
:101780008093770380917703909178030E943A09C0
:1017900081E089838E819F818130910519F0898153
:1017A000813091F48C819D812AE030E0B9010E9462
:1017B000F421C09690937D0380937C0380917C03F9
:1017C00090917D030E943A098E819F818630910518
:1017D0001CF085E40E943A0927960FB6F894DEBF04
:1017E0000FBECDBFCF91DF910895DF93CF930F92BE
:1017F0000F92CDB7DEB78A838A81883020F0EBE77D
:10180000F0E088E080838A8187708A83ECE7F0E0EB
:101810008A8180628083AAE7B0E0EAE7F0E0808115
:1018200080648C93EAE7F0E08081882F90E08071FB
:1018300090700097B9F3E9E7F0E080818983AAE727
:10184000B0E0EAE7F0E0808180618C93EBE7F0E0C4
:10185000108289810F900F90CF91DF910895DF93CF
:10186000CF9300D0CDB7DEB789836A834B838B815A
:101870000E94F50B8093720380917203282F30E051
:1018800089816A81A90123E030E00E94110B0F9049
:101890000F900F90CF91DF910895EF92FF920F93E9
:1018A0001F93DF93CF93CDB7DEB728970FB6F89489
:1018B000DEBF0FBECDBF83E00E94F50B80935603C1
:1018C00082E00E94F50B8093570381E00E94F50BA4
:1018D0008093580382E061E043E00E942F0C82E095
:1018E00065E042E00E942F0C82E069E041E00E9446
:1018F0002F0C80915603282F30E0809106029091A2
:101900000702281739070CF049C080915703282F88
:1019100030E0809106029091070228173907C4F43D
:1019200080910402909105029A83898349815A81AA
:1019300055232CF489819A8101969A838983898120
:101940009A8195958795909364038093630384C0EF
:1019500080915803282F30E0809106029091070271
:10196000821793070CF078C08091040290910502D1
:101970009C838B834B815C8155232CF48B819C81D0
:1019800003969C838B838B819C81959587959595F8
:10199000879590936403809363035EC0809158039E
:1019A000282F30E08091060290910702281739070E
:1019B0000CF052C080915603282F30E0809106022F
:1019C00090910702281739072CF4109264031092A3
:1019D000630342C080915703282F30E080910602B4
:1019E0009091070228173907DCF480910402909146
:1019F0000502909581959F4F9E838D834D815E81D9
:101A000055232CF48D819E8101969E838D838D813B
:101A10009E819595879590936403809363031CC082
:101A20008091040290910502909581959F4F98872F
:101A30008F834F81588555232CF48F819885039689
:101A400098878F838F8198859595879595958795AC
:101A50009093640380936303209163033091640344
:101A60008091690390916A03A901481B590BCA012F
:101A70009093660380936503209167033091680318
:101A80008091630390916403820F931F9093680386
:101A900080936703809163039091640390936A033A
:101AA000809369038091630390916403AA2797FD53
:101AB000A095BA2FBC01CD010E94441FDC01CB01CF
:101AC00020910002309101024091020250910302E4
:101AD000BC01CD010E94BA1DDC01CB017C018D014E
:101AE0008091670390916803AA2797FDA095BA2F6C
:101AF000BC01CD010E94441FDC01CB0120915F039A
:101B0000309160034091610350916203BC01CD01AB
:101B10000E94BA1DDC01CB019C01AD01C801B701D7
:101B20000E948D1DDC01CB017C018D01809165033C
:101B300090916603AA2797FDA095BA2FBC01CD010D
:101B40000E94441FDC01CB0120915B0330915C03B8
:101B500040915D0350915E03BC01CD010E94BA1D0E
:101B6000DC01CB019C01AD01C801B7010E948D1DB4
:101B7000DC01CB01BC01CD010E94A21FDC01CB0125
:101B8000909395038093940320919403309195034F
:101B900080910402909105028217930744F480918A
:101BA0000402909105029093950380939403809191
:101BB00004029091050222273327281B390B8091BC
:101BC000940390919503821793075CF4809104022B
:101BD00090910502909581959F4F909395038093E6
:101BE00094038BE00E94F50B8093590386E00E94DA
:101BF000F50B80935A0328960FB6F894DEBF0FBEFC
:101C0000CDBFCF91DF911F910F91FF90EF9008957D
:101C1000EF92FF920F931F93DF93CF93CDB7DEB771
:101C2000AA970FB6F894DEBF0FBECDBF98A38F8FD3
:101C30001E8E1D8E8F8D98A18130910519F40E9402
:101C40001B0207C08F8D98A18230910511F40E946C
:101C500025020E944D0C8091940390919503992345
:101C6000A4F48091040290910502282F809194039E
:101C700090919503280F8091040290910502982F6E
:101C8000822F692F0E94F20114C08091040290916A
:101C90000502382F8091040290910502282F80912F
:101CA000940390919503922F981B832F692F0E9484
:101CB000F20180915703282F30E080910602909125
:101CC0000702281739070CF0B5CF80915603282F4B
:101CD00030E08091060290910702281739070CF036
:101CE000A9CF80915803282F30E08091060290916F
:101CF0000702281739070CF09DCF0E94430280E0AD
:101D000090E0A8E4B2E4898F9A8FAB8FBC8F698D85
:101D10007A8D8B8D9C8D2DEC3CEC4CE255E40E9431
:101D2000BA1DDC01CB018D8B9E8BAF8BB88F6D897B
:101D30007E898F89988D20E030E040E85FE30E9443
:101D4000141F88232CF481E090E09C8B8B8B3FC088
:101D50006D897E898F89988D20E03FEF4FE757E4AA
:101D60000E94B41E18164CF5698D7A8D8B8D9C8D52
:101D700020E030E040E251E40E94BA1DDC01CB01DA
:101D8000BC01CD010E94E41BDC01CB019C8B8B8B41
:101D90000FC084E191E09A8B898B89899A89019798
:101DA000F1F79A8B898B8B899C8901979C8B8B8B04
:101DB0008B899C89009769F714C06D897E898F890A
:101DC000988D0E94E41BDC01CB019C8B8B8B8B8953
:101DD0009C89988B8F878F8598890197F1F7988BCD
:101DE0008F878F8D98A18130910519F40E941B0275
:101DF00007C08F8D98A18230910511F40E942502B1
:101E00000E944D0C809194039091950399239CF529
:101E100080910402909105022091940330919503E2
:101E2000820F931F9CA38BA34BA15CA155232CF481
:101E30008BA19CA101969CA38BA38BA19CA19595A2
:101E400087958AA380910402909105029EA38DA399
:101E50004DA15EA155232CF48DA19EA101969EA3B8
:101E60008DA38DA19EA195958795982F8AA1692F05
:101E70000E94F20135C0809104029091050298A75A
:101E80008FA34FA158A555232CF48FA198A5019697
:101E900098A78FA38FA198A59595879589A3209141
:101EA0000402309105028091940390919503A90159
:101EB000481B590BCA019AA789A789A59AA59923F6
:101EC00034F449A55AA54F5F5F4F5AA749A789A582
:101ED0009AA595958795982F89A1692F0E94F2015F
:101EE00080915703282F30E08091060290910702DD
:101EF00082179307BCF580915603882F90E0AA279C
:101F000097FDA095BA2FBC01CD010E94441F7B0113
:101F10008C018091060290910702AA2797FDA09557
:101F2000BA2FBC01CD010E94441FDC01CB01BC01D2
:101F3000CD012AE939E949E15FE30E94BA1DDC01DC
:101F4000CB019C01AD01C801B7010E94B41E181657
:101F50004CF48F8D98A18130910521F481E090E0BF
:101F60009E8F8D8F80915703282F30E0809106023D
:101F70009091070282179307BCF580915803882F30
:101F800090E0AA2797FDA095BA2FBC01CD010E9431
:101F9000441F7B018C018091060290910702AA27C1
:101FA00097FDA095BA2FBC01CD010E94441FDC0112
:101FB000CB01BC01CD012AE939E949E15FE30E9487
:101FC000BA1DDC01CB019C01AD01C801B7010E9423
:101FD000B41E18164CF48F8D98A18230910521F40F
:101FE00081E090E09E8F8D8F8D8D9E8D813091054B
:101FF00009F0F7CE0E94430280E090E0A0E2B2E454
:102000008B879C87AD87BE876B857C858D859E85FC
:102010002DEC3CEC4CE255E40E94BA1DDC01CB01F6
:102020008F839887A987BA876F81788589859A85F4
:1020300020E030E040E85FE30E94141F88232CF486
:1020400081E090E09E838D833FC06F817885898594
:102050009A8520E03FEF4FE757E40E94B41E181620
:102060004CF56B857C858D859E8520E030E040E2D7
:1020700051E40E94BA1DDC01CB01BC01CD010E94DC
:10208000E41BDC01CB019E838D830FC084E191E0D2
:102090009C838B838B819C810197F1F79C838B833D
:1020A0008D819E8101979E838D838D819E81009776
:1020B00069F714C06F81788589859A850E94E41B31
:1020C000DC01CB019E838D838D819E819A838983E0
:1020D00089819A810197F1F79A838983AA960FB62D
:1020E000F894DEBF0FBECDBFCF91DF911F910F914E
:1020F000FF90EF900895DF93CF93CDB7DEB781E0E7
:1021000061E00E94CF0A88E092E00E949E0A81E08E
:1021100090E00E94080ECF91DF910895DF93CF9356
:10212000CDB7DEB781E061E00E94CF0A8DE092E09A
:102130000E949E0A82E090E00E94080ECF91DF91FB
:102140000895DF93CF93CDB7DEB760970FB6F894BD
:10215000DEBF0FBECDBF0E944D0C80915903833866
:1021600028F480915A03803F08F07FC00E94430208
:1021700081E061E00E94CF0A83E192E00E949E0A22
:1021800080E090E0A8ECB2E48B879C87AD87BE87A7
:102190006B857C858D859E852DEC3CEC4CE255E471
:1021A0000E94BA1DDC01CB018F839887A987BA876B
:1021B0006F81788589859A8520E030E040E85FE38B
:1021C0000E94141F88232CF481E090E09E838D836D
:1021D0003FC06F81788589859A8520E03FEF4FE782
:1021E00057E40E94B41E18164CF56B857C858D85CE
:1021F0009E8520E030E040E251E40E94BA1DDC01FF
:10220000CB01BC01CD010E94E41BDC01CB019E830C
:102210008D830FC084E191E09C838B838B819C81B3
:102220000197F1F79C838B838D819E8101979E831B
:102230008D838D819E81009769F714C06F817885A9
:1022400089859A850E94E41BDC01CB019E838D83E6
:102250008D819E819A83898389819A810197F1F783
:102260009A838983188A1F8604C081E090E0988B46
:102270008F878F85988960960FB6F894DEBF0FBE62
:10228000CDBFCF91DF910895DF93CF93CDB7DEB768
:102290006E970FB6F894DEBF0FBECDBF8091570387
:1022A000883208F02FC180915603883208F02AC185
:1022B00080915803883208F025C181E061E00E94D6
:1022C000CF0A8CE192E00E949E0A0E944D0C0E946F
:1022D000070280919403909195039923A4F480912F
:1022E000040290910502282F809194039091950308
:1022F000280F8091040290910502982F822F692F58
:102300000E94F20114C08091040290910502382FBE
:102310008091040290910502282F8091940390915E
:102320009503922F981B832F692F0E94F20180E062
:1023300090E0AAE7B4E4898F9A8FAB8FBC8F698D48
:102340007A8D8B8D9C8D2DEC3CEC4CE255E40E94FB
:10235000BA1DDC01CB018D8B9E8BAF8BB88F6D8945
:102360007E898F89988D20E030E040E85FE30E940D
:10237000141F88232CF481E090E09C8B8B8B3FC052
:102380006D897E898F89988D20E03FEF4FE757E474
:102390000E94B41E18164CF5698D7A8D8B8D9C8D1C
:1023A00020E030E040E251E40E94BA1DDC01CB01A4
:1023B000BC01CD010E94E41BDC01CB019C8B8B8B0B
:1023C0000FC084E191E09A8B898B89899A89019762
:1023D000F1F79A8B898B8B899C8901979C8B8B8BCE
:1023E0008B899C89009769F714C06D897E898F89D4
:1023F000988D0E94E41BDC01CB019C8B8B8B8B891D
:102400009C89988B8F878F8598890197F1F7988B96
:102410008F870E94430280E090E0AAEFB4E48B87AC
:102420009C87AD87BE876B857C858D859E852DECD1
:102430003CEC4CE255E40E94BA1DDC01CB018F83D9
:102440009887A987BA876F81788589859A8520E0E2
:1024500030E040E85FE30E94141F88232CF481E001
:1024600090E09E838D833FC06F81788589859A85B2
:1024700020E03FEF4FE757E40E94B41E18164CF5DA
:102480006B857C858D859E8520E030E040E251E4BF
:102490000E94BA1DDC01CB01BC01CD010E94E41BEE
:1024A000DC01CB019E838D830FC084E191E09C838E
:1024B0008B838B819C810197F1F79C838B838D812A
:1024C0009E8101979E838D838D819E81009769F700
:1024D00014C06F81788589859A850E94E41BDC0190
:1024E000CB019E838D838D819E819A83898389818F
:1024F0009A810197F1F79A83898381E090E09E8F1A
:102500008D8F02C01E8E1D8E8D8D9E8D6E960FB688
:10251000F894DEBF0FBECDBFCF91DF910895DF935A
:10252000CF93CDB7DEB72E970FB6F894DEBF0FBEB0
:10253000CDBF81E061E00E94CF0A89E292E00E9473
:102540009E0A0E944D0C0E94070280919403909174
:1025500095039923A4F48091040290910502282FF9
:102560008091940390919503280F8091040290919B
:102570000502982F822F692F0E94F20114C08091CA
:10258000040290910502382F809104029091050277
:10259000282F8091940390919503922F981B832F5D
:1025A000692F0E94F20180915703282F30E080911B
:1025B000060290910702281739070CF094C0809109
:1025C0005603282F30E080910602909107022817C9
:1025D00039070CF088C080915803282F30E0809193
:1025E000060290910702281739070CF07CC00E9460
:1025F000430280E090E0A8ECB2E48B879C87AD8733
:10260000BE876B857C858D859E852DEC3CEC4CE2F0
:1026100055E40E94BA1DDC01CB018F839887A987FE
:10262000BA876F81788589859A8520E030E040E817
:102630005FE30E94141F88232CF481E090E09E83C6
:102640008D833FC06F81788589859A8520E03FEF33
:102650004FE757E40E94B41E18164CF56B857C8535
:102660008D859E8520E030E040E251E40E94BA1D55
:10267000DC01CB01BC01CD010E94E41BDC01CB01DC
:102680009E838D830FC084E191E09C838B838B813B
:102690009C810197F1F79C838B838D819E810197AB
:1026A0009E838D838D819E81009769F714C06F8111
:1026B000788589859A850E94E41BDC01CB019E8385
:1026C0008D838D819E819A83898389819A810197E7
:1026D000F1F79A83898381E061E00E94CF0A85E364
:1026E00092E00E949E0A2E960FB6F894DEBF0FBEAF
:1026F000CDBFCF91DF9108951F920F920FB60F9229
:1027000000905B000F9211242F933F934F935F93A0
:102710006F937F938F939F93AF93BF93EF93FF93A9
:10272000DF93CF93CDB7DEB7F894E6ECF0E080818D
:1027300080936F0380916B03882361F180916C0318
:10274000882319F180916B03873619F01092790371
:1027500017C090916C0380913A02981719F010926B
:1027600079030EC080916F038093790381E061E06B
:102770000E94CF0A80917903882F90E00E949E0AE0
:1027800010926B0310926C0309C080916F038093C9
:102790006C0304C080916F0380936B037894CF9196
:1027A000DF91FF91EF91BF91AF919F918F917F91B9
:1027B0006F915F914F913F912F910F9000925B002D
:1027C0000F900FBE0F901F9018950F931F93DF93DC
:1027D000CF93CDB7DEB7AE970FB6F894DEBF0FBE7E
:1027E000CDBF9EA78DA7F894E6ECF0E083E280834E
:1027F00080E090E0A0E8BFE38FA398A7A9A7BAA7BD
:102800006FA178A589A59AA52DEC3CEC4CE255E486
:102810000E94BA1DDC01CB018BA39CA3ADA3BEA378
:102820006BA17CA18DA19EA120E030E040E85FE398
:102830000E94141F88232CF481E090E09AA389A3BE
:102840003FC06BA17CA18DA19EA120E03FEF4FE78F
:1028500057E40E94B41E18164CF56FA178A589A5FF
:102860009AA520E030E040E251E40E94BA1DDC016C
:10287000CB01BC01CD010E94E41BDC01CB019AA37A
:1028800089A30FC084E191E098A38F8F8F8D98A1C9
:102890000197F1F798A38F8F89A19AA101979AA325
:1028A00089A389A19AA1009769F714C06BA17CA1A3
:1028B0008DA19EA10E94E41BDC01CB019AA389A3F8
:1028C00089A19AA19E8F8D8F8D8D9E8D0197F1F795
:1028D0009E8F8D8F1CA61BA682C0A6ECB0E02BA5F8
:1028E0003CA58DA59EA5FC01E20FF31F80818C9372
:1028F00080E090E0A0E8BFE3898F9A8FAB8FBC8F18
:10290000698D7A8D8B8D9C8D2DEC3CEC4CE255E4E1
:102910000E94BA1DDC01CB018D8B9E8BAF8BB88FD3
:102920006D897E898F89988D20E030E040E85FE3F3
:102930000E94141F88232CF481E090E09C8B8B8BE9
:102940003FC06D897E898F89988D20E03FEF4FE7EA
:1029500057E40E94B41E18164CF5698D7A8D8B8D44
:102960009C8D20E030E040E251E40E94BA1DDC0181
:10297000CB01BC01CD010E94E41BDC01CB019C8B8F
:102980008B8B0FC084E191E09A8B898B89899A891E
:102990000197F1F79A8B898B8B899C8901979C8B86
:1029A0008B8B8B899C89009769F714C06D897E8910
:1029B0008F89988D0E94E41BDC01CB019C8B8B8B53
:1029C0008B899C89988B8F878F8598890197F1F7E0
:1029D000988B8F878BA59CA501969CA78BA70BA591
:1029E0001CA58DA59EA50E94EB210817190708F4C8
:1029F00074CFE6ECF0E083E2808380E090E0A0E832
:102A0000BFE38B879C87AD87BE876B857C858D8573
:102A10009E852DEC3CEC4CE255E40E94BA1DDC0195
:102A2000CB018F839887A987BA876F81788589853D
:102A30009A8520E030E040E85FE30E94141F88237D
:102A40002CF481E090E09E838D833FC06F81788578
:102A500089859A8520E03FEF4FE757E40E94B41E36
:102A600018164CF56B857C858D859E8520E030E0C1
:102A700040E251E40E94BA1DDC01CB01BC01CD0152
:102A80000E94E41BDC01CB019E838D830FC084E197
:102A900091E09C838B838B819C810197F1F79C83D0
:102AA0008B838D819E8101979E838D838D819E81F5
:102AB000009769F714C06F81788589859A850E948F
:102AC000E41BDC01CB019E838D838D819E819A83E3
:102AD000898389819A810197F1F79A838983789410
:102AE000AE960FB6F894DEBF0FBECDBFCF91DF918B
:102AF0001F910F910895DF93CF93CDB7DEB72A973B
:102B00000FB6F894DEBF0FBECDBF87E689838091F4
:102B10003A028A838EE28B831C82CE0101960E9448
:102B2000E5132A960FB6F894DEBF0FBECDBFCF9146
:102B3000DF9108951F920F920FB60F9200905B00E5
:102B40000F9211242F933F934F935F936F937F9333
:102B50008F939F93AF93BF93EF93FF93DF93CF93A5
:102B60000F92CDB7DEB7F894E6E3F1E08081898378
:102B700082E061E00E94CF0A8BE392E00E949E0A0D
:102B800080916D0390916E038230910549F58981A2
:102B90008033E1F080916D0390916E03FC01E05869
:102BA000FC4F80E3808380916D0390916E030196CA
:102BB00090936E0380936D0380916D0390916E03EB
:102BC000FC01E058FC4F8981808313C080916D0324
:102BD00090916E03FC01E058FC4F8981808309C00D
:102BE00080916D0390916E03FC01E058FC4F898148
:102BF000808380916D0390916E03019690936E0394
:102C000080936D0380916D0390916E0384309105E4
:102C100061F41092840381E061E00E94CF0A80E8B1
:102C200093E00E949E0A0E942D1678940F90CF91F7
:102C3000DF91FF91EF91BF91AF919F918F917F9124
:102C40006F915F914F913F912F910F9000925B0098
:102C50000F900FBE0F901F901895DF93CF93CDB7B5
:102C6000DEB769970FB6F894DEBF0FBECDBF87E61B
:102C7000898380913A028A838EE28B8380918003DC
:102C80008C83809181038D83809182038E838091D8
:102C900083038F83188610926E0310926D03CE010A
:102CA00001960E94E51369960FB6F894DEBF0FBE39
:102CB000CDBFCF91DF910895DF93CF930F920F9205
:102CC000CDB7DEB78A8319828A81807F8A838A8121
:102CD0008983E2E2F0E0898180830F900F90CF91A9
:102CE000DF910895DF93CF93CDB7DEB780E80E94E0
:102CF0005C16CF91DF910895DF93CF93CDB7DEB708
:102D000080E40E945C16CF91DF910895DF93CF930A
:102D1000CDB7DEB780E10E945C16CF91DF910895B8
:102D2000DF93CF93CDB7DEB780E20E945C16CF91E0
:102D3000DF910895DF93CF93CDB7DEB760970FB6DD
:102D4000F894DEBF0FBECDBF0E944D0C0E94A110B3
:102D50000097E1F30E949B010E944411813091058C
:102D600009F079C00E947B150E94430280E090E048
:102D7000A8ECB2E48B879C87AD87BE876B857C858A
:102D80008D859E852DEC3CEC4CE255E40E94BA1DED
:102D9000DC01CB018F839887A987BA876F817885FB
:102DA00089859A8520E030E040E85FE30E94141FA7
:102DB00088232CF481E090E09E838D833FC06F8157
:102DC000788589859A8520E03FEF4FE757E40E9498
:102DD000B41E18164CF56B857C858D859E8520E08C
:102DE00030E040E251E40E94BA1DDC01CB01BC019D
:102DF000CD010E94E41BDC01CB019E838D830FC0BB
:102E000084E191E09C838B838B819C810197F1F716
:102E10009C838B838D819E8101979E838D838D8181
:102E20009E81009769F714C06F81788589859A859E
:102E30000E94E41BDC01CB019E838D838D819E81EA
:102E40009A83898389819A810197F1F79A8389838B
:102E5000188A1F8606C00E948F1281E090E0988B2E
:102E60008F878F85988960960FB6F894DEBF0FBE66
:102E7000CDBFCF91DF9108950F931F93DF93CF9331
:102E8000CDB7DEB7C455D0400FB6F894DEBF0FBE45
:102E9000CDBF87E780937903809179038737E1F38A
:102EA0003CC10E944302FE01EF5AFF4F80E090E0D8
:102EB000AAE7B5E480839183A283B3838E01035B89
:102EC0001F4FFE01EF5AFF4F608171818281938114
:102ED0002DEC3CEC4CE255E40E94BA1DDC01CB0128
:102EE000F80180839183A283B383FE01E35BFF4FEC
:102EF000608171818281938120E030E040E85FE36E
:102F00000E94141F882344F4FE01E55BFF4F81E01B
:102F100090E09183808364C0FE01E35BFF4F60819A
:102F200071818281938120E03FEF4FE757E40E9457
:102F3000B41E18160CF043C0FE01EF5AFF4F60811B
:102F400071818281938120E030E040E251E40E946F
:102F5000BA1DDC01CB018E01055B1F4FBC01CD0109
:102F60000E94E41BDC01CB01F801918380831FC028
:102F7000FE01E75BFF4F84E191E091838083FE01D6
:102F8000E75BFF4F808191810197F1F7FE01E75BDD
:102F9000FF4F91838083DE01A55BBF4FFE01E55BA0
:102FA000FF4F80819181019711969C938E93FE0132
:102FB000E55BFF4F808191810097D1F627C08E019C
:102FC000055B1F4FFE01E35BFF4F608171818281D2
:102FD00093810E94E41BDC01CB01F8019183808383
:102FE000DE01A95BBF4FFE01E55BFF4F8081918150
:102FF0008D939C93FE01E95BFF4F80819181019746
:10300000F1F7FE01E95BFF4F918380830E947B15FE
:10301000FE01ED5BFF4F80E090E0A8ECB2E480831E
:103020009183A283B3838E01015C1F4FFE01ED5B90
:10303000FF4F60817181828193812DEC3CEC4CE2E9
:1030400055E40E94BA1DDC01CB01F8018083918315
:10305000A283B383FE01FF96608171818281938197
:1030600020E030E040E85FE30E94141F88232CF446
:1030700081E090E09EAF8DAF46C0FE01FF9660817B
:1030800071818281938120E03FEF4FE757E40E94F6
:10309000B41E181664F5FE01ED5BFF4F608171816F
:1030A0008281938120E030E040E251E40E94BA1D29
:1030B000DC01CB01BC01CD010E94E41BDC01CB0192
:1030C0009EAF8DAF0FC084E191E09CAF8BAF8BAD15
:1030D0009CAD0197F1F79CAF8BAF8DAD9EAD019785
:1030E0009EAF8DAF8DAD9EAD009769F716C0FE0106
:1030F000FF9660817181828193810E94E41BDC01D3
:10310000CB019EAF8DAF8DAD9EAD9AAF89AF89AD2E
:103110009AAD0197F1F79AAF89AF8091790388232F
:1031200009F4BFCE80917903863611F410927903A9
:1031300080917903823721F4109279030E948E10D6
:10314000809179038C3621F4109279030E947B10D0
:1031500080917903883609F077C0109279030E9434
:10316000430280E090E0A8ECB2E48DAB9EABAFAB45
:10317000B8AF6DA97EA98FA998AD2DEC3CEC4CE2BF
:1031800055E40E94BA1DDC01CB0189AB9AABABAB15
:10319000BCAB69A97AA98BA99CA920E030E040E8E2
:1031A0005FE30E94141F88232CF481E090E098AB29
:1031B0008FA73FC069A97AA98BA99CA920E03FEFFE
:1031C0004FE757E40E94B41E18164CF56DA97EA96E
:1031D0008FA998AD20E030E040E251E40E94BA1D92
:1031E000DC01CB01BC01CD010E94E41BDC01CB0161
:1031F00098AB8FA70FC084E191E09EA78DA78DA506
:103200009EA50197F1F79EA78DA78FA598A9019775
:1032100098AB8FA78FA598A9009769F73DCE69A9AC
:103220007AA98BA99CA90E94E41BDC01CB0198AB75
:103230008FA78FA598A99CA78BA78BA59CA5019765
:10324000F1F79CA78BA728CE809179038F3609F0E0
:1032500078C087E7809379030E94430280E090E082
:10326000A8ECB2E48FA398A7A9A7BAA76FA178A5E5
:1032700089A59AA52DEC3CEC4CE255E40E94BA1DC0
:10328000DC01CB018BA39CA3ADA3BEA36BA17CA14E
:103290008DA19EA120E030E040E85FE30E94141F72
:1032A00088232CF481E090E09AA389A33FC06BA10E
:1032B0007CA18DA19EA120E03FEF4FE757E40E9443
:1032C000B41E18164CF56FA178A589A59AA520E023
:1032D00030E040E251E40E94BA1DDC01CB01BC01A8
:1032E000CD010E94E41BDC01CB019AA389A30FC08E
:1032F00084E191E098A38F8F8F8D98A10197F1F7CA
:1033000098A38F8F89A19AA101979AA389A389A1D4
:103310009AA1009769F7C0CD6BA17CA18DA19EA158
:103320000E94E41BDC01CB019AA389A389A19AA185
:103330009E8F8D8F8D8D9E8D0197F1F79E8F8D8F36
:10334000ABCD80917903833609F07AC0109279036E
:103350000E9472160E9486160E947C1680E090E001
:10336000AAE7B4E4898F9A8FAB8FBC8F698D7A8D71
:103370008B8D9C8D2DEC3CEC4CE255E40E94BA1DEB
:10338000DC01CB018D8B9E8BAF8BB88F6D897E89D5
:103390008F89988D20E030E040E85FE30E94141FA1
:1033A00088232CF481E090E09C8B8B8B3FC06D894F
:1033B0007E898F89988D20E03FEF4FE757E40E9488
:1033C000B41E18164CF5698D7A8D8B8D9C8D20E07E
:1033D00030E040E251E40E94BA1DDC01CB01BC01A7
:1033E000CD010E94E41BDC01CB019C8B8B8B0FC0B9
:1033F00084E191E09A8B898B89899A890197F1F709
:103400009A8B898B8B899C8901979C8B8B8B8B8961
:103410009C89009769F714C06D897E898F89988D82
:103420000E94E41BDC01CB019C8B8B8B8B899C89DC
:10343000988B8F878F8598890197F1F7988B8F8765
:1034400080917903843609F07AC0109279030E9442
:1034500072160E9490160E947C1680E090E0AAE707
:10346000B4E48B879C87AD87BE876B857C858D8513
:103470009E852DEC3CEC4CE255E40E94BA1DDC012B
:10348000CB018F839887A987BA876F8178858985D3
:103490009A8520E030E040E85FE30E94141F882313
:1034A0002CF481E090E09E838D833FC06F8178850E
:1034B00089859A8520E03FEF4FE757E40E94B41ECC
:1034C00018164CF56B857C858D859E8520E030E057
:1034D00040E251E40E94BA1DDC01CB01BC01CD01E8
:1034E0000E94E41BDC01CB019E838D830FC084E12D
:1034F00091E09C838B838B819C810197F1F79C8366
:103500008B838D819E8101979E838D838D819E818A
:10351000009769F714C06F81788589859A850E9424
:10352000E41BDC01CB019E838D838D819E819A8378
:10353000898389819A810197F1F79A8389830E940F
:103540009A1681309105D9F3A7CCDF93CF930F92D0
:103550000F92CDB7DEB71A8219820E944D0C0E94DD
:10356000A1100097E1F30E949B010E948F120E941C
:1035700044118130910591F489819A8101969A8351
:10358000898389819A818230910529F40E948E1065
:103590001A821982E2CF0E948F12DFCF0E948F120F
:1035A000DCCFDF93CF93CDB7DEB76C970FB6F8942F
:1035B000DEBF0FBECDBF0E947C1680E090E0AAEF78
:1035C000B4E4898F9A8FAB8FBC8F698D7A8D8B8D88
:1035D0009C8D2DEC3CEC4CE255E40E94BA1DDC01C4
:1035E000CB018D8B9E8BAF8BB88F6D897E898F8938
:1035F000988D20E030E040E85FE30E94141F8823AC
:103600002CF481E090E09C8B8B8B3FC06D897E8990
:103610008F89988D20E03FEF4FE757E40E94B41E5A
:1036200018164CF5698D7A8D8B8D9C8D20E030E0DD
:1036300040E251E40E94BA1DDC01CB01BC01CD0186
:103640000E94E41BDC01CB019C8B8B8B0FC084E1BF
:1036500091E09A8B898B89899A890197F1F79A8BE6
:10366000898B8B899C8901979C8B8B8B8B899C89FF
:10367000009769F714C06D897E898F89988D0E94A3
:10368000E41BDC01CB019C8B8B8B8B899C89988BF9
:103690008F878F8598890197F1F7988B8F870E9484
:1036A000721680E090E0AAEFB4E48B879C87AD8728
:1036B000BE876B857C858D859E852DEC3CEC4CE230
:1036C00055E40E94BA1DDC01CB018F839887A9873E
:1036D000BA876F81788589859A8520E030E040E857
:1036E0005FE30E94141F88232CF481E090E09E8306
:1036F0008D833FC06F81788589859A8520E03FEF73
:103700004FE757E40E94B41E18164CF56B857C8574
:103710008D859E8520E030E040E251E40E94BA1D94
:10372000DC01CB01BC01CD010E94E41BDC01CB011B
:103730009E838D830FC084E191E09C838B838B817A
:103740009C810197F1F79C838B838D819E810197EA
:103750009E838D838D819E81009769F72CCF6F8129
:10376000788589859A850E94E41BDC01CB019E83C4
:103770008D838D819E819A83898389819A81019726
:10378000F1F79A83898317CFDF93CF93CDB7DEB755
:103790000E948F12FDCFDF93CF93CDB7DEB70E948B
:1037A000840181E061E00E94CF0A86E492E00E94F9
:1037B0009E0AE6ECF0E081E680830E94C41B80E074
:1037C00090E0CF91DF910895EF92FF920F931F93B6
:1037D0007B018C0120E030E040E05FE40E94E41EC9
:1037E00088238CF0C801B70120E030E040E05FE4BE
:1037F0000E945C1D0E94A21F9B01AC012050304022
:103800004040504806C0C801B7010E94A21F9B015A
:10381000AC01B901CA011F910F91FF90EF9008957B
:10382000A0E0B0E0E6E1FCE10C940822DC012B0111
:10383000FA019C91923008F439C1EB018881823001
:1038400008F433C1943069F4843009F02FC1119623
:103850009C9111978981981709F428C1AEE4B2E0D0
:1038600025C1843009F421C18230A9F4923009F0D5
:103870001DC19A01AD0188E0EA010990AE01E9019C
:1038800009929E018150C1F7E201898111969C91B4
:103890008923818308C1923009F407C112962D90C3
:1038A0003C901397EB018A819B811496AD90BD905B
:1038B000CD90DC901797EC80FD800E811F819101E7
:1038C000281B390BB90137FF04C066277727621B15
:1038D000730B603271050CF061C0121613066CF5A3
:1038E00037014801062E04C0969487947794679414
:1038F0000A94D2F721E030E040E050E004C0220F0B
:10390000331F441F551F6A95D2F721503040404065
:1039100050402E213F2140235123211531054105DF
:10392000510521F021E030E040E050E079018A01CA
:10393000E628F728082919293CC0232BD1F1260EA7
:10394000371E35014601062E04C09694879477945D
:1039500067940A94D2F721E030E040E050E004C0E0
:10396000220F331F441F551F6A95D2F72150304054
:10397000404050402A213B214C215D212115310539
:103980004105510521F021E030E040E050E05901CF
:103990006A01A628B728C828D9280BC08215930524
:1039A0002CF01C01AA24BB24650103C0EE24FF24D3
:1039B000870111969C91D20111968C91981709F468
:1039C00045C0992339F0A80197012A193B094C09F0
:1039D0005D0906C0A60195012E193F09400B510B48
:1039E00057FD08C0118233822282248335834683A7
:1039F00057831DC081E081833382228288279927E3
:103A0000DC01821B930BA40BB50B84839583A683E7
:103A1000B7830DC0220F331F441F551F24833583E6
:103A20004683578382819381019793838283248184
:103A3000358146815781DA01C9010197A109B10990
:103A40008F5F9F4FAF4FBF4328F30BC091833382EB
:103A50002282EA0CFB1C0C1D1D1DE482F5820683EC
:103A6000178383E08083248135814681578157FF06
:103A70001AC0C901AA2797FDA095BA2F817090702E
:103A8000A070B0705695479537952795822B932B4C
:103A9000A42BB52B84839583A683B78382819381DE
:103AA000019693838283DF0101C0D201CD01CDB79E
:103AB000DEB7E2E10C942422A0E2B0E0E2E6FDE110
:103AC0000C94142269837A838B839C832D833E8399
:103AD0004F835887E9E0EE2EF12CEC0EFD1ECE014F
:103AE0000196B7010E941A218E010F5E1F4FCE0171
:103AF0000596B8010E941A218A8991E089278A8B4C
:103B0000C701B801AE01475E5F4F0E94101C0E94C2
:103B10004520A096E6E00C943022A0E2B0E0E3E974
:103B2000FDE10C94142269837A838B839C832D831B
:103B30003E834F835887F9E0EF2EF12CEC0EFD1EEB
:103B4000CE010196B7010E941A218E010F5E1F4F10
:103B5000CE010596B8010E941A21C701B801AE0135
:103B6000475E5F4F0E94101C0E944520A096E6E031
:103B70000C943022A0E2B0E0E0ECFDE10C940822CD
:103B800069837A838B839C832D833E834F835887FD
:103B9000CE010196BE01675F7F4F0E941A21CE01C0
:103BA0000596BE016F5E7F4F0E941A219985923063
:103BB00088F089898230C8F0943019F4823051F449
:103BC00004C0843029F4923081F48EE492E0C6C0BF
:103BD000923049F420E09A858A89981321E02A8757
:103BE000CE010996BBC0823049F420E09A858A89CB
:103BF000981321E02A8BCE014196B0C02D843E84DB
:103C00004F8458886D887E888F88988CEE24FF2496
:103C10008701AA24BB24650140E050E060E070E029
:103C2000E0E0F0E0C10181709070892BE9F0E60CD2
:103C3000F71C081D191D9A01AB012A0D3B1D4C1DD7
:103C40005D1D80E090E0A0E0B0E0E614F704080518
:103C5000190520F481E090E0A0E0B0E0BA01A901EC
:103C6000480F591F6A1F7B1FAA0CBB1CCC1CDD1CF4
:103C700097FE08C081E090E0A0E0B0E0A82AB92A51
:103C8000CA2ADB2A3196E032F10549F0660C771C2E
:103C9000881C991C5694479437942794C3CFFA856F
:103CA000EA892B893C898B859C85280F391F2E5FDB
:103CB0003F4F17C0CA0181709070892B61F0169533
:103CC0000795F794E79480E090E0A0E0B0E8E82A58
:103CD000F92A0A2B1B2B76956795579547952F5FE9
:103CE0003F4F77FDE7CF0CC0440F551F661F771F6E
:103CF00017FD4160EE0CFF1C001F111F21503040CA
:103D0000403090E0590790E0690790E4790760F34C
:103D10002B8F3C8FDB01CA018F779070A070B07041
:103D200080349105A105B10561F447FD0AC0E11495
:103D3000F1040105110529F0405C5F4F6F4F7F4F83
:103D400040781A8EFE1711F081E08A8F4D8F5E8FBA
:103D50006F8F78A383E0898FCE0149960E9445201A
:103D6000A096E2E10C942422A8E1B0E0EAEBFEE1A7
:103D70000C94142269837A838B839C832D833E83E6
:103D80004F83588789E0E82EF12CEC0EFD1ECE0102
:103D90000196B7010E941A218E010F5E1F4FCE01BE
:103DA0000596B8010E941A218985823040F08989E0
:103DB000823028F0C701B8010E94922101C08FEF24
:103DC0006896E6E00C943022A8E1B0E0EAEEFEE16D
:103DD0000C94142269837A838B839C832D833E8386
:103DE0004F83588789E0E82EF12CEC0EFD1ECE01A2
:103DF0000196B7010E941A218E010F5E1F4FCE015E
:103E00000596B8010E941A218985823040F089897F
:103E1000823028F0C701B8010E94922101C08FEFC3
:103E20006896E6E00C943022A8E1B0E0EAE1FFE118
:103E30000C94142269837A838B839C832D833E8325
:103E40004F83588789E0E82EF12CEC0EFD1ECE0141
:103E50000196B7010E941A218E010F5E1F4FCE01FD
:103E60000596B8010E941A218985823040F089891F
:103E7000823028F0C701B8010E94922101C081E080
:103E80006896E6E00C943022A8E0B0E0EAE4FFE1B6
:103E90000C9411229B01AC0183E08983DA01C901F2
:103EA0008827B7FD83959927AA27BB27B82E211508
:103EB00031054105510519F482E089833AC0882310
:103EC000A9F0203080E0380780E0480780E85807F4
:103ED00029F460E070E080E09FEC30C0EE24FF2425
:103EE0008701E21AF30A040B150B02C079018A015B
:103EF0008EE1C82ED12CDC82CB82ED82FE820F8334
:103F00001887C801B7010E94F61F019718161906F5
:103F100084F4082E04C0EE0CFF1C001F111F0A942D
:103F2000D2F7ED82FE820F831887C81AD90ADC8285
:103F3000CB82BA82CE0101960E9445202896E9E004
:103F40000C942D22ACE0B0E0E8EAFFE10C941822DA
:103F500069837A838B839C83CE010196BE016B5F5C
:103F60007F4F0E941A218D81823061F1823050F1A1
:103F7000843021F48E81882351F12EC02F81388521
:103F800037FD20C06E812F3131051CF06623F9F01A
:103F900023C08EE190E0821B930B29853A854B85E7
:103FA0005C8504C056954795379527958A95D2F735
:103FB0006623B1F050954095309521953F4F4F4F76
:103FC0005F4F0EC020E030E040E050E009C02FEF2E
:103FD0003FEF4FEF5FE704C020E030E040E050E803
:103FE000B901CA012C96E2E00C943422EF92FF92C0
:103FF0000F931F937B018C0180E0E81680E0F806A8
:1040000081E0080780E0180788F48FEFE816F104D4
:104010000105110531F028F088E090E0A0E0B0E063
:1040200017C080E090E0A0E0B0E012C080E0E816A9
:1040300080E0F80680E0080781E0180728F088E1B2
:1040400090E0A0E0B0E004C080E190E0A0E0B0E04B
:1040500020E230E040E050E0281B390B4A0B5B0BBC
:1040600004C016950795F794E7948A95D2F7F7015F
:10407000EA5AFD4F8081281B310941095109C901C4
:104080001F910F91FF90EF900895DF92EF92FF92B2
:104090000F931F93FC01E480F58006811781D18086
:1040A0008081823048F480E090E0A0E1B0E0E82A2E
:1040B000F92A0A2B1B2BA5C0843009F49FC082303B
:1040C00021F4EE24FF24870105C0E114F104010569
:1040D000110519F4E0E0F0E096C0628173819FEF72
:1040E000623879070CF05BC022E83FEF261B370BE4
:1040F0002A3131052CF020E030E040E050E02AC0C9
:10410000B801A701022E04C076956795579547958B
:104110000A94D2F781E090E0A0E0B0E004C0880FFC
:10412000991FAA1FBB1F2A95D2F70197A109B109B0
:104130008E219F21A023B1230097A105B10521F075
:1041400081E090E0A0E0B0E09A01AB01282B392B90
:104150004A2B5B2BDA01C9018F779070A070B07089
:1041600080349105A105B10539F427FF09C0205C11
:104170003F4F4F4F5F4F04C0215C3F4F4F4F5F4F4A
:10418000E0E0F0E02030A0E03A07A0E04A07A0E439
:104190005A0710F0E1E0F0E079018A0127C06038A9
:1041A000710564F5FB01E158FF4FD801C7018F7716
:1041B0009070A070B07080349105A105B10539F4FC
:1041C000E7FE0DC080E490E0A0E0B0E004C08FE323
:1041D00090E0A0E0B0E0E80EF91E0A1F1B1F17FFD9
:1041E00005C016950795F794E794319687E01695E4
:1041F0000795F794E7948A95D1F705C0EE24FF243C
:104200008701EFEFF0E06E2F679566276795902F97
:104210009F77D794DD24D7948E2F8695492F462BF0
:10422000582F5D29B701CA011F910F91FF90EF90A0
:10423000DF900895FC01DB01408151812281622FD2
:104240006F7770E0221F2227221F9381892F880F0A
:10425000822B282F30E0991F9927991F11969C9344
:10426000119721153105A9F5411551056105710514
:1042700011F482E037C082E89FEF13969C938E93EF
:1042800012979A01AB0167E0220F331F441F551F9D
:104290006A95D1F783E08C930DC0220F331F441F22
:1042A000551F12968D919C911397019713969C938D
:1042B0008E931297203080E0380780E0480780E432
:1042C000580758F314962D933D934D935C9317978D
:1042D00008952F3F310579F44115510561057105A8
:1042E00019F484E08C93089564FF03C081E08C93FB
:1042F00012C01C9210C02F57304013963C932E933F
:10430000129783E08C9387E0440F551F661F771F39
:104310008A95D1F7706414964D935D936D937C9359
:10432000179708951F93DC01FB019C91923008F4CC
:1043300047C08081823008F443C0943051F4119614
:104340001C91843099F58181682F70E0611B71099F
:104350003FC0843021F0923031F48230B9F1818154
:10436000882389F12DC011961C9111978230F1F0AC
:1043700081811817D9F412962D913C91139782815F
:1043800093818217930794F028173907BCF014968D
:104390008D919D910D90BC91A02D248135814681F8
:1043A0005781281739074A075B0718F4112341F092
:1043B0000AC082179307A407B50740F4112319F028
:1043C00061E070E005C06FEF7FEF02C060E070E079
:1043D000CB011F910895FC0101900020E9F7809521
:1043E00090958E0F9F1F0895AA1BBB1B51E107C01C
:1043F000AA1FBB1FA617B70710F0A61BB70B881F75
:10440000991F5A95A9F780959095BC01CD01089503
:104410002F923F924F925F926F927F928F929F92D4
:10442000AF92BF92CF92DF92EF92FF920F931F93C2
:10443000CF93DF93CDB7DEB7CA1BDB0B0FB6F89473
:10444000DEBF0FBECDBF19942A88398848885F84A3
:104450006E847D848C849B84AA84B984C884DF8024
:10446000EE80FD800C811B81AA81B981CE0FD11D08
:104470000FB6F894DEBF0FBECDBFED010895F894DE
:02448000FFCF6C
:104482000000803F9600A0004C6566740052696788
:104492006874004F62737461636C6500496E746581
:1044A2007273656374696F6E00476F205374726133
:1044B200696768740053746F700031526561646992
:1044C2006E672E2E2E0057656C636F6D65000000BF
:1044D20000000000000000010202030303030404C1
:1044E2000404040404040505050505050505050580
:1044F2000505050505050606060606060606060660
:104502000606060606060606060606060606060649
:10451200060606060606070707070707070707072F
:104522000707070707070707070707070707070719
:104532000707070707070707070707070707070709
:1045420007070707070707070707070707070707F9
:1045520007070707070708080808080808080808DF
:1045620008080808080808080808080808080808C9
:1045720008080808080808080808080808080808B9
:1045820008080808080808080808080808080808A9
:104592000808080808080808080808080808080899
:1045A2000808080808080808080808080808080889
:1045B2000808080808080808080808080808080879
:1045C2000808080808080808080808080808080869
:0645D200080808080808B3
:00000001FF
