:100000000C9472000C9493000C9493000C94930045
:100010000C9493000C9493000C9493000C94930014
:100020000C9493000C9493000C9493000C94930004
:100030000C9493000C9493000C9493000C949300F4
:100040000C9493000C9493000C9493000C949300E4
:100050000C9493000C9493000C9493000C949300D4
:100060000C9493000C94FD120C9493000C94930048
:100070000C9493000C9493000C9493000C949300B4
:100080000C9493000C9493000C9493000C949300A4
:100090000C9493000C9493000C9493000C94930094
:1000A0000C9493000C9493000C9493000C94930084
:1000B0000C9493000C9493000C9493000C94930074
:1000C0000C9493000C9493000C9493000C94930064
:1000D0000C9493000C9493000C9456150C9493007C
:1000E0000C94930011241FBECFEFD1E2DEBFCDBF31
:1000F00000E00CBF13E0A0E0B2E0EEEBF1E500E0C1
:100100000BBF02C007900D92AA37B107D9F713E0D1
:10011000AAE7B3E001C01D92A63CB107E1F70E9437
:1001200076220C94DD280C940000DF93CF93CDB79A
:10013000DEB7E1E2F1E01082E5E2F1E08FEF8083EB
:10014000E4E2F1E081E08083E9E2F1E01082E8E2BC
:10015000F1E08FEF8083EBE2F1E01082EAE2F1E080
:100160008FEF8083EDE2F1E01082ECE2F1E08FEFBF
:100170008083E0E2F1E089EA8083E1E2F1E08BE074
:100180008083CF91DF910895DF93CF93CDB7DEB712
:10019000A7E2B0E0E7E2F0E08081876F8C93A8E20D
:1001A000B0E0E8E2F0E0808180788C93CF91DF913D
:1001B0000895DF93CF930F920F92CDB7DEB7E4E0AF
:1001C000F1E01082E5E0F1E01082A7E2B0E0E7E2C2
:1001D000F0E0808188608C93A8E2B0E0E8E2F0E093
:1001E0008081877F8C93E1E2F0E08081E1E2F0E0C2
:1001F0008FEF8083E2E2F0E08081E2E2F0E01082C3
:10020000AAE0B1E0EAE0F1E0808188638C93ABE0A2
:10021000B1E0EBE0F1E0808188638C93AEE2B0E086
:10022000EEE2F0E0808188608C93E0E3F0E0108201
:10023000E1E3F0E01082E7E0F1E01082E8E0F1E0D5
:1002400010820F900F90CF91DF910895DF93CF939D
:10025000CDB7DEB70E94D9000E94C400CF91DF91D4
:100260000895DF93CF93CDB7DEB7EAE7F0E01082D1
:10027000EBE7F0E01082ECE7F0E080E28083E0E57D
:10028000F0E080E88083EAE7F0E086E88083CF91C1
:10029000DF910895DF93CF93CDB7DEB7E1ECF0E0C7
:1002A0001082E0ECF0E01082E2ECF0E086E0808387
:1002B000E4ECF0E087E48083E5ECF0E01082E1EC30
:1002C000F0E088E98083CF91DF910895DF93CF93A9
:1002D000CDB7DEB7E1E3F1E01082E0E3F1E01082B8
:1002E000E2E3F1E086E08083E4E3F1E087E4808309
:1002F000E5E3F1E01082E1E3F1E088E98083CF916A
:10030000DF910895DF93CF93CDB7DEB7F8940E94C5
:1003100026010E9431010E9495000E944B020E941A
:100320004A070E944A010E9466017894CF91DF91AA
:100330000895DF93CF930F92CDB7DEB71982E6E22F
:10034000F0E0808189838981877F8983E8E2F0E01A
:10035000898180830F90CF91DF910895DF93CF93B0
:100360000F92CDB7DEB71982E6E2F0E08081898393
:10037000898188608983E8E2F0E0898180830F9039
:10038000CF91DF910895DF93CF930F92CDB7DEB772
:100390008983E5E0F1E0898180830F90CF91DF913F
:1003A0000895DF93CF930F920F92CDB7DEB78A8374
:1003B00019828A818F708A83E0E2F0E080818983EC
:1003C0008981807F898399818A81892B8983E2E26F
:1003D000F0E0898180830F900F90CF91DF91089595
:1003E000DF93CF930F920F92CDB7DEB789836A83E5
:1003F000E8E2F1E089818083EAE2F1E08A818083AA
:100400000F900F90CF91DF910895DF93CF93CDB7E9
:10041000DEB786E00E94D101CF91DF910895DF938E
:10042000CF93CDB7DEB789E00E94D101CF91DF91A4
:100430000895DF93CF93CDB7DEB785E00E94D10159
:10044000CF91DF910895DF93CF93CDB7DEB78AE0E8
:100450000E94D101CF91DF910895DF93CF93CDB763
:10046000DEB784E00E94D101CF91DF910895DF9340
:10047000CF93CDB7DEB782E00E94D101CF91DF915B
:100480000895DF93CF93CDB7DEB780E00E94D1010E
:10049000CF91DF9108950F931F93DF93CF93CDB743
:1004A000DEB7C057D0400FB6F894DEBF0FBECDBF49
:1004B000FE01E359FF4F80E090E0A0E8BFE38083B6
:1004C0009183A283B3838E0107591F4FFE01E35925
:1004D000FF4F60817181828193812DEC3CEC4CE275
:1004E00055E40E946124DC01CB01F80180839183F3
:1004F000A283B383FE01E759FF4F6081718182813E
:10050000938120E030E040E85FE30E94BB25882330
:1005100044F4FE01E959FF4F81E090E0918380832C
:1005200064C0FE01E759FF4F608171818281938130
:1005300020E03FEF4FE757E40E945B2518160CF0D0
:1005400043C0FE01E359FF4F608171818281938135
:1005500020E030E040E251E40E946124DC01CB0164
:100560008E0109591F4FBC01CD010E948B22DC0175
:10057000CB01F801918380831FC0FE01EB59FF4F2F
:1005800084E191E091838083FE01EB59FF4F8081EC
:1005900091810197F1F7FE01EB59FF4F9183808321
:1005A000DE01A959BF4FFE01E959FF4F80819181BA
:1005B000019711969C938E93FE01E959FF4F80811C
:1005C00091810097D1F627C08E0109591F4FFE0176
:1005D000E759FF4F60817181828193810E948B2254
:1005E000DC01CB01F80191838083DE01AD59BF4F5F
:1005F000FE01E959FF4F808191818D939C93FE010B
:10060000ED59FF4F808191810197F1F7FE01ED597E
:10061000FF4F91838083A8E2B0E0E8E2F0E08081C0
:100620008E7F8C93A8E2B0E0E8E2F0E080818D7FDD
:100630008C93E8E2F0E080E38083A8E2B0E0E8E2B7
:10064000F0E0808184608C93FE01E15AFF4F80E0EE
:1006500090E0A0EAB0E480839183A283B3838E010B
:10066000055A1F4FFE01E15AFF4F6081718182815F
:1006700093812DEC3CEC4CE255E40E946124DC01BA
:10068000CB01F80180839183A283B383FE01E55AF5
:10069000FF4F608171818281938120E030E040E8EA
:1006A0005FE30E94BB25882344F4FE01E75AFF4F15
:1006B00081E090E09183808364C0FE01E55AFF4FA2
:1006C000608171818281938120E03FEF4FE757E4A1
:1006D0000E945B2518160CF043C0FE01E15AFF4F43
:1006E000608171818281938120E030E040E251E4B9
:1006F0000E946124DC01CB018E01075A1F4FBC010F
:10070000CD010E948B22DC01CB01F8019183808313
:100710001FC0FE01E95AFF4F84E191E0918380837D
:10072000FE01E95AFF4F808191810197F1F7FE01A7
:10073000E95AFF4F91838083DE01A75ABF4FFE0124
:10074000E75AFF4F80819181019711969C938E9378
:10075000FE01E75AFF4F808191810097D1F627C0B3
:100760008E01075A1F4FFE01E55AFF4F60817181CC
:10077000828193810E948B22DC01CB01F80191835D
:100780008083DE01AB5ABF4FFE01E75AFF4F8081E5
:1007900091818D939C93FE01EB5AFF4F8081918153
:1007A0000197F1F7FE01EB5AFF4F91838083A8E296
:1007B000B0E0E8E2F0E080818B7F8C93FE01EF5A9D
:1007C000FF4F80E090E0A0E8BFE380839183A283A5
:1007D000B3838E01035B1F4FFE01EF5AFF4F608111
:1007E0007181828193812DEC3CEC4CE255E40E94B6
:1007F0006124DC01CB01F80180839183A283B38360
:10080000FE01E35BFF4F608171818281938120E073
:1008100030E040E85FE30E94BB25882344F4FE01FA
:10082000E55BFF4F81E090E09183808364C0FE012F
:10083000E35BFF4F608171818281938120E03FEF14
:100840004FE757E40E945B2518160CF043C0FE01E9
:10085000EF5AFF4F608171818281938120E030E007
:1008600040E251E40E946124DC01CB018E01055B72
:100870001F4FBC01CD010E948B22DC01CB01F8018E
:10088000918380831FC0FE01E75BFF4F84E191E00D
:1008900091838083FE01E75BFF4F80819181019707
:1008A000F1F7FE01E75BFF4F91838083DE01A55BDB
:1008B000BF4FFE01E55BFF4F80819181019711964B
:1008C0009C938E93FE01E55BFF4F808191810097A1
:1008D000D1F627C08E01055B1F4FFE01E35BFF4F82
:1008E00060817181828193810E948B22DC01CB0126
:1008F000F80191838083DE01A95BBF4FFE01E55BB8
:10090000FF4F808191818D939C93FE01E95BFF4FA6
:10091000808191810197F1F7FE01E95BFF4F91839F
:100920008083A8E2B0E0E8E2F0E080818E7F8C93E3
:10093000A8E2B0E0E8E2F0E080818D7F8C93E8E20D
:10094000F0E080E38083A8E2B0E0E8E2F0E08081BC
:1009500084608C93FE01ED5BFF4F80E090E0A0EAA5
:10096000B0E480839183A283B3838E01015C1F4F27
:10097000FE01ED5BFF4F60817181828193812DECDF
:100980003CEC4CE255E40E946124DC01CB01F8010F
:1009900080839183A283B383FE01FF96608171817E
:1009A0008281938120E030E040E85FE30E94BB2534
:1009B00088232CF481E090E09EAF8DAF46C0FE010D
:1009C000FF96608171818281938120E03FEF4FE744
:1009D00057E40E945B25181664F5FE01ED5BFF4F9E
:1009E000608171818281938120E030E040E251E4B6
:1009F0000E946124DC01CB01BC01CD010E948B224D
:100A0000DC01CB019EAF8DAF0FC084E191E09CAFC4
:100A10008BAF8BAD9CAD0197F1F79CAF8BAF8DADDC
:100A20009EAD01979EAF8DAF8DAD9EAD009769F7DE
:100A300016C0FE01FF9660817181828193810E94C0
:100A40008B22DC01CB019EAF8DAF8DAD9EAD9AAFF9
:100A500089AF89AD9AAD0197F1F79AAF89AFA8E256
:100A6000B0E0E8E2F0E080818B7F8C9380E090E062
:100A7000A0E8BFE38DAB9EABAFABB8AF6DA97EA9CD
:100A80008FA998AD2DEC3CEC4CE255E40E9461241A
:100A9000DC01CB0189AB9AABABABBCAB69A97AA942
:100AA0008BA99CA920E030E040E85FE30E94BB25D1
:100AB00088232CF481E090E098AB8FA73FC069A910
:100AC0007AA98BA99CA920E03FEF4FE757E40E9449
:100AD0005B2518164CF56DA97EA98FA998AD20E06D
:100AE00030E040E251E40E946124DC01CB01BC0112
:100AF000CD010E948B22DC01CB0198AB8FA70FC0E8
:100B000084E191E09EA78DA78DA59EA50197F1F7A1
:100B10009EA78DA78FA598A9019798AB8FA78FA5A2
:100B200098A9009769F714C069A97AA98BA99CA90B
:100B30000E948B22DC01CB0198AB8FA78FA598A9CF
:100B40009CA78BA78BA59CA50197F1F79CA78BA7CA
:100B5000A8E2B0E0E8E2F0E080818E7F8C93A8E22A
:100B6000B0E0E8E2F0E080818D7F8C93E8E2F0E095
:100B700080E38083A8E2B0E0E8E2F0E08081846076
:100B80008C9380E090E0A0EAB0E48FA398A7A9A797
:100B9000BAA76FA178A589A59AA52DEC3CEC4CE2EB
:100BA00055E40E946124DC01CB018BA39CA3ADA37F
:100BB000BEA36BA17CA18DA19EA120E030E040E806
:100BC0005FE30E94BB2588232CF481E090E09AA388
:100BD00089A33FC06BA17CA18DA19EA120E03FEF26
:100BE0004FE757E40E945B2518164CF56FA178A5D6
:100BF00089A59AA520E030E040E251E40E946124FA
:100C0000DC01CB01BC01CD010E948B22DC01CB01B8
:100C10009AA389A30FC084E191E098A38F8F8F8D51
:100C200098A10197F1F798A38F8F89A19AA10197B5
:100C30009AA389A389A19AA1009769F714C06BA10F
:100C40007CA18DA19EA10E948B22DC01CB019AA3E5
:100C500089A389A19AA19E8F8D8F8D8D9E8D0197DD
:100C6000F1F79E8F8D8FA8E2B0E0E8E2F0E080819E
:100C70008B7F8C9380E090E0A0E8BFE3898F9A8F10
:100C8000AB8FBC8F698D7A8D8B8D9C8D2DEC3CEC60
:100C90004CE255E40E946124DC01CB018D8B9E8BDC
:100CA000AF8BB88F6D897E898F89988D20E030E079
:100CB00040E85FE30E94BB2588232CF481E090E0AC
:100CC0009C8B8B8B3FC06D897E898F89988D20E0AE
:100CD0003FEF4FE757E40E945B2518164CF5698DEE
:100CE0007A8D8B8D9C8D20E030E040E251E40E94B3
:100CF0006124DC01CB01BC01CD010E948B22DC010F
:100D0000CB019C8B8B8B0FC084E191E09A8B898BFC
:100D100089899A890197F1F79A8B898B8B899C89AC
:100D200001979C8B8B8B8B899C89009769F714C0EA
:100D30006D897E898F89988D0E948B22DC01CB0181
:100D40009C8B8B8B8B899C89988B8F878F859889BF
:100D50000197F1F7988B8F87A8E2B0E0E8E2F0E026
:100D600080818E7F8C93A8E2B0E0E8E2F0E08081A1
:100D70008D7F8C93E8E2F0E080E28083A8E2B0E02F
:100D8000E8E2F0E0808184608C9380E090E0A0EA6B
:100D9000B0E48B879C87AD87BE876B857C858D850E
:100DA0009E852DEC3CEC4CE255E40E946124DC0174
:100DB000CB018F839887A987BA876F8178858985CA
:100DC0009A8520E030E040E85FE30E94BB2588235D
:100DD0002CF481E090E09E838D833FC06F81788505
:100DE00089859A8520E03FEF4FE757E40E945B2515
:100DF00018164CF56B857C858D859E8520E030E04E
:100E000040E251E40E946124DC01CB01BC01CD0130
:100E10000E948B22DC01CB019E838D830FC084E175
:100E200091E09C838B838B819C810197F1F79C835C
:100E30008B838D819E8101979E838D838D819E8181
:100E4000009769F714C06F81788589859A850E941B
:100E50008B22DC01CB019E838D838D819E819A83C1
:100E6000898389819A810197F1F79A838983A8E21E
:100E7000B0E0E8E2F0E080818B7F8C93C059DF4FD7
:100E80000FB6F894DEBF0FBECDBFCF91DF911F919B
:100E90000F910895DF93CF93CDB7DEB72E970FB69E
:100EA000F894DEBF0FBECDBF80E090E0A0E8BFE3C6
:100EB0008B879C87AD87BE876B857C858D859E855E
:100EC0002DEC3CEC4CE255E40E946124DC01CB01AA
:100ED0008F839887A987BA876F81788589859A8556
:100EE00020E030E040E85FE30E94BB2588232CF43B
:100EF00081E090E09E838D833FC06F8178858985F6
:100F00009A8520E03FEF4FE757E40E945B251816D3
:100F10004CF56B857C858D859E8520E030E040E238
:100F200051E40E946124DC01CB01BC01CD010E948F
:100F30008B22DC01CB019E838D830FC084E191E085
:100F40009C838B838B819C810197F1F79C838B839E
:100F50008D819E8101979E838D838D819E810097D7
:100F600069F714C06F81788589859A850E948B22E4
:100F7000DC01CB019E838D838D819E819A83898341
:100F800089819A810197F1F79A83898388E20E9487
:100F9000DE0781E00E94DE0786E00E94DE078EE029
:100FA0000E94DE0780E80E94DE072E960FB6F894B6
:100FB000DEBF0FBECDBFCF91DF910895DF93CF93FA
:100FC000CDB7DEB76E970FB6F894DEBF0FBECDBFBC
:100FD0008E8F8E8D8D8F8D8D807F8D8FA8E2B0E06E
:100FE000E8E2F0E080818F708C93A8E2B0E0E8E264
:100FF000F0E090818D8D892B8C93A8E2B0E0E8E23F
:10100000F0E080818E7F8C93A8E2B0E0E8E2F0E02F
:1010100080818D7F8C93A8E2B0E0E8E2F0E08081EF
:1010200084608C9380E090E0A0EAB0E4898F9A8F8E
:10103000AB8FBC8F698D7A8D8B8D9C8D2DEC3CECAC
:101040004CE255E40E946124DC01CB018D8B9E8B28
:10105000AF8BB88F6D897E898F89988D20E030E0C5
:1010600040E85FE30E94BB2588232CF481E090E0F8
:101070009C8B8B8B3FC06D897E898F89988D20E0FA
:101080003FEF4FE757E40E945B2518164CF5698D3A
:101090007A8D8B8D9C8D20E030E040E251E40E94FF
:1010A0006124DC01CB01BC01CD010E948B22DC015B
:1010B000CB019C8B8B8B0FC084E191E09A8B898B49
:1010C00089899A890197F1F79A8B898B8B899C89F9
:1010D00001979C8B8B8B8B899C89009769F714C037
:1010E0006D897E898F89988D0E948B22DC01CB01CE
:1010F0009C8B8B8B8B899C89988B8F878F8598890C
:101100000197F1F7988B8F87A8E2B0E0E8E2F0E072
:1011100080818B7F8C938E8D8F708E8F8E8D82953C
:10112000807F8E8FA8E2B0E0E8E2F0E080818F70EF
:101130008C93A8E2B0E0E8E2F0E090818E8D892BFC
:101140008C93A8E2B0E0E8E2F0E080818E7F8C939F
:10115000A8E2B0E0E8E2F0E080818D7F8C93A8E225
:10116000B0E0E8E2F0E0808184608C9380E090E081
:10117000A0EAB0E48B879C87AD87BE876B857C85B2
:101180008D859E852DEC3CEC4CE255E40E9461245B
:10119000DC01CB018F839887A987BA876F81788517
:1011A00089859A8520E030E040E85FE30E94BB2516
:1011B00088232CF481E090E09E838D833FC06F8173
:1011C000788589859A8520E03FEF4FE757E40E94B4
:1011D0005B2518164CF56B857C858D859E8520E0FA
:1011E00030E040E251E40E946124DC01CB01BC010B
:1011F000CD010E948B22DC01CB019E838D830FC029
:1012000084E191E09C838B838B819C810197F1F732
:101210009C838B838D819E8101979E838D838D819D
:101220009E81009769F714C06F81788589859A85BA
:101230000E948B22DC01CB019E838D838D819E8158
:101240009A83898389819A810197F1F79A838983A7
:10125000A8E2B0E0E8E2F0E080818B7F8C936E96AC
:101260000FB6F894DEBF0FBECDBFCF91DF910895CA
:10127000DF93CF93CDB7DEB76E970FB6F894DEBF8E
:101280000FBECDBF8E8F8E8D8D8F8D8D807F8D8F7C
:10129000A8E2B0E0E8E2F0E080818F708C93A8E2F1
:1012A000B0E0E8E2F0E090818D8D892B8C93A8E28C
:1012B000B0E0E8E2F0E0808181608C93A8E2B0E0E9
:1012C000E8E2F0E080818D7F8C93A8E2B0E0E8E274
:1012D000F0E0808184608C9380E090E0A0EAB0E44C
:1012E000898F9A8FAB8FBC8F698D7A8D8B8D9C8DFA
:1012F0002DEC3CEC4CE255E40E946124DC01CB0176
:101300008D8B9E8BAF8BB88F6D897E898F89988DE1
:1013100020E030E040E85FE30E94BB2588232CF406
:1013200081E090E09C8B8B8B3FC06D897E898F899B
:10133000988D20E03FEF4FE757E40E945B25181699
:101340004CF5698D7A8D8B8D9C8D20E030E040E2EC
:1013500051E40E946124DC01CB01BC01CD010E945B
:101360008B22DC01CB019C8B8B8B0FC084E191E045
:101370009A8B898B89899A890197F1F79A8B898B46
:101380008B899C8901979C8B8B8B8B899C8900977F
:1013900069F714C06D897E898F89988D0E948B2290
:1013A000DC01CB019C8B8B8B8B899C89988B8F87E5
:1013B0008F8598890197F1F7988B8F87A8E2B0E025
:1013C000E8E2F0E080818B7F8C938E8D8F708E8F22
:1013D0008E8D8295807F8E8FA8E2B0E0E8E2F0E00B
:1013E00080818F708C93A8E2B0E0E8E2F0E0908119
:1013F0008E8D892B8C93A8E2B0E0E8E2F0E080814A
:1014000081608C93A8E2B0E0E8E2F0E080818D7F1B
:101410008C93A8E2B0E0E8E2F0E0808184608C93F5
:1014200080E090E0A0EAB0E48B879C87AD87BE8720
:101430006B857C858D859E852DEC3CEC4CE255E4DE
:101440000E946124DC01CB018F839887A987BA872A
:101450006F81788589859A8520E030E040E85FE3F8
:101460000E94BB2588232CF481E090E09E838D832D
:101470003FC06F81788589859A8520E03FEF4FE7EF
:1014800057E40E945B2518164CF56B857C858D858D
:101490009E8520E030E040E251E40E946124DC01BE
:1014A000CB01BC01CD010E948B22DC01CB019E83CC
:1014B0008D830FC084E191E09C838B838B819C8121
:1014C0000197F1F79C838B838D819E8101979E8389
:1014D0008D838D819E81009769F714C06F81788517
:1014E00089859A850E948B22DC01CB019E838D83A6
:1014F0008D819E819A83898389819A810197F1F7F1
:101500009A838983A8E2B0E0E8E2F0E080818B7FF3
:101510008C936E960FB6F894DEBF0FBECDBFCF9101
:10152000DF910895DF93CF93CDB7DEB780E80E94B7
:10153000DE07CF91DF910895DF93CF9300D00F9214
:10154000CDB7DEB79C838B830AC0EB81FC818081A1
:101550000E9438098B819C8101969C838B83EB814F
:10156000FC818081882389F71A8219821A82198264
:1015700008C080E20E94380989819A8101969A8385
:10158000898389819A818C3091059CF30F900F900B
:101590000F900F90CF91DF910895DF93CF9300D0FC
:1015A0000F92CDB7DEB789836A838981282F30E017
:1015B0003C832B838B819C8182309105D9F02B81D8
:1015C0003C812330310534F48B819C81813091053D
:1015D00061F01EC02B813C812330310581F08B816D
:1015E0009C818430910581F013C08A8181580E94CA
:1015F000DE070EC08A8181540E94DE0709C08A81FD
:101600008D560E94DE0704C08A818D520E94DE073B
:101610000F900F900F900F90CF91DF910895DF936F
:10162000CF93CDB7DEB727970FB6F894DEBF0FBEC6
:10163000CDBF8A836B835D834C833F832E83198266
:101640008A81882319F08B81882319F40E94920AD9
:1016500004C08A816B810E94CD0A8E819F81853072
:10166000910519F089818130A9F48C819D8120E157
:1016700037E2B9010E949228CB01C09690939F0354
:1016800080939E0380919E0390919F030E9438094E
:1016900081E089838E819F818430910519F0898151
:1016A000813011F58C819D8128EE33E0B9010E94D3
:1016B0009228CB019093A2038093A1038091A10370
:1016C0009091A2032AE030E0B9010E949228C096CE
:1016D0009093AD038093AC038091AC039091AD03E4
:1016E0000E94380981E089838E819F818330910532
:1016F00019F08981813011F58C819D8124E630E0DB
:10170000B9010E949228CB019093A2038093A10378
:101710008091A1039091A2032AE030E0B9010E94D8
:101720009228C0969093A9038093A8038091A80360
:101730009091A9030E94380981E089838E819F815D
:101740008230910519F08981813011F58C819D815C
:101750002AE030E0B9010E949228CB019093A203C5
:101760008093A1038091A1039091A2032AE030E02D
:10177000B9010E949228C0969093A6038093A50376
:101780008091A5039091A6030E94380981E0898386
:101790008E819F818130910519F08981813091F48A
:1017A0008C819D812AE030E0B9010E949228C09688
:1017B0009093AB038093AA038091AA039091AB030B
:1017C0000E9438098E819F81863091051CF085E446
:1017D0000E94380927960FB6F894DEBF0FBECDBF22
:1017E000CF91DF910895DF93CF930F920F92CDB7F2
:1017F000DEB78A838A81883020F0EBE7F0E088E06A
:1018000080838A8187708A83ECE7F0E08A81806236
:101810008083AAE7B0E0EAE7F0E0808180648C93FF
:10182000EAE7F0E08081882F90E080719070009767
:10183000B9F3E9E7F0E080818983AAE7B0E0EAE75D
:10184000F0E0808180618C93EBE7F0E01082898189
:101850000F900F90CF91DF910895DF93CF9300D039
:10186000CDB7DEB789836A834B838B810E94F30BEC
:101870008093A0038091A003282F30E089816A81A2
:10188000A90123E030E00E940F0B0F900F900F9002
:10189000CF91DF910895DF93CF9300D00F92CDB712
:1018A000DEB783E00E94F30B80937A0382E00E940C
:1018B000F30B80937B0381E00E94F30B80937C0306
:1018C00080917A03898380917B038A8380917C0352
:1018D0008B838CE28C8382E061E043E00E942D0CDC
:1018E00082E065E042E00E942D0C82E069E041E088
:1018F0000E942D0C8BE00E94F30B80937D0386E009
:101900000E94F30B80937E030F900F900F900F9027
:10191000CF91DF910895EF92FF920F931F93DF9382
:10192000CF93CDB7DEB7A0970FB6F894DEBF0FBE4A
:10193000CDBF98A38F8F1E8E1D8E8F8D98A1813065
:10194000910519F40E94190207C08F8D98A1823069
:10195000910511F40E9423020E944B0C8F8D98A1D7
:1019600081309105A9F48091000290910102382FF5
:101970008091020290910302282F8091040290919D
:101980000502922F981B832F692F0E94F00119C026
:101990008F8D98A182309105A1F4809100029091E1
:1019A0000102382F8091020290910302282F80912A
:1019B000040290910502922F981B832F692F0E9499
:1019C000F00180917B03282F30E080910C029091F0
:1019D0000D02281739070CF0B0CF80917A03282F19
:1019E00030E080910C0290910D02281739070CF01D
:1019F000A4CF80917C03282F30E080910C0290913D
:101A00000D02281739070CF098CF0E94410280E0A0
:101A100090E0A8E4B2E4898F9A8FAB8FBC8F698D78
:101A20007A8D8B8D9C8D2DEC3CEC4CE255E40E9424
:101A30006124DC01CB018D8B9E8BAF8BB88F6D89C0
:101A40007E898F89988D20E030E040E85FE30E9436
:101A5000BB2588232CF481E090E09C8B8B8B3FC0CE
:101A60006D897E898F89988D20E03FEF4FE757E49D
:101A70000E945B2518164CF5698D7A8D8B8D9C8D97
:101A800020E030E040E251E40E946124DC01CB011F
:101A9000BC01CD010E948B22DC01CB019C8B8B8B86
:101AA0000FC084E191E09A8B898B89899A8901978B
:101AB000F1F79A8B898B8B899C8901979C8B8B8BF7
:101AC0008B899C89009769F714C06D897E898F89FD
:101AD000988D0E948B22DC01CB019C8B8B8B8B8998
:101AE0009C89988B8F878F8598890197F1F7988BC0
:101AF0008F878F8D98A18130910519F40E9419026A
:101B000007C08F8D98A18230910511F40E942302A5
:101B10000E944B0C8F8D98A18130910579F58091B1
:101B2000000290910102AA2797FDA095BA2FBC014F
:101B3000CD010E94EB25DC01CB01BC01CD0120E0F1
:101B400030E040E05FE30E946124DC01CB01BC0196
:101B5000CD010E948B22DC01CB01382F8091020243
:101B600090910302282F8091040290910502922FF8
:101B7000981B832F692F0E94F00135C08F8D98A18B
:101B80008230910581F58091000290910102182F19
:101B9000209102023091030280910402909105028B
:101BA000A901481B590BCA01AA2797FDA095BA2F76
:101BB000BC01CD010E94EB25DC01CB01BC01CD01B4
:101BC00020E030E040E05FE30E946124DC01CB01D3
:101BD000BC01CD010E948B22DC01CB01982F812F0B
:101BE000692F0E94F00180917B03282F30E08091C3
:101BF0000C0290910D0282179307BCF580917A0335
:101C0000882F90E0AA2797FDA095BA2FBC01CD019F
:101C10000E94EB257B018C0180910C0290910D02BA
:101C2000AA2797FDA095BA2FBC01CD010E94EB25F4
:101C3000DC01CB01BC01CD012AE939E949E15FE3CF
:101C40000E946124DC01CB019C01AD01C801B701F8
:101C50000E945B2518164CF48F8D98A18130910558
:101C600021F481E090E09E8F8D8F80917B03282F5F
:101C700030E080910C0290910D0282179307BCF521
:101C800080917C03882F90E0AA2797FDA095BA2F1A
:101C9000BC01CD010E94EB257B018C0180910C02DF
:101CA00090910D02AA2797FDA095BA2FBC01CD01F6
:101CB0000E94EB25DC01CB01BC01CD012AE939E909
:101CC00049E15FE30E946124DC01CB019C01AD018D
:101CD000C801B7010E945B2518164CF48F8D98A19E
:101CE0008230910521F481E090E09E8F8D8F8D8D63
:101CF0009E8D8130910509F0FCCE0E94410280E06A
:101D000090E0A0E2B2E48B879C87AD87BE876B85AD
:101D10007C858D859E852DEC3CEC4CE255E40E9443
:101D20006124DC01CB018F839887A987BA876F81F3
:101D3000788589859A8520E030E040E85FE30E945D
:101D4000BB2588232CF481E090E09E838D833FC0E7
:101D50006F81788589859A8520E03FEF4FE757E4CA
:101D60000E945B2518164CF56B857C858D859E85BC
:101D700020E030E040E251E40E946124DC01CB012C
:101D8000BC01CD010E948B22DC01CB019E838D839F
:101D90000FC084E191E09C838B838B819C810197B0
:101DA000F1F79C838B838D819E8101979E838D8328
:101DB0008D819E81009769F714C06F817885898530
:101DC0009A850E948B22DC01CB019E838D838D81BD
:101DD0009E819A83898389819A810197F1F79A83F9
:101DE0008983A0960FB6F894DEBF0FBECDBFCF910A
:101DF000DF911F910F91FF90EF900895DF93CF93A4
:101E0000CDB7DEB781E061E00E94CD0A8EE092E0BE
:101E10000E949C0A81E090E00E948B0CCF91DF91A0
:101E20000895DF93CF93CDB7DEB781E061E00E94E4
:101E3000CD0A83E192E00E949C0A82E090E00E9439
:101E40008B0CCF91DF910895DF93CF93CDB7DEB7A1
:101E500060970FB6F894DEBF0FBECDBF0E944B0C4B
:101E600080917D03833828F480917E03803F08F0C1
:101E70007FC00E94410281E061E00E94CD0A89E1B9
:101E800092E00E949C0A80E090E0A8ECB2E48B878C
:101E90009C87AD87BE876B857C858D859E852DEC67
:101EA0003CEC4CE255E40E946124DC01CB018F83C1
:101EB0009887A987BA876F81788589859A8520E078
:101EC00030E040E85FE30E94BB2588232CF481E0EA
:101ED00090E09E838D833FC06F81788589859A8548
:101EE00020E03FEF4FE757E40E945B2518164CF5C2
:101EF0006B857C858D859E8520E030E040E251E455
:101F00000E946124DC01CB01BC01CD010E948B2227
:101F1000DC01CB019E838D830FC084E191E09C8323
:101F20008B838B819C810197F1F79C838B838D81BF
:101F30009E8101979E838D838D819E81009769F795
:101F400014C06F81788589859A850E948B22DC0177
:101F5000CB019E838D838D819E819A838983898124
:101F60009A810197F1F79A838983188A1F8604C0A2
:101F700081E090E0988B8F878F85988960960FB667
:101F8000F894DEBF0FBECDBFCF91DF910895DF93F0
:101F9000CF93CDB7DEB7AC970FB6F894DEBF0FBEC8
:101FA000CDBF0E944B0C80E090E0A0E8BFE38FA380
:101FB00098A7A9A7BAA76FA178A589A59AA52DEC7E
:101FC0003CEC4CE255E40E946124DC01CB018BA384
:101FD0009CA3ADA3BEA36BA17CA18DA19EA120E07B
:101FE00030E040E85FE30E94BB2588232CF481E0C9
:101FF00090E09AA389A33FC06BA17CA18DA19EA173
:1020000020E03FEF4FE757E40E945B2518164CF5A0
:102010006FA178A589A59AA520E030E040E251E4BF
:102020000E946124DC01CB01BC01CD010E948B2206
:10203000DC01CB019AA389A30FC084E191E098A3AE
:102040008F8F8F8D98A10197F1F798A38F8F89A11A
:102050009AA101979AA389A389A19AA1009769F7E8
:1020600014C06BA17CA18DA19EA10E948B22DC01DA
:10207000CB019AA389A389A19AA19E8F8D8F8D8D63
:102080009E8D0197F1F79E8F8D8F80917B03282F76
:1020900030E080910C0290910D02821793070CF0B2
:1020A00027C180917A03282F30E080910C02909113
:1020B0000D02821793070CF01BC180917C03282F1F
:1020C00030E080910C0290910D02821793070CF082
:1020D0000FC10E94AE0181E061E00E94CD0A82E260
:1020E00092E00E949C0A0E944B0C0E940502809183
:1020F000000290910102382F809102029091030218
:10210000282F8091040290910502922F981B832F13
:10211000692F0E94F00180E090E0A8E4B3E4898F89
:102120009A8FAB8FBC8F698D7A8D8B8D9C8D2DECAA
:102130003CEC4CE255E40E946124DC01CB018D8B28
:102140009E8BAF8BB88F6D897E898F89988D20E0AB
:1021500030E040E85FE30E94BB2588232CF481E057
:1021600090E09C8B8B8B3FC06D897E898F89988D89
:1021700020E03FEF4FE757E40E945B2518164CF52F
:10218000698D7A8D8B8D9C8D20E030E040E251E4AA
:102190000E946124DC01CB01BC01CD010E948B2295
:1021A000DC01CB019C8B8B8B0FC084E191E09A8B7F
:1021B000898B89899A890197F1F79A8B898B8B8909
:1021C0009C8901979C8B8B8B8B899C89009769F7E5
:1021D00014C06D897E898F89988D0E948B22DC01C5
:1021E000CB019C8B8B8B8B899C89988B8F878F8560
:1021F00098890197F1F7988B8F870E94410280E0C0
:1022000090E0AAE7B4E48B879C87AD87BE876B8597
:102210007C858D859E852DEC3CEC4CE255E40E943E
:102220006124DC01CB018F839887A987BA876F81EE
:10223000788589859A8520E030E040E85FE30E9458
:10224000BB2588232CF481E090E09E838D833FC0E2
:102250006F81788589859A8520E03FEF4FE757E4C5
:102260000E945B2518164CF56B857C858D859E85B7
:1022700020E030E040E251E40E946124DC01CB0127
:10228000BC01CD010E948B22DC01CB019E838D839A
:102290000FC084E191E09C838B838B819C810197AB
:1022A000F1F79C838B838D819E8101979E838D8323
:1022B0008D819E81009769F714C06F81788589852B
:1022C0009A850E948B22DC01CB019E838D838D81B8
:1022D0009E819A83898389819A810197F1F79A83F4
:1022E00089830E94990181E090E09CA78BA702C09E
:1022F0001CA61BA68BA59CA5AC960FB6F894DEBFBA
:102300000FBECDBFCF91DF910895DF93CF93CDB7AF
:10231000DEB766970FB6F894DEBF0FBECDBF81E083
:1023200061E00E94CD0A8FE292E00E949C0A0E9426
:102330004B0C0E94050280910002909101029A8B41
:10234000898B2091020230910302809104029091C6
:102350000502A901481B590BCA01988B8F878091F0
:102360007B03282F30E080910C0290910D028217A0
:1023700093070CF055C080917A03282F30E08091AC
:102380000C0290910D0282179307FCF489899A89B7
:10239000AA2797FDA095BA2FBC01CD010E94EB257D
:1023A000DC01CB01BC01CD0123E333E343E35FE375
:1023B0000E946124DC01CB01BC01CD010E944926B1
:1023C000DC01CB019A8B898B6AC080917C03282F1A
:1023D00030E080910C0290910D02821793070CF06F
:1023E0005EC08F859889AA2797FDA095BA2FBC015A
:1023F000CD010E94EB25DC01CB01BC01CD0123E323
:1024000033E343E35FE30E946124DC01CB01BC01C1
:10241000CD010E944926DC01CB01988B8F873FC0FC
:1024200080917A03282F30E080910C0290910D0268
:1024300082179307ACF489899A899C8B8B8B8B8943
:102440009C89992334F44B895C894F5F5F4F5C8B87
:102450004B8B8B899C89959587959A8B898B1FC00F
:1024600080917C03282F30E080910C0290910D0226
:1024700082179307A4F48F8598899E8B8D8B8D8905
:102480009E89992334F44D895E894F5F5F4F5E8B3F
:102490004D8B8D899E8995958795988B8F87898996
:1024A0009F85692F0E94F00180917B03282F30E0E7
:1024B00080910C0290910D02281739070CF094C0FE
:1024C00080917A03282F30E080910C0290910D02C8
:1024D000281739070CF088C080917C03282F30E042
:1024E00080910C0290910D02281739070CF07CC0E6
:1024F0000E94410280E090E0A8ECB2E48B879C87C8
:10250000AD87BE876B857C858D859E852DEC3CECEB
:102510004CE255E40E946124DC01CB018F83988753
:10252000A987BA876F81788589859A8520E030E010
:1025300040E85FE30E94BB2588232CF481E090E013
:102540009E838D833FC06F81788589859A8520E041
:102550003FEF4FE757E40E945B2518164CF56B855B
:102560007C858D859E8520E030E040E251E40E942C
:102570006124DC01CB01BC01CD010E948B22DC0176
:10258000CB019E838D830FC084E191E09C838B837C
:102590008B819C810197F1F79C838B838D819E8138
:1025A00001979E838D838D819E81009769F714C06A
:1025B0006F81788589859A850E948B22DC01CB0109
:1025C0009E838D838D819E819A83898389819A815F
:1025D0000197F1F79A83898381E061E00E94CD0A37
:1025E0008BE392E00E949C0A66960FB6F894DEBFD9
:1025F0000FBECDBFCF91DF9108951F920F920FB6FE
:102600000F9200905B000F9211242F933F934F93F2
:102610005F936F937F938F939F93AF93BF93EF934A
:10262000FF93DF93CF9300D0CDB7DEB7F894E6ECFD
:10263000F0E0808180939D038091990390919A03AB
:10264000009771F480919D03809397038091990383
:1026500090919A03019690939A038093990332C0C4
:102660008091990390919A038130910571F4809142
:102670009D03809398038091990390919A0301960A
:1026800090939A03809399031DC080919903909130
:102690009A0382309105B1F480919703873651F403
:1026A0009091980380914002981721F480919D03A6
:1026B0008093A703109297031092980310929A03A5
:1026C00010929903789481E061E00E94CD0A0F9006
:1026D0000F900F90CF91DF91FF91EF91BF91AF914C
:1026E0009F918F917F916F915F914F913F912F912A
:1026F0000F9000925B000F900FBE0F901F901895E7
:10270000DF93CF93CDB7DEB7E0970FB6F894DEBF77
:102710000FBECDBF9EA78DA778AB6FA7F894E6EC50
:10272000F0E083E2808380E090E0A0E8BFE38FA345
:1027300098A7A9A7BAA76FA178A589A59AA52DECF6
:102740003CEC4CE255E40E946124DC01CB018BA3FC
:102750009CA3ADA3BEA36BA17CA18DA19EA120E0F3
:1027600030E040E85FE30E94BB2588232CF481E041
:1027700090E09AA389A33FC06BA17CA18DA19EA1EB
:1027800020E03FEF4FE757E40E945B2518164CF519
:102790006FA178A589A59AA520E030E040E251E438
:1027A0000E946124DC01CB01BC01CD010E948B227F
:1027B000DC01CB019AA389A30FC084E191E098A327
:1027C0008F8F8F8D98A10197F1F798A38F8F89A193
:1027D0009AA101979AA389A389A19AA1009769F761
:1027E00014C06BA17CA18DA19EA10E948B22DC0153
:1027F000CB019AA389A389A19AA19E8F8D8F8D8DDC
:102800009E8D0197F1F79E8F8D8F1CA61BA682C00F
:10281000A6ECB0E02BA53CA58DA59EA5FC01E20F82
:10282000F31F80818C9380E090E0A0E8BFE3898F64
:102830009A8FAB8FBC8F698D7A8D8B8D9C8D2DEC93
:102840003CEC4CE255E40E946124DC01CB018D8B11
:102850009E8BAF8BB88F6D897E898F89988D20E094
:1028600030E040E85FE30E94BB2588232CF481E040
:1028700090E09C8B8B8B3FC06D897E898F89988D72
:1028800020E03FEF4FE757E40E945B2518164CF518
:10289000698D7A8D8B8D9C8D20E030E040E251E493
:1028A0000E946124DC01CB01BC01CD010E948B227E
:1028B000DC01CB019C8B8B8B0FC084E191E09A8B68
:1028C000898B89899A890197F1F79A8B898B8B89F2
:1028D0009C8901979C8B8B8B8B899C89009769F7CE
:1028E00014C06D897E898F89988D0E948B22DC01AE
:1028F000CB019C8B8B8B8B899C89988B8F878F8549
:1029000098890197F1F7988B8F878BA59CA50196E5
:102910009CA78BA72BA53CA58FA598A9281739079D
:102920000CF476CFE6ECF0E083E2808380E090E088
:10293000A0E8BFE38B879C87AD87BE876B857C85CE
:102940008D859E852DEC3CEC4CE255E40E94612483
:10295000DC01CB018F839887A987BA876F8178853F
:1029600089859A8520E030E040E85FE30E94BB253E
:1029700088232CF481E090E09E838D833FC06F819B
:10298000788589859A8520E03FEF4FE757E40E94DC
:102990005B2518164CF56B857C858D859E8520E022
:1029A00030E040E251E40E946124DC01CB01BC0133
:1029B000CD010E948B22DC01CB019E838D830FC051
:1029C00084E191E09C838B838B819C810197F1F75B
:1029D0009C838B838D819E8101979E838D838D81C6
:1029E0009E81009769F714C06F81788589859A85E3
:1029F0000E948B22DC01CB019E838D838D819E8181
:102A00009A83898389819A810197F1F79A838983CF
:102A10007894E0960FB6F894DEBF0FBECDBFCF918D
:102A2000DF910895DF93CF93CDB7DEB72A970FB626
:102A3000F894DEBF0FBECDBF87E689838091400248
:102A40008A838EE28B838AE28C831D82CE0101967B
:102A500064E070E00E9480132A960FB6F894DEBFFF
:102A60000FBECDBFCF91DF910895DF93CF93CDB748
:102A7000DEB72A970FB6F894DEBF0FBECDBF87E64C
:102A80008983809140028A838EE28B831C82CE01EF
:102A9000019663E070E00E9480132A960FB6F894C6
:102AA000DEBF0FBECDBFCF91DF9108951F920F9271
:102AB0000FB60F9200905B000F9211242F933F935B
:102AC0004F935F936F937F938F939F93AF93BF9336
:102AD000EF93FF93DF93CF930F92CDB7DEB7F894C8
:102AE000E6E3F1E08081898382E061E00E94CD0A23
:102AF00081E492E00E949C0A80919B0390919C0348
:102B00008230910549F589818033E1F080919B0302
:102B100090919C03FC01E255FC4F80E380838091FF
:102B20009B0390919C03019690939C0380939B033D
:102B300080919B0390919C03FC01E255FC4F89819D
:102B4000808313C080919B0390919C03FC01E2550C
:102B5000FC4F8981808309C080919B0390919C03E5
:102B6000FC01E255FC4F8981808380919B03909109
:102B70009C03019690939C0380939B0380919B03FD
:102B800090919C038430910551F482E061E00E94B1
:102B9000CD0A8CE492E00E949C0A1092B2037894D1
:102BA0000F90CF91DF91FF91EF91BF91AF919F91E6
:102BB0008F917F916F915F914F913F912F910F90E6
:102BC00000925B000F900FBE0F901F901895DF933F
:102BD000CF93CDB7DEB71092AE031092AF03109231
:102BE000B0031092B103CF91DF910895DF93CF939B
:102BF000CDB7DEB769970FB6F894DEBF0FBECDBF75
:102C000087E68983809140028A838EE28B8380915C
:102C1000AE038C838091AF038D838091B0038E834C
:102C20008091B1038F83188610929C0310929B03AE
:102C3000CE01019667E070E00E94801369960FB69E
:102C4000F894DEBF0FBECDBFCF91DF910895DF9323
:102C5000CF930F920F92CDB7DEB78A8319828A8104
:102C6000807F8A838A818983E2E2F0E089818083A0
:102C70000F900F90CF91DF910895DF93CF93CDB751
:102C8000DEB780E80E942716CF91DF910895DF9389
:102C9000CF93CDB7DEB780E40E942716CF91DF91A6
:102CA0000895DF93CF93CDB7DEB780E10E9427165A
:102CB000CF91DF910895DF93CF93CDB7DEB780E258
:102CC0000E942716CF91DF910895DF93CF93CDB760
:102CD000DEB780E00E942716CF91DF910895DF9341
:102CE000CF93CDB7DEB76C970FB6F894DEBF0FBEAB
:102CF000CDBF0E94471680E090EEABE2B5E4898F2D
:102D00009A8FAB8FBC8F698D7A8D8B8D9C8D2DECBE
:102D10003CEC4CE255E40E946124DC01CB018D8B3C
:102D20009E8BAF8BB88F6D897E898F89988D20E0BF
:102D300030E040E85FE30E94BB2588232CF481E06B
:102D400090E09C8B8B8B3FC06D897E898F89988D9D
:102D500020E03FEF4FE757E40E945B2518164CF543
:102D6000698D7A8D8B8D9C8D20E030E040E251E4BE
:102D70000E946124DC01CB01BC01CD010E948B22A9
:102D8000DC01CB019C8B8B8B0FC084E191E09A8B93
:102D9000898B89899A890197F1F79A8B898B8B891D
:102DA0009C8901979C8B8B8B8B899C89009769F7F9
:102DB00014C06D897E898F89988D0E948B22DC01D9
:102DC000CB019C8B8B8B8B899C89988B8F878F8574
:102DD00098890197F1F7988B8F870E94651680E09C
:102DE00090E0AAEFB4E48B879C87AD87BE876B85A4
:102DF0007C858D859E852DEC3CEC4CE255E40E9453
:102E00006124DC01CB018F839887A987BA876F8102
:102E1000788589859A8520E030E040E85FE30E946C
:102E2000BB2588232CF481E090E09E838D833FC0F6
:102E30006F81788589859A8520E03FEF4FE757E4D9
:102E40000E945B2518164CF56B857C858D859E85CB
:102E500020E030E040E251E40E946124DC01CB013B
:102E6000BC01CD010E948B22DC01CB019E838D83AE
:102E70000FC084E191E09C838B838B819C810197BF
:102E8000F1F79C838B838D819E8101979E838D8337
:102E90008D819E81009769F714C06F81788589853F
:102EA0009A850E948B22DC01CB019E838D838D81CC
:102EB0009E819A83898389819A810197F1F79A8308
:102EC00089836C960FB6F894DEBF0FBECDBFCF914D
:102ED000DF910895DF93CF93CDB7DEB76C970FB630
:102EE000F894DEBF0FBECDBF0E943D1680E090E299
:102EF000A9E1B5E4898F9A8FAB8FBC8F698D7A8DEC
:102F00008B8D9C8D2DEC3CEC4CE255E40E946124B1
:102F1000DC01CB018D8B9E8BAF8BB88F6D897E8949
:102F20008F89988D20E030E040E85FE30E94BB2568
:102F300088232CF481E090E09C8B8B8B3FC06D89C3
:102F40007E898F89988D20E03FEF4FE757E40E94FC
:102F50005B2518164CF5698D7A8D8B8D9C8D20E044
:102F600030E040E251E40E946124DC01CB01BC016D
:102F7000CD010E948B22DC01CB019C8B8B8B0FC07F
:102F800084E191E09A8B898B89899A890197F1F77D
:102F90009A8B898B8B899C8901979C8B8B8B8B89D6
:102FA0009C89009769F714C06D897E898F89988DF7
:102FB0000E948B22DC01CB019C8B8B8B8B899C89A3
:102FC000988B8F878F8598890197F1F7988B8F87DA
:102FD0000E94651680E090E0AAEFB4E48B879C879E
:102FE000AD87BE876B857C858D859E852DEC3CEC01
:102FF0004CE255E40E946124DC01CB018F83988769
:10300000A987BA876F81788589859A8520E030E025
:1030100040E85FE30E94BB2588232CF481E090E028
:103020009E838D833FC06F81788589859A8520E056
:103030003FEF4FE757E40E945B2518164CF56B8570
:103040007C858D859E8520E030E040E251E40E9441
:103050006124DC01CB01BC01CD010E948B22DC018B
:10306000CB019E838D830FC084E191E09C838B8391
:103070008B819C810197F1F79C838B838D819E814D
:1030800001979E838D838D819E81009769F714C07F
:103090006F81788589859A850E948B22DC01CB011E
:1030A0009E838D838D819E819A83898389819A8174
:1030B0000197F1F79A8389836C960FB6F894DEBF77
:1030C0000FBECDBFCF91DF910895DF93CF93CDB7E2
:1030D000DEB76C970FB6F894DEBF0FBECDBF0E946F
:1030E000511680E090E0A8ECB4E4898F9A8FAB8F02
:1030F000BC8F698D7A8D8B8D9C8D2DEC3CEC4CE2D8
:1031000055E40E946124DC01CB018D8B9E8BAF8B3B
:10311000B88F6D897E898F89988D20E030E040E8F6
:103120005FE30E94BB2588232CF481E090E09C8B18
:103130008B8B3FC06D897E898F89988D20E03FEF12
:103140004FE757E40E945B2518164CF5698D7A8D80
:103150008B8D9C8D20E030E040E251E40E946124A0
:10316000DC01CB01BC01CD010E948B22DC01CB0133
:103170009C8B8B8B0FC084E191E09A8B898B898922
:103180009A890197F1F79A8B898B8B899C89019792
:103190009C8B8B8B8B899C89009769F714C06D89F8
:1031A0007E898F89988D0E948B22DC01CB019C8BBC
:1031B0008B8B8B899C89988B8F878F8598890197BA
:1031C000F1F7988B8F870E94651680E090E0AAEF58
:1031D000B4E48B879C87AD87BE876B857C858D85A6
:1031E0009E852DEC3CEC4CE255E40E946124DC0110
:1031F000CB018F839887A987BA876F817885898566
:103200009A8520E030E040E85FE30E94BB258823F8
:103210002CF481E090E09E838D833FC06F817885A0
:1032200089859A8520E03FEF4FE757E40E945B25B0
:1032300018164CF56B857C858D859E8520E030E0E9
:1032400040E251E40E946124DC01CB01BC01CD01CC
:103250000E948B22DC01CB019E838D830FC084E111
:1032600091E09C838B838B819C810197F1F79C83F8
:103270008B838D819E8101979E838D838D819E811D
:10328000009769F714C06F81788589859A850E94B7
:103290008B22DC01CB019E838D838D819E819A835D
:1032A000898389819A810197F1F79A8389836C9642
:1032B0000FB6F894DEBF0FBECDBFCF91DF9108955A
:1032C000DF93CF93CDB7DEB76C970FB6F894DEBF20
:1032D0000FBECDBF0E945B1680E090E0A8ECB4E486
:1032E000898F9A8FAB8FBC8F698D7A8D8B8D9C8DDA
:1032F0002DEC3CEC4CE255E40E946124DC01CB0156
:103300008D8B9E8BAF8BB88F6D897E898F89988DC1
:1033100020E030E040E85FE30E94BB2588232CF4E6
:1033200081E090E09C8B8B8B3FC06D897E898F897B
:10333000988D20E03FEF4FE757E40E945B25181679
:103340004CF5698D7A8D8B8D9C8D20E030E040E2CC
:1033500051E40E946124DC01CB01BC01CD010E943B
:103360008B22DC01CB019C8B8B8B0FC084E191E025
:103370009A8B898B89899A890197F1F79A8B898B26
:103380008B899C8901979C8B8B8B8B899C8900975F
:1033900069F714C06D897E898F89988D0E948B2270
:1033A000DC01CB019C8B8B8B8B899C89988B8F87C5
:1033B0008F8598890197F1F7988B8F870E9441023A
:1033C00080E090E0AAE7B4E48B879C87AD87BE8756
:1033D0006B857C858D859E852DEC3CEC4CE255E41F
:1033E0000E946124DC01CB018F839887A987BA876B
:1033F0006F81788589859A8520E030E040E85FE339
:103400000E94BB2588232CF481E090E09E838D836D
:103410003FC06F81788589859A8520E03FEF4FE72F
:1034200057E40E945B2518164CF56B857C858D85CD
:103430009E8520E030E040E251E40E946124DC01FE
:10344000CB01BC01CD010E948B22DC01CB019E830C
:103450008D830FC084E191E09C838B838B819C8161
:103460000197F1F79C838B838D819E8101979E83C9
:103470008D838D819E81009769F714C06F81788557
:1034800089859A850E948B22DC01CB019E838D83E6
:103490008D819E819A83898389819A810197F1F731
:1034A0009A8389836C960FB6F894DEBF0FBECDBFAA
:1034B000CF91DF910895DF93CF930F920F92CDB705
:1034C000DEB71A8219820E944B0C0E94240F0097CB
:1034D000E1F30E94C70F8130910591F489819A81AF
:1034E00001969A83898389819A818230910529F492
:1034F0000E94FE0E1A821982E6CF0E948511E3CF48
:103500000E948511E0CFDF93CF93CDB7DEB76C97E4
:103510000FB6F894DEBF0FBECDBF0E94471680E005
:1035200090E0AAEFB4E4898F9A8FAB8FBC8F698D3E
:103530007A8D8B8D9C8D2DEC3CEC4CE255E40E94F9
:103540006124DC01CB018D8B9E8BAF8BB88F6D8995
:103550007E898F89988D20E030E040E85FE30E940B
:10356000BB2588232CF481E090E09C8B8B8B3FC0A3
:103570006D897E898F89988D20E03FEF4FE757E472
:103580000E945B2518164CF5698D7A8D8B8D9C8D6C
:1035900020E030E040E251E40E946124DC01CB01F4
:1035A000BC01CD010E948B22DC01CB019C8B8B8B5B
:1035B0000FC084E191E09A8B898B89899A89019760
:1035C000F1F79A8B898B8B899C8901979C8B8B8BCC
:1035D0008B899C89009769F714C06D897E898F89D2
:1035E000988D0E948B22DC01CB019C8B8B8B8B896D
:1035F0009C89988B8F878F8598890197F1F7988B95
:103600008F870E943D1680E090E0AAEFB4E48B879C
:103610009C87AD87BE876B857C858D859E852DECCF
:103620003CEC4CE255E40E946124DC01CB018F8329
:103630009887A987BA876F81788589859A8520E0E0
:1036400030E040E85FE30E94BB2588232CF481E052
:1036500090E09E838D833FC06F81788589859A85B0
:1036600020E03FEF4FE757E40E945B2518164CF52A
:103670006B857C858D859E8520E030E040E251E4BD
:103680000E946124DC01CB01BC01CD010E948B2290
:10369000DC01CB019E838D830FC084E191E09C838C
:1036A0008B838B819C810197F1F79C838B838D8128
:1036B0009E8101979E838D838D819E81009769F7FE
:1036C0002CCF6F81788589859A850E948B22DC01B9
:1036D000CB019E838D838D819E819A83898389818D
:1036E0009A810197F1F79A83898317CFDF93CF935C
:1036F000CDB7DEB70E948511FDCFDF93CF93CDB755
:10370000DEB760970FB6F894DEBF0FBECDBF0E9444
:103710004B0C0E94240F0097E1F30E9499010E9434
:10372000C70F8130910509F079C00E9435150E94BC
:10373000410280E090E0A8ECB2E48B879C87AD87E3
:10374000BE876B857C858D859E852DEC3CEC4CE29F
:1037500055E40E946124DC01CB018F839887A987FF
:10376000BA876F81788589859A8520E030E040E8C6
:103770005FE30E94BB2588232CF481E090E09E83C8
:103780008D833FC06F81788589859A8520E03FEFE2
:103790004FE757E40E945B2518164CF56B857C8536
:1037A0008D859E8520E030E040E251E40E94612456
:1037B000DC01CB01BC01CD010E948B22DC01CB01DD
:1037C0009E838D830FC084E191E09C838B838B81EA
:1037D0009C810197F1F79C838B838D819E8101975A
:1037E0009E838D838D819E81009769F714C06F81C0
:1037F000788589859A850E948B22DC01CB019E8386
:103800008D838D819E819A83898389819A81019795
:10381000F1F79A838983188A1F8606C00E94851152
:1038200081E090E0988B8F878F85988960960FB69E
:10383000F894DEBF0FBECDBFCF91DF9108950F93F7
:103840001F93DF93CF93CDB7DEB7CC58D0400FB6E0
:10385000F894DEBF0FBECDBF87E78093A7038091AA
:10386000A7038737E1F36BC10E944102FE01E757CE
:10387000FF4F80E090E0AAE7B5E480839183A283C4
:10388000B3838E010B571F4FFE01E757FF4F608137
:103890007181828193812DEC3CEC4CE255E40E94D5
:1038A0006124DC01CB01F80180839183A283B3837F
:1038B000FE01EB57FF4F608171818281938120E08F
:1038C00030E040E85FE30E94BB25882344F4FE011A
:1038D000ED57FF4F81E090E09183808364C0FE014B
:1038E000EB57FF4F608171818281938120E03FEF30
:1038F0004FE757E40E945B2518160CF043C0FE0109
:10390000E757FF4F608171818281938120E030E031
:1039100040E251E40E946124DC01CB018E010D578D
:103920001F4FBC01CD010E948B22DC01CB01F801AD
:10393000918380831FC0FE01EF57FF4F84E191E028
:1039400091838083FE01EF57FF4F80819181019722
:10395000F1F7FE01EF57FF4F91838083DE01AD57F2
:10396000BF4FFE01ED57FF4F808191810197119666
:103970009C938E93FE01ED57FF4F808191810097BC
:10398000D1F627C08E010D571F4FFE01EB57FF4F99
:1039900060817181828193810E948B22DC01CB0145
:1039A000F80191838083DE01A158BF4FFE01ED57DE
:1039B000FF4F808191818D939C93FE01E158FF4FD1
:1039C000808191810197F1F7FE01E158FF4F9183CA
:1039D00080830E943515FE01E558FF4F80E090E09E
:1039E000A8ECB2E480839183A283B3838E0109584B
:1039F0001F4FFE01E558FF4F6081718182819381E5
:103A00002DEC3CEC4CE255E40E946124DC01CB013E
:103A1000F80180839183A283B383FE01E958FF4FAD
:103A2000608171818281938120E030E040E85FE332
:103A30000E94BB25882344F4FE01EB58FF4F81E030
:103A400090E09183808364C0FE01E958FF4F60815C
:103A500071818281938120E03FEF4FE757E40E941C
:103A60005B2518160CF043C0FE01E558FF4F60813E
:103A700071818281938120E030E040E251E40E9434
:103A80006124DC01CB018E010B581F4FBC01CD011D
:103A90000E948B22DC01CB01F801918380831FC03F
:103AA000FE01ED58FF4F84E191E091838083FE0198
:103AB000ED58FF4F808191810197F1F7FE01ED589C
:103AC000FF4F91838083DE01AB58BF4FFE01EB585F
:103AD000FF4F80819181019711969C938E93FE01F7
:103AE000EB58FF4F808191810097D1F628C08E015D
:103AF0000B581F4FFE01E958FF4F60817181828191
:103B000093810E948B22DC01CB01F8019183808399
:103B1000DE01AF58BF4FFE01EB58FF4F808191810E
:103B200011969C938E93FE01EF58FF4F80819181F7
:103B30000197F1F7FE01EF58FF4F91838083809149
:103B4000A703882309F490CE8091A703863611F449
:103B50001092A7038091A703823721F41092A70344
:103B60000E94110F8091A7038C3621F41092A703B5
:103B70000E94FE0E8091A703883609F0B9C010920A
:103B8000A7030E944102FE01E359FF4F80E090E04D
:103B9000A8ECB2E480839183A283B3838E0107599A
:103BA0001F4FFE01E359FF4F608171818281938134
:103BB0002DEC3CEC4CE255E40E946124DC01CB018D
:103BC000F80180839183A283B383FE01E759FF4FFD
:103BD000608171818281938120E030E040E85FE381
:103BE0000E94BB25882344F4FE01E959FF4F81E080
:103BF00090E09183808364C0FE01E759FF4F6081AC
:103C000071818281938120E03FEF4FE757E40E946A
:103C10005B2518160CF043C0FE01E359FF4F60818D
:103C200071818281938120E030E040E251E40E9482
:103C30006124DC01CB018E0109591F4FBC01CD016C
:103C40000E948B22DC01CB01F801918380831FC08D
:103C5000FE01EB59FF4F84E191E091838083FE01E7
:103C6000EB59FF4F808191810197F1F7FE01EB59EC
:103C7000FF4F91838083DE01A959BF4FFE01E959AF
:103C8000FF4F80819181019711969C938E93FE0145
:103C9000E959FF4F808191810097D1F6E0CD8E01E7
:103CA00009591F4FFE01E759FF4F608171818281E1
:103CB00093810E948B22DC01CB01F80191838083E8
:103CC000DE01AD59BF4FFE01E959FF4F808191815F
:103CD00011969C938E93FE01ED59FF4F8081918147
:103CE0000197F1F7FE01ED59FF4F91838083B7CD26
:103CF0008091A7038F3609F0BAC087E78093A703A6
:103D00000E944102FE01E15AFF4F80E090E0A8ECE2
:103D1000B2E480839183A283B3838E01055A1F4F3F
:103D2000FE01E15AFF4F60817181828193812DEC08
:103D30003CEC4CE255E40E946124DC01CB01F8012B
:103D400080839183A283B383FE01E55AFF4F608194
:103D500071818281938120E030E040E85FE30E943E
:103D6000BB25882344F4FE01E75AFF4F81E090E031
:103D70009183808364C0FE01E55AFF4F60817181A9
:103D80008281938120E03FEF4FE757E40E945B255B
:103D900018160CF043C0FE01E15AFF4F608171819B
:103DA0008281938120E030E040E251E40E9461246E
:103DB000DC01CB018E01075A1F4FBC01CD010E94CF
:103DC0008B22DC01CB01F801918380831FC0FE01AF
:103DD000E95AFF4F84E191E091838083FE01E95A23
:103DE000FF4F808191810197F1F7FE01E95AFF4F62
:103DF00091838083DE01A75ABF4FFE01E75AFF4F30
:103E000080819181019711969C938E93FE01E75AD0
:103E1000FF4F808191810097D1F621CD8E01075A05
:103E20001F4FFE01E55AFF4F6081718182819381AE
:103E30000E948B22DC01CB01F80191838083DE019B
:103E4000AB5ABF4FFE01E75AFF4F80819181119617
:103E50009C938E93FE01EB5AFF4F808191810197D5
:103E6000F1F7FE01EB5AFF4F91838083F8CC8091EC
:103E7000A703833609F0A8C287E78093A7030E94AF
:103E80003D16FE01EF5AFF4F80E090ECA8E2B5E44A
:103E900080839183A283B3838E01035B1F4FFE0156
:103EA000EF5AFF4F60817181828193812DEC3CEC50
:103EB0004CE255E40E946124DC01CB01F8018083CF
:103EC0009183A283B383FE01E35BFF4F6081718125
:103ED0008281938120E030E040E85FE30E94BB25CF
:103EE000882344F4FE01E55BFF4F81E090E091837D
:103EF000808364C0FE01E35BFF4F6081718182813A
:103F0000938120E03FEF4FE757E40E945B251816AE
:103F10000CF043C0FE01EF5AFF4F60817181828136
:103F2000938120E030E040E251E40E946124DC0112
:103F3000CB018E01055B1F4FBC01CD010E948B227E
:103F4000DC01CB01F801918380831FC0FE01E75B98
:103F5000FF4F84E191E091838083FE01E75BFF4F97
:103F6000808191810197F1F7FE01E75BFF4F91831B
:103F70008083DE01A55BBF4FFE01E55BFF4F8081C3
:103F80009181019711969C938E93FE01E55BFF4F03
:103F9000808191810097D1F627C08E01055B1F4F6C
:103FA000FE01E35BFF4F60817181828193810E94FA
:103FB0008B22DC01CB01F80191838083DE01A95BB8
:103FC000BF4FFE01E55BFF4F808191818D939C93F4
:103FD000FE01E95BFF4F808191810197F1F7FE01BE
:103FE000E95BFF4F918380830E946516FE01ED5BC4
:103FF000FF4F80E090E0AAEFB4E480839183A28336
:10400000B3838E01015C1F4FFE01ED5BFF4F6081AA
:104010007181828193812DEC3CEC4CE255E40E944D
:104020006124DC01CB01F80180839183A283B383F7
:10403000FE01FF96608171818281938120E030E0F2
:1040400040E85FE30E94BB2588232CF481E090E0E8
:104050009EAF8DAF46C0FE01FF9660817181828167
:10406000938120E03FEF4FE757E40E945B2518164D
:1040700064F5FE01ED5BFF4F608171818281938168
:1040800020E030E040E251E40E946124DC01CB01F9
:10409000BC01CD010E948B22DC01CB019EAF8DAF14
:1040A0000FC084E191E09CAF8BAF8BAD9CAD0197CD
:1040B000F1F79CAF8BAF8DAD9EAD01979EAF8DAFED
:1040C0008DAD9EAD009769F716C0FE01FF96608129
:1040D0007181828193810E948B22DC01CB019EAF92
:1040E0008DAF8DAD9EAD9AAF89AF89AD9AAD019779
:1040F000F1F79AAF89AF0E9465180E94471680E0D9
:1041000090ECA1E4B5E48DAB9EABAFABB8AF6DA9BD
:104110007EA98FA998AD2DEC3CEC4CE255E40E94B1
:104120006124DC01CB0189AB9AABABABBCAB69A919
:104130007AA98BA99CA920E030E040E85FE30E94C7
:10414000BB2588232CF481E090E098AB8FA73FC07B
:1041500069A97AA98BA99CA920E03FEF4FE757E412
:104160000E945B2518164CF56DA97EA98FA998AD04
:1041700020E030E040E251E40E946124DC01CB0108
:10418000BC01CD010E948B22DC01CB0198AB8FA733
:104190000FC084E191E09EA78DA78DA59EA50197F4
:1041A000F1F79EA78DA78FA598A9019798AB8FA728
:1041B0008FA598A9009769F714C069A97AA98BA956
:1041C0009CA90E948B22DC01CB0198AB8FA78FA505
:1041D00098A99CA78BA78BA59CA50197F1F79CA7F5
:1041E0008BA70E94651680E090E0AAEFB4E48FA34D
:1041F00098A7A9A7BAA76FA178A589A59AA52DEC1C
:104200003CEC4CE255E40E946124DC01CB018BA321
:104210009CA3ADA3BEA36BA17CA18DA19EA120E018
:1042200030E040E85FE30E94BB2588232CF481E066
:1042300090E09AA389A33FC06BA17CA18DA19EA110
:1042400020E03FEF4FE757E40E945B2518164CF53E
:104250006FA178A589A59AA520E030E040E251E45D
:104260000E946124DC01CB01BC01CD010E948B22A4
:10427000DC01CB019AA389A30FC084E191E098A34C
:104280008F8F8F8D98A10197F1F798A38F8F89A1B8
:104290009AA101979AA389A389A19AA1009769F786
:1042A00014C06BA17CA18DA19EA10E948B22DC0178
:1042B000CB019AA389A389A19AA19E8F8D8F8D8D01
:1042C0009E8D0197F1F79E8F8D8F82E061E00E94B5
:1042D000CD0A85E592E00E949C0A80E090ECAAE578
:1042E000B5E4898F9A8FAB8FBC8F698D7A8D8B8D5A
:1042F0009C8D2DEC3CEC4CE255E40E946124DC01E9
:10430000CB018D8B9E8BAF8BB88F6D897E898F890A
:10431000988D20E030E040E85FE30E94BB258823D1
:104320002CF481E090E09C8B8B8B3FC06D897E8963
:104330008F89988D20E03FEF4FE757E40E945B257F
:1043400018164CF5698D7A8D8B8D9C8D20E030E0B0
:1043500040E251E40E946124DC01CB01BC01CD01AB
:104360000E948B22DC01CB019C8B8B8B0FC084E1E4
:1043700091E09A8B898B89899A890197F1F79A8BB9
:10438000898B8B899C8901979C8B8B8B8B899C89D2
:10439000009769F714C06D897E898F89988D0E9476
:1043A0008B22DC01CB019C8B8B8B8B899C89988B1E
:1043B0008F878F8598890197F1F7988B8F870E9457
:1043C000F6150E94E7154BCA8091A703843609F0C1
:1043D00086C087E78093A7030E946A170E9460192E
:1043E0000E946F1682E061E00E94CD0A80E692E0B2
:1043F0000E949C0A80E090ECAAE5B5E48B879C873C
:10440000AD87BE876B857C858D859E852DEC3CECCC
:104410004CE255E40E946124DC01CB018F83988734
:10442000A987BA876F81788589859A8520E030E0F1
:1044300040E85FE30E94BB2588232CF481E090E0F4
:104440009E838D833FC06F81788589859A8520E022
:104450003FEF4FE757E40E945B2518164CF56B853C
:104460007C858D859E8520E030E040E251E40E940D
:104470006124DC01CB01BC01CD010E948B22DC0157
:10448000CB019E838D830FC084E191E09C838B835D
:104490008B819C810197F1F79C838B838D819E8119
:1044A00001979E838D838D819E81009769F714C04B
:1044B0006F81788589859A850E948B22DC01CB01EA
:1044C0009E838D838D819E819A83898389819A8140
:1044D0000197F1F79A8389830E941215C0C90E943F
:1044E0007D1B8130910509F0BAC9F9CFDF93CF93D5
:1044F000CDB7DEB70E94820181E061E00E94CD0A63
:1045000089E692E00E949C0A0E941F1C80E090E0D5
:10451000CF91DF910895EF92FF920F931F937B014C
:104520008C0120E030E040E05FE40E948B2588238E
:104530008CF0C801B70120E030E040E05FE40E9469
:1045400003240E9449269B01AC012050304040408A
:10455000504806C0C801B7010E9449269B01AC0122
:10456000B901CA011F910F91FF90EF900895A0E04B
:10457000B0E0EDEBF2E20C94A628DC012B01FA018D
:104580009C91923008F439C1EB018881823008F4A3
:1045900033C1943069F4843009F02FC111969C9195
:1045A00011978981981709F428C1A1E7B2E025C1C4
:1045B000843009F421C18230A9F4923009F01DC180
:1045C0009A01AD0188E0EA010990AE01E901099282
:1045D0009E018150C1F7E201898111969C91892346
:1045E000818308C1923009F407C112962D903C9046
:1045F0001397EB018A819B811496AD90BD90CD906D
:10460000DC901797EC80FD800E811F819101281BA3
:10461000390BB90137FF04C066277727621B730B7C
:10462000603271050CF061C0121613066CF537018B
:104630004801062E04C096948794779467940A9450
:10464000D2F721E030E040E050E004C0220F331FF9
:10465000441F551F6A95D2F72150304040405040CA
:104660002E213F21402351232115310541055105BC
:1046700021F021E030E040E050E079018A01E628B5
:10468000F728082919293CC0232BD1F1260E371E03
:1046900035014601062E04C096948794779467945A
:1046A0000A94D2F721E030E040E050E004C0220F4D
:1046B000331F441F551F6A95D2F7215030404040A8
:1046C00050402A213B214C215D2121153105410516
:1046D000510521F021E030E040E050E059016A014D
:1046E000A628B728C828D9280BC0821593052CF016
:1046F0001C01AA24BB24650103C0EE24FF2487010A
:1047000011969C91D20111968C91981709F445C08D
:10471000992339F0A80197012A193B094C095D0931
:1047200006C0A60195012E193F09400B510B57FDFC
:1047300008C01182338222822483358346835783C3
:104740001DC081E081833382228288279927DC0182
:10475000821B930BA40BB50B84839583A683B7832D
:104760000DC0220F331F441F551F248335834683FA
:10477000578382819381019793838283248135813A
:1047800046815781DA01C9010197A109B1098F5FFB
:104790009F4FAF4FBF4328F30BC0918333822282D8
:1047A000EA0CFB1C0C1D1D1DE482F5820683178399
:1047B00083E08083248135814681578157FF1AC069
:1047C000C901AA2797FDA095BA2F81709070A0709B
:1047D000B0705695479537952795822B932BA42B30
:1047E000B52B84839583A683B783828193810196B9
:1047F00093838283DF0101C0D201CD01CDB7DEB743
:10480000E2E10C94C228A0E2B0E0E9E0F4E20C940A
:10481000B22869837A838B839C832D833E834F8365
:104820005887E9E0EE2EF12CEC0EFD1ECE0101962C
:10483000B7010E94C1278E010F5E1F4FCE01059662
:10484000B8010E94C1278A8991E089278A8BC70114
:10485000B801AE01475E5F4F0E94B7220E94EC266E
:10486000A096E6E00C94CE28A0E2B0E0EAE3F4E201
:104870000C94B22869837A838B839C832D833E8337
:104880004F835887F9E0EF2EF12CEC0EFD1ECE0180
:104890000196B7010E94C1278E010F5E1F4FCE0106
:1048A0000596B8010E94C127C701B801AE01475E55
:1048B0005F4F0E94B7220E94EC26A096E6E00C947F
:1048C000CE28A0E2B0E0E7E6F4E20C94A6286983E3
:1048D0007A838B839C832D833E834F835887CE01BD
:1048E0000196BE01675F7F4F0E94C127CE010596EA
:1048F000BE016F5E7F4F0E94C1279985923088F07C
:1049000089898230C8F0943019F4823051F404C09F
:10491000843029F4923081F481E792E0C6C092306D
:1049200049F420E09A858A89981321E02A87CE01EC
:104930000996BBC0823049F420E09A858A89981391
:1049400021E02A8BCE014196B0C02D843E844F8455
:1049500058886D887E888F88988CEE24FF24870184
:10496000AA24BB24650140E050E060E070E0E0E094
:10497000F0E0C10181709070892BE9F0E60CF71C22
:10498000081D191D9A01AB012A0D3B1D4C1D5D1D13
:1049900080E090E0A0E0B0E0E614F7040805190517
:1049A00020F481E090E0A0E0B0E0BA01A901480F56
:1049B000591F6A1F7B1FAA0CBB1CCC1CDD1C97FE59
:1049C00008C081E090E0A0E0B0E0A82AB92ACA2A95
:1049D000DB2A3196E032F10549F0660C771C881C21
:1049E000991C5694479437942794C3CFFA85EA8943
:1049F0002B893C898B859C85280F391F2E5F3F4F63
:104A000017C0CA0181709070892B61F016950795C7
:104A1000F794E79480E090E0A0E0B0E8E82AF92A73
:104A20000A2B1B2B76956795579547952F5F3F4F20
:104A300077FDE7CF0CC0440F551F661F771F17FD8A
:104A40004160EE0CFF1C001F111F21503040403010
:104A500090E0590790E0690790E4790760F32B8FA5
:104A60003C8FDB01CA018F779070A070B0708034EA
:104A70009105A105B10561F447FD0AC0E114F104F7
:104A80000105110529F0405C5F4F6F4F7F4F407863
:104A90001A8EFE1711F081E08A8F4D8F5E8F6F8F17
:104AA00078A383E0898FCE0149960E94EC26A096D8
:104AB000E2E10C94C228A8E1B0E0E1E6F5E20C9452
:104AC000B22869837A838B839C832D833E834F83B3
:104AD000588789E0E82EF12CEC0EFD1ECE010196E0
:104AE000B7010E94C1278E010F5E1F4FCE010596B0
:104AF000B8010E94C1278985823040F089898230BF
:104B000028F0C701B8010E94392801C08FEF6896CC
:104B1000E6E00C94CE28A8E1B0E0E1E9F5E20C94DF
:104B2000B22869837A838B839C832D833E834F8352
:104B3000588789E0E82EF12CEC0EFD1ECE0101967F
:104B4000B7010E94C1278E010F5E1F4FCE0105964F
:104B5000B8010E94C1278985823040F0898982305E
:104B600028F0C701B8010E94392801C08FEF68966C
:104B7000E6E00C94CE28A8E1B0E0E1ECF5E20C947C
:104B8000B22869837A838B839C832D833E834F83F2
:104B9000588789E0E82EF12CEC0EFD1ECE0101961F
:104BA000B7010E94C1278E010F5E1F4FCE010596EF
:104BB000B8010E94C1278985823040F089898230FE
:104BC00028F0C701B8010E94392801C081E0689629
:104BD000E6E00C94CE28A8E0B0E0E1EFF5E20C941A
:104BE000AF289B01AC0183E08983DA01C9018827E2
:104BF000B7FD83959927AA27BB27B82E2115310524
:104C00004105510519F482E089833AC08823A9F04F
:104C1000203080E0380780E0480780E8580729F412
:104C200060E070E080E09FEC30C0EE24FF2487015C
:104C3000E21AF30A040B150B02C079018A018EE116
:104C4000C82ED12CDC82CB82ED82FE820F831887A6
:104C5000C801B7010E949D2601971816190684F411
:104C6000082E04C0EE0CFF1C001F111F0A94D2F77F
:104C7000ED82FE820F831887C81AD90ADC82CB82A4
:104C8000BA82CE0101960E94EC262896E9E00C94A7
:104C9000CB28ACE0B0E0EFE4F6E20C94B6286983F0
:104CA0007A838B839C83CE010196BE016B5F7F4F1D
:104CB0000E94C1278D81823061F1823050F18430B1
:104CC00021F48E81882351F12EC02F81388537FD44
:104CD00020C06E812F3131051CF06623F9F023C00E
:104CE0008EE190E0821B930B29853A854B855C858C
:104CF00004C056954795379527958A95D2F7662330
:104D0000B1F050954095309521953F4F4F4F5F4FF3
:104D10000EC020E030E040E050E009C02FEF3FEF50
:104D20004FEF5FE704C020E030E040E050E8B90119
:104D3000CA012C96E2E00C94D228EF92FF920F93D6
:104D40001F937B018C0180E0E81680E0F80681E08B
:104D5000080780E0180788F48FEFE816F1040105D2
:104D6000110531F028F088E090E0A0E0B0E017C035
:104D700080E090E0A0E0B0E012C080E0E81680E0C3
:104D8000F80680E0080781E0180728F088E190E045
:104D9000A0E0B0E004C080E190E0A0E0B0E020E25C
:104DA00030E040E050E0281B390B4A0B5B0B04C09D
:104DB00016950795F794E7948A95D2F7F701E75887
:104DC000FD4F8081281B310941095109C9011F91FB
:104DD0000F91FF90EF900895DF92EF92FF920F9363
:104DE0001F93FC01E480F58006811781D1808081CA
:104DF000823048F480E090E0A0E1B0E0E82AF92AAF
:104E00000A2B1B2BA5C0843009F49FC0823021F4EB
:104E1000EE24FF24870105C0E114F104010511050A
:104E200019F4E0E0F0E096C0628173819FEF623890
:104E300079070CF05BC022E83FEF261B370B2A31C5
:104E400031052CF020E030E040E050E02AC0B8010D
:104E5000A701022E04C076956795579547950A9449
:104E6000D2F781E090E0A0E0B0E004C0880F991F85
:104E7000AA1FBB1F2A95D2F70197A109B1098E215C
:104E80009F21A023B1230097A105B10521F081E066
:104E900090E0A0E0B0E09A01AB01282B392B4A2B1F
:104EA0005B2BDA01C9018F779070A070B0708034ED
:104EB0009105A105B10539F427FF09C0205C3F4FDA
:104EC0004F4F5F4F04C0215C3F4F4F4F5F4FE0E0BB
:104ED000F0E02030A0E03A07A0E04A07A0E45A073B
:104EE00010F0E1E0F0E079018A0127C06038710537
:104EF00064F5FB01E158FF4FD801C7018F7790702F
:104F0000A070B07080349105A105B10539F4E7FEB9
:104F10000DC080E490E0A0E0B0E004C08FE390E03A
:104F2000A0E0B0E0E80EF91E0A1F1B1F17FF05C026
:104F300016950795F794E794319687E016950795AF
:104F4000F794E7948A95D1F705C0EE24FF248701F2
:104F5000EFEFF0E06E2F679566276795902F9F77AC
:104F6000D794DD24D7948E2F8695492F462B582F22
:104F70005D29B701CA011F910F91FF90EF90DF905B
:104F80000895FC01DB01408151812281622F6F77FE
:104F900070E0221F2227221F9381892F880F822BE6
:104FA000282F30E0991F9927991F11969C931197EC
:104FB00021153105A9F5411551056105710511F45A
:104FC00082E037C082E89FEF13969C938E931297EE
:104FD0009A01AB0167E0220F331F441F551F6A95EA
:104FE000D1F783E08C930DC0220F331F441F551F50
:104FF00012968D919C911397019713969C938E9383
:105000001297203080E0380780E0480780E4580796
:1050100058F314962D933D934D935C9317970895F1
:105020002F3F310579F4411551056105710519F4DA
:1050300084E08C93089564FF03C081E08C9312C0D8
:105040001C9210C02F57304013963C932E9312970A
:1050500083E08C9387E0440F551F661F771F8A9566
:10506000D1F7706414964D935D936D937C9317976D
:1050700008951F93DC01FB019C91923008F447C016
:105080008081823008F443C0943051F411961C9111
:10509000843099F58181682F70E0611B71093FC0F0
:1050A000843021F0923031F48230B9F1818188234B
:1050B00089F12DC011961C9111978230F1F08181F8
:1050C0001817D9F412962D913C91139782819381F0
:1050D0008217930794F028173907BCF014968D9126
:1050E0009D910D90BC91A02D2481358146815781E1
:1050F000281739074A075B0718F4112341F00AC043
:1051000082179307A407B50740F4112319F061E053
:1051100070E005C06FEF7FEF02C060E070E0CB0190
:105120001F910895AA1BBB1B51E107C0AA1FBB1FFB
:10513000A617B70710F0A61BB70B881F991F5A9523
:10514000A9F780959095BC01CD0108952F923F92CB
:105150004F925F926F927F928F929F92AF92BF9287
:10516000CF92DF92EF92FF920F931F93CF93DF9333
:10517000CDB7DEB7CA1BDB0B0FB6F894DEBF0FBE90
:10518000CDBF19942A88398848885F846E847D84CD
:105190008C849B84AA84B984C884DF80EE80FD80DF
:1051A0000C811B81AA81B981CE0FD11D0FB6F89455
:0E51B000DEBF0FBECDBFED010895F894FFCF16
:1051BE0078007800BFFF0000803FC80096004C6565
:1051CE006674005269676874004F62737461636C31
:1051DE006500496E74657273656374696F6E00471E
:1051EE006F2053747261696768740053746F700036
:1051FE003052656164696E672E2E2E0052666964A8
:10520E005265616400436F6C6C656374696E670010
:10521E0044726F7070696E670057656C636F6D6571
:10522E000000000000000000000001020203030362
:10523E00030404040404040404050505050505051A
:10524E0005050505050505050506060606060606F9
:10525E0006060606060606060606060606060606E0
:10526E0006060606060606060607070707070707C9
:10527E0007070707070707070707070707070707B0
:10528E0007070707070707070707070707070707A0
:10529E000707070707070707070707070707070790
:1052AE000707070707070707070808080808080879
:1052BE000808080808080808080808080808080860
:1052CE000808080808080808080808080808080850
:1052DE000808080808080808080808080808080840
:1052EE000808080808080808080808080808080830
:1052FE000808080808080808080808080808080820
:10530E00080808080808080808080808080808080F
:10531E0008080808080808080808080808080808FF
:0A532E00080808080808080808002D
:00000001FF
